:020000040800F2
:100000003868002039030008518C00080186000878
:100010004D8C0008E9460008919800080000000097
:10002000000000000000000000000000318D00080A
:100030000549000800000000C18C00089D8D0008E3
:100040005303000853030008530300085303000838
:100050005303000853030008530300085303000828
:100060005303000853030008530300080D4700081A
:100070001D4700082D4700083D4700084D47000870
:100080005D470008530300085303000853030008AA
:10009000ED4600085303000853030008530300080B
:1000A00053030008530300085303000853030008D8
:1000B000AD8E0008530300085303000853030008E3
:1000C00053030008530300085303000853030008B8
:1000D00053030008399800084998000871980008EF
:1000E0005303000853030008530300085303000898
:1000F0005303000853030008530300086D4700082A
:100100005303000853030008530300085303000877
:1001100009940008199400085303000853030008C9
:10012000530300087D4700088D470008530300086B
:100130005303000853030008530300085303000847
:10014000FD4600085303000853030008530300084A
:10015000530300089D470008AD4700088198000838
:100160005303000853030008530300085303000817
:100170005303000853030008530300080000000065
:10018000530300085303000800F002F800F0C4F81D
:100190000AA090E8000C82448344AAF10107DA45E2
:1001A00001D100F0B9F8AFF2090EBAE80F0013F070
:1001B000010F18BFFB1A43F0010318473437020040
:1001C000543702000A444FF0000C10F8013B13F0C2
:1001D000070408BF10F8014B1D1108BF10F8015BA0
:1001E000641E05D010F8016B641E01F8016BF9D193
:1001F00013F0080F1EBF10F8014BAD1C0C1B09D1EA
:100200006D1E58BF01F801CBFAD505E014F8016B5B
:1002100001F8016B6D1EF9D59142D6D370470000ED
:100220000023002400250026103A28BF78C1FBD8FF
:10023000520728BF30C148BF0B6070476E2902F0DB
:100240006380702902F0C781662921F06A836529DD
:1002500021F06783672921F06483612921F063839A
:1002600003681B0A28BF41F08001692902F0108051
:10027000642902F00D80752902F00A806F2902F0CE
:100280005581782902F09381E92902F0EF80E42971
:1002900002F0EC80F52902F0E980EF2902F05281AA
:1002A000F82902F092810368DB0928BF41F0800140
:1002B000632900F08187732900F08687E32903F022
:1002C0007285F32903F07785002070471FB521F070
:1002D00013FB9DE8030000F04FFA01F0E7FE040075
:1002E0000020002121F0D4F8401C60600020002193
:1002F00021F0E4F8E0600020002121F0F5F8206111
:1003000001F0A2F900F000FA1FBD10B5002001F0C5
:1003100005FC01F002FA10BD01F0A3FE1146FFF743
:10032000D5FF1EF0A5FF03F0F4FA03B4FFF7EDFFCD
:1003300003BC00F0FBF9000009488047094800476A
:10034000FEE7FEE7FEE7FEE7FEE7FEE7FEE7FEE785
:10035000FEE7FEE704480549054A064B70470000E2
:10036000998E000889010008386200203868002052
:10037000386400203864002070B5064600F0DCF9CF
:10038000056806F10B0020F00704B4429CBF002072
:1003900070BD2B466A68BAB11068A04210D304F150
:1003A000080188423CBF5068586007D35168101953
:1003B00041601168091B016058601460101D70BD18
:1003C00013465268002AE7D12146284600F0C0F9BA
:1003D0000028DED170BD70B50446051F00F0ACF9F1
:1003E0000068002C14BF446870BD002C18BFAC42DC
:1003F0003CBF20466468F8D301680A18AA4218BFB7
:10040000456003D12A6805461144016028684119F6
:10041000A1421CBF6C6070BD6168696021680844BE
:10042000286070BD53EA020C00F069802DE9F04BA2
:100430004FF00006002B1FBFB3FA83F503FA05F453
:1004400024FA05F65E4012BF1643B2FA82F502FAAC
:1004500005F4C5F120051EBF22FA05FC44EA0C0490
:10046000203556EA044C4FEA144418BF641C4FF080
:1004700000084FF00009904271EB030C39D30029BA
:1004800019BFB1FA81F701FA07F6B0FA80F700FA5E
:1004900007F6C7F120071EBF20FA07FC46EA0C0644
:1004A0002037B6FBF4FCA7EB0507103F07F01F0B46
:1004B000CBF120062CFA06F60CFA0BFB44BFB34630
:1004C0000026202FA4BF5E464FF0000B5BEA060C0F
:1004D00008BF4FF0010B19EB0B0948EB0608ABFB0B
:1004E000027C06FB02CC0BFB03CCC01B71EB0C01A6
:1004F000C1E70B46024641464846BDE8F08B13B5BE
:10050000084318BF4FF0FF300146AFF30080BDE84D
:100510001C40704710B5002000F0CFFAFFF7F5FE41
:10052000BDE81040012000F001B90B460146184615
:1005300000F0ACBA10B5431C02E010F8011B71B119
:100540008107FAD14FF0013202C88C1A8C4314EAA9
:10055000C211F9D0C01A0A0603D0C01E10BDC01ABD
:1005600010BD0A0401D0801E10BD0902FCD0401E3F
:1005700010BD032A40F2308010F0030C00F015800B
:1005800011F8013BBCF1020F624498BF11F801CB96
:1005900000F8013B38BF11F8013BA2F1040298BFFB
:1005A00000F801CB38BF00F8013B11F0030300F065
:1005B0002580083AC0F0088051F8043B083A51F809
:1005C00004CBA0E80810F5E7121D5CBF51F8043B0E
:1005D00040F8043BAFF30080D20724BF11F8013B81
:1005E00011F801CB48BF11F8012B24BF00F8013BE3
:1005F00000F801CB48BF00F8012B704710B5203A36
:10060000C0F00B80B1E81850A0E81850B1E81850BD
:10061000A0E81850203ABFF4F5AF5FEA027C24BF8F
:10062000B1E81850A0E8185044BF18C918C0BDE878
:1006300010405FEA827C24BF51F8043B40F8043B41
:1006400008BF7047D20728BF31F8023B48BF11F8F6
:10065000012B28BF20F8023B48BF00F8012B704750
:1006600002F0FF0343EA032242EA024200F002B82A
:100670004FF000020429C0F0128010F0030C00F0CB
:100680001B80CCF1040CBCF1020F18BF00F8012B49
:10069000A8BF20F8022BA1EB0C0100F00DB85FEA17
:1006A000C17C24BF00F8012B00F8012B48BF00F8E3
:1006B000012B70474FF0000200B513469446964652
:1006C000203922BFA0E80C50A0E80C50B1F1200165
:1006D000BFF4F7AF090728BFA0E80C5048BF0CC013
:1006E0005DF804EB890028BF40F8042B08BF704771
:1006F00048BF20F8022B11F0804F18BF00F8012BE3
:10070000704770477047704770B5064C7C44064D83
:100710007D4404E02046016808448047241DAC4223
:10072000F8D170BDBC340200E83402000149182041
:10073000ABBEFEE72600020000487047EC02002036
:1007400000487047E40200207047704770477047C8
:1007500038B504460A4600206946AFF300800028F9
:1007600008BF38BD02460099204600F073FA012008
:1007700038BD012001F010BAF8B5AFF3008005468E
:1007800000200C46102000BF0646A819A0420DD933
:10079000324669460020AFF30080070008BF01F031
:1007A000FBF90098A04218BF0546C419FFF7C4FF23
:1007B00005600746F01D20F007004619284600F0A6
:1007C0000AF8B44208BFF8BDA21B31463868BDE83C
:1007D000F84000F03FBA00210160C0E90110704705
:1007E0001020704710B5FFF7ABFF006810BD10B5C3
:1007F0000446FFF7A5FF046010BD70B50C46054622
:10080000012A05D02878800600D5EA69002302E095
:10081000012305E05B1C934202D2E05C0028F9D181
:10082000A869E618C01AA861286A184428622846F0
:1008300001F0F4FC04E0D5E9012114F8010B904724
:10084000B442F8D3284601F0FFFC70BD2DE9F05FFB
:10085000894604464FF0000ADFF874B1FB44C0F843
:1008600020A02046E1688847002874D0252806D0BB
:10087000D4E901219047206A401C2062F1E700265C
:100880005F462046E16888472028054607DB312D72
:1008900005D2781910F8200C08B10643F1E7B0072B
:1008A00001D526F00406C4F81CA00027C4F818A03F
:1008B0002A2D09D0284620F04EFD38B304EB8708D6
:1008C000303DC8F8185019E059F8041B204604EBD5
:1008D00087029161E1688847012F054618D1E069D8
:1008E000002820DA26F020061DE0D8F8180000EBDA
:1008F000800005EB40003038C8F818002046E16859
:100900008847054620F027FD0028EED1012F0AD0A8
:100910002E2D08D12046E16888477F1C0546022F0E
:1009200046F02006C4DBA069002803DA404246F006
:100930000106A061F00701D026F010066C2D0BD047
:10094000682D09D04C2D39D06A2D35D0742D35D075
:100950007A2D33D016E038E0E1682F4620468847EC
:10096000B842054609D16C2F26D04FF48060E1686B
:10097000064320468847054604E06C2F1AD04FF402
:10098000807006430DB3A5F14100192802D8203527
:1009900046F400664A462946204626604E46FFF742
:1009A0004DFC80B101280BD0F61D26F0070000F1A8
:1009B000080956E74020E4E78020D8E70020D6E782
:1009C00006F104094DE7284652E7206ABDE8F09F8A
:1009D000C611020000F090BC00F0D6BC70B5044611
:1009E000C068810713D0800601D5A56A04E0A1691B
:1009F000606808442169451A204600F0E1FD0022A4
:100A000006462946204600F0FDFC304670BD002019
:100A100070BD70B510B1BDE87040DFE70025074C30
:100A20006E1E07E02046FFF7D9FF00B13546206D66
:100A300020F00104002CF5D1284670BDE80100200B
:100A400020F090BCCA68431C0FD00D4B1A420CD149
:100A5000D3070AD081F825004B680B6300238B6015
:100A600012F0C06F0B6003D004E04FF0FF3070470E
:100A700042F00072034B1A40034B1A43CA6070479E
:100A800080200800BFFFDFFF001048002DE9F04183
:100A9000074615460E461020FFF76EFC04000AD0EC
:100AA0006760C4E9026500F06FF8016821600460C6
:100AB0000020BDE8F0810120FBE710B501F054F8FB
:100AC000BDE8104001F04BB8002101E0801C491C3A
:100AD0000288002AFAD108467047431A28BF9A4272
:100AE0007FF647AD10441144032A40F2268010F0EF
:100AF000030F1EBF11F8013D521E00F8013D10F01A
:100B0000030F7FF4F6AF11F0030301F05F80083AA2
:100B1000C0F00B8051F8043D083A51F804CD40F87C
:100B2000043D40F804CDFFF7F3BF121D5CBF51F840
:100B3000043D40F8043DAFF30080D20724BF11F814
:100B4000013D11F801CD48BF11F8012C24BF00F878
:100B5000013D00F801CD48BF00F8012C704708B5F1
:100B600069468DF800000320ABBE08BD0048704701
:100B7000E40200207047000010B501F097FA001D54
:100B800010BD00BF0D090200004870471C03002083
:100B900070B50D460646041FFFF7CEFD0268BDB1D5
:100BA000DEB105F10B0020F00701A9423CBF002097
:100BB00070BD23688B4238BF506813D35A1A082A75
:100BC00036D3601840F8042B2160FFF704FC2FE0B7
:100BD0003046FFF700FC002070BD2846BDE870409D
:100BE000FFF7CABB002818BFA0423CBF02464068BE
:100BF000F8D303EB040C84451CD1D0F800C0634447
:100C0000994217D8A3EB010CBCF1080F0DD3D0F813
:100C100004C06318C3F804C0D4F800C0006860447E
:100C2000401A18602160536002E023604068506001
:100C3000201D70BD2846FFF79FFB050008D03146F8
:100C40002068021F2846FFF7D9FC201DFFF7C3FBD1
:100C5000284670BD034640688C46002818BF88426D
:100C60003CBF03464068F8D318681844884207D050
:100C70000CF1030020F00700001D411A521A014632
:100C8000081D0A60FFF7A7BB10B501F061FA00F07C
:100C9000080010BD2DE9F0410F46134615460A46DF
:100CA00006460021084601F09BFA0446401CFFF767
:100CB00063FB306030B1611C2B463A46BDE8F04121
:100CC00001F08EBA4FF0FF30BDE8F0810FB41CB5D3
:100CD0000C0007AA009007D04142A14202D3204451
:100CE000401E01E04FF0FF30074B7B446946019006
:100CF000069800F03CFA0021002C01D0009A1170F7
:100D00001CBC5DF814FB0000A70400007CB51D4668
:100D100016460C00009007D04142A14202D3204465
:100D2000401E01E04FF0FF30064B7B442A466946E7
:100D30000190304600F01BFA002C02D0009A0021EE
:100D400011707CBD670400002DE9FF4F0C461E4664
:100D50004FF0FF378BB0D2E90001DDF860800A90D8
:100D60008A46C1F30A5505B93D46002108464FF0B1
:100D70000000BAF1000F00F4400005DA00EB80003B
:100D80004FF4400101EA50004FEA9059B9F1010FC8
:100D900000DDB9460A9850EA4A000ED044F61050D9
:100DA000A5F2FF3545432F14B8F1000F1ED0754250
:100DB000291E1EDDC9F100021CE0B8F1010F4FF041
:100DC000000001D0302103E0F24305E02154401C33
:100DD000B042FBDB30460022002121540B99C1F8C0
:100DE0000880C1E900200FB0BDE8F08FBD1B6D1C6D
:100DF000DEE74A4600DA694206A802F041FA06AB8D
:100E000093E8070003AB83E8070050460A991FF0F8
:100E10003DFD8DE80700A0F500501F3800900398B5
:100E2000002D0ADD42F21F014A460844002303A9AF
:100E3000039068461FF0E8FF09E0A0F500504A461D
:100E40001F38002303A90390684620F007F88DE8B7
:100E500007000004000C03D04FF0FF30410800E011
:100E60001046B8F1000F03D00022009215461EE094
:100E7000751E05D401F01EF9303262556D1EF9D58C
:100E8000B3460122084302D000227F1C04E02078F0
:100E9000302801D100227F1E002A099784D01DE04E
:100EA000112D07DA01F006F9303262556D1C50EA57
:100EB0000102F5D1084302D00098C8B10EE000212C
:100EC000681E05E0235C625C63542254401E491C8A
:100ED0008142F7DBAB46A81B401E0990002004F8B6
:100EE0000B000B98099AC0F80880C0E9002B7AE73C
:100EF00011264FF0000857E72DE9F04F88460446C9
:100F0000D21D22F0070191B0D1E90001CDE90A011B
:100F100020F0F0F802460B98C00F01D02D2007E01A
:100F20002068810701D52B2002E0202101EAC000C2
:100F3000032A099001D0072A05DB034641462046D3
:100F400001F0F6F90BE12078800601D5E06900E0B8
:100F50000620B8F1650F814606D0B8F1660F18D0AB
:100F6000B8F1670F70D131E00020B9F1110F009096
:100F700001DB112301E009F101030AAA01A90CA870
:100F8000FFF7E2FEDDE90C70002609F1010583465A
:100F900047E001204B4600904FF000470AAA01A904
:100FA0000CA8FFF7D1FEDDE90DB00C995D460026D7
:100FB00010B909F101000D18B9EB050003D4C0F117
:100FC000FF3609F10105A5EB09002BE0B9F1010F8E
:100FD00001DA4FF001090020B9F1110F00904846E5
:100FE00001DD112300E003460AAA01A90CA8FFF7BE
:100FF000ABFEDDE90C704D460026834620780007E5
:101000000AD4AB4500DA5D4601A8012D04DD411983
:1010100011F8011C302907D04F4502DA17F1040FEF
:1010200004DA012082460FE06D1EEEE7002F02DC9D
:10103000ED1B3E4403E0781CA84200DD7D1CB81B7C
:1010400000F1010A4FF000472078000703D4AA45B9
:1010500001DB4FF0FF3A0021B7F1004F0DF14308DB
:101060008DF8431024D002202B23002F01DA7F4279
:101070002D230A21021EA0F1010000DC5FB197FBC5
:10108000F1FC97FBF1F201FB1C7C17460CF1300CD4
:1010900008F801CDEEE7A8F10100037021880905E9
:1010A00001D5452100E06521A0F1010800F8011CEF
:1010B00009980FA9A1EB0807FF1D00B101204119F4
:1010C00001EBEA70A1693844081A401EA06120783B
:1010D000C00602D4204601F0A1F8099828B1D4E94D
:1010E00001219047206A401C20622078C00622D54A
:1010F000204601F093F81EE0002E04DBB34502DD2C
:1011000001A8805D00E03020D4E901219047206AE9
:10111000401C2062761CAAF101005FEA000A0AD195
:1011200000F0C4FFC0680168405CD4E90121904729
:10113000206A401C2062281EA5F10105DCDC07E0C6
:10114000D4E9012118F8010B9047206A401C206265
:10115000381EA7F10107F3DC204601F075F80320E3
:1011600011B041E601694A1C02610878704700B578
:101170008FB0CDE901310021059105497944CDE9D0
:10118000031011466846FFF761FB0FB000BD000079
:10119000E5FFFFFFD1E900239A4202D2531C0B6006
:1011A0001070704710B5436913B1AFF3008001E0D0
:1011B000FFF723FB012010BD127800F124010A7013
:1011C00000224A700122EDE711684FF0FF32E9E793
:1011D00000B58DB0099000920B904FF0FF300A904F
:1011E00000200C90054878440690054878446A46EB
:1011F000079009A801F04CFE0DB000BDC71C00000F
:10120000DF1C00000FB400B58DB010A9099000914B
:101210000B904FF0FF300A9000200C900648784465
:101220000690064878446A4607900F9909A801F08D
:101230002FFE0DB05DF814FB8F1C0000A71C0000F2
:101240000FB40B0010B54FF000048AB00FA9009145
:101250000E99CC60234C7C44234A7A44CDE9064263
:1012600000D004236FF00042CDE901321F4A7A44D6
:101270006B4608920246002020F0B7FB0AB010BC73
:101280005DF814FBF0B507464FF0FF301E461546DB
:101290000C463B4685B06A460091CDE901013146D6
:1012A0000020049004A8FFF7CBFF049903466018C0
:1012B00025B109B1024600E022462A6000290ED07D
:1012C000002B02DD0099814209D03B466A46314637
:1012D000001B0094CDE9010404A8FFF7B1FF05B09D
:1012E000F0BD0000571C0000711C0000CD0E000076
:1012F00000230360FFF7C6BF2DE9F04791460E4675
:1013000080460446002514F8017B2FB1FFF734FC1A
:101310000068C05DC007F6D12B2F02D02D2F1ED044
:10132000641E4A463146204601F0E2FD26B132688D
:10133000A24201D1C6F800804FF002046A0518D518
:101340000023D0EB030563EB01025D1B934109DB36
:101350000023D0EB030063EB0101BDE8F08745F407
:101360008065DEE7FFF7ECF9046000204FF00041F4
:10137000F3E7021E71F10002EFDAFFF7E1F9046012
:101380004FF0FF304108E8E72DE9F05F93460F4644
:10139000804604460026FFF7D3F9D0F80090824635
:1013A00014F8015B2DB1FFF7E7FB0068405DC00753
:1013B000F6D12B2D02D02D2D1FD0641E0021CAF88E
:1013C00000105A463946204601F092FD024627B1E8
:1013D0003868A04201D1C7F80080DAF8000002287E
:1013E0000ED0CAF8009070050AD500200346D2EB53
:1013F000000063EB0101BDE8F09F46F48066DDE785
:101400001046F8E72DE9F041044616460D464769B7
:10141000007B80072ED0384600F00FFE50BB3EB355
:10142000012E02D0022E25D104E0204600F066F8FD
:1014300005441DE0384600F00EFEE168002841F04A
:101440001001E16005DA204600F07AF80120BDE8DD
:10145000F081C9030BD56268E16A914200D8114658
:10146000A26911442269891A814200DD08460544B7
:10147000002D01DA0220EAE7E16A6068E268814251
:1014800006D29103E06203D522F4003141F010024C
:10149000A6690027AE4213DCE16A814201D90B46FE
:1014A00000E0034603EB060C2369ACEB030CAC45F0
:1014B00006DD814201D98C4600E084469C4505D179
:1014C000A760276042F02000A5620DE0AD1BE66931
:1014D000AE1B8142A66000D90846C01A281A2060B7
:1014E0005819606022F0200003490840E0600020A5
:1014F00084F84870ABE70000BFCFD7FF10B50146B6
:10150000C268900703D0900607D5886A0AE0FFF703
:1015100017F901210160881E10BD8B6948681844C5
:101520000B69C01A91F848301BB191F84910401A64
:1015300010BD1103FCD50028FADD401E10BD0000CF
:10154000C16821F4001141F08001C1600021816077
:10155000016070472DE9F74F15460C464FF0FF3BF1
:101560003848D768D2F814A0074209D05046A96974
:1015700000F069FD002819DB3248C0430740EF60E6
:101580004FF000496FF000484C4501D3464600E05B
:10159000264600993B465046324600F03FFDA96979
:1015A00020F00042B21A1144A96128B12846FFF781
:1015B000C7FF5846BDE8FE8FA41BE5D10020F9E720
:1015C00070B504460569C06A6168884200D808465B
:1015D000E16821F42011E160C90312D5A84208D0C6
:1015E0002246411B2846FFF7B5FF10B14FF0FF30F0
:1015F00070BD0020E562C4E90150E06820F480304D
:10160000E060002070BD10B50446C06820F02000E6
:10161000E060A16AA06988420DD02046FFF7D0FFA4
:10162000E06820F4405040F01000E060A06AA06143
:101630002069E062606044F24001E0688843E06055
:1016400010BD00001000020010B542485421FFF701
:1016500031F841485421FFF72DF840485421FFF755
:1016600029F83F493B483C4A3F4B08603D490A60E6
:101670003A491960531C0365481C10650120086530
:101680003B48344A39A1784400F07AF820B9384808
:1016900078440A3802F05FF937482F4A35A1784478
:1016A00000F06EF820B9344878440A3802F053F953
:1016B00032482A4A2FA1784400F062F820B92F4816
:1016C00078440A3802F047F940232248DC00002120
:1016D000224602F05DF820B125487844543802F0E3
:1016E0003AF91D4822464023002102F051F820B16A
:1016F00021487844543802F02EF918482246102325
:10170000002102F045F8002806D01C487844BDE8C6
:101710001040563802F01FB910BD104870B5006D6A
:1017200020F001040B4800F0A3F80B4800F0A0F8EB
:101730000A4800F09DF809E0206D20F001052046E0
:1017400000F096F82046FEF746FE2C46002CF3D11A
:1017500070BD0000E80100203C0200209002002043
:10176000000000200400002008000020720000009B
:10177000AD03020077000000990302008503020018
:101780002DE9F0410C461646070047D0104600F000
:101790006FF82078611C61280AD0722802D077285F
:1017A0003CD102E00125002405E00225042402E0EA
:1017B000082448F2020511F8010B2B2806D06228F4
:1017C00009D011F8010C74280AD00BE045F003058C
:1017D00044F00204EFE745F0040544F00104EAE7B1
:1017E00044F010043846214600F008FC411C15D096
:1017F0000021316171604FF40071F560F161706139
:10180000200704D5304602220021FFF7FBFD306D92
:1018100040F0010030653046BDE8F0810020FBE774
:101820002DE9F0410D460646104C206DC10704D04D
:10183000410804D020F00104F7E722460EE05420CE
:10184000FEF79AFD07000ED0206D47F00101084316
:10185000542120653846FEF72DFF3A46294630468A
:10186000BDE8F0418CE70020D6E70000E801002049
:101870002DE9F04704464FF0FF380026C568D4E94B
:101880000497A80718D02046FFF79AFE384600F0C4
:10189000BFFB002800DA4646280502D54846FEF779
:1018A0009AFD4C212046FEF705FF206D20F0010037
:1018B00020653046BDE8F0874046FBE72DE9FE4352
:1018C0000E461746804600210846AFF300800546C5
:1018D0000020009001905EB130784FF0FF3900B1E8
:1018E000AFB11DB1D5E90001CDE9000100240CE044
:1018F0000020BDE8FE83315D6A46641C02A801F049
:10190000C4FF411C03D0012803D0BC42F3D3484696
:10191000EFE71DB1DDE90001C5E90001B8F1000FF5
:1019200003D0BDF80810A8F80010BDF80800002882
:10193000DFD02046DDE770B50C4605460AB11046FB
:1019400003E004210020AFF3008022462946BDE8D1
:1019500070400346002000F03DB82DE9F84F914655
:10196000884605464FF000045FEA030A0E682BD153
:1019700007210020AFF30080824625E016F8011B06
:101980005246684601F081FF0746401C0FD0BF1C3D
:101990001AD01DB1BDF8000025F81400BDF80000F4
:1019A000641C58B1002DE9D0C8F800600EE0FEF7C5
:1019B000C7FE042101603846BDE8F88F15B100214B
:1019C000C8F80010601EF7E7002DD7D04C45D5D3DE
:1019D0002046F1E701F000BF01F03ABF2DE9F84FD2
:1019E0009B469046894605460024DDF828A00E68EF
:1019F0005FEA0A0033D10921AFF3008082462EE06E
:101A0000B8F1000F1AD05246684616F8011BA8F12B
:101A1000010801F03AFF0746401C13D0BF1C1ED03E
:101A20001DB1BDF8000025F81400BDF80000641CCD
:101A300078B1002DE4D0C9F8006012E09DB1C9F87A
:101A4000006010E0FEF77CFE042101603846BDE82E
:101A5000F88F15B10021C9F80010601EF7E7002DBE
:101A6000CED05C45CCD32046F1E72DE9FF4F91461F
:101A70008A46804683B00024109F0D68A7BB0A21C8
:101A80000020AFF3008007462EE017B1D7E900B180
:101A900002913A466846298801F017FF0646401C25
:101AA0000BD0B8F1000F16D00698311981420CD92D
:101AB000EFB10299C7E900B119E0FEF741FE042138
:101AC0000160304607B0BDE8F08F08EB04003246F5
:101AD0006946FEF74EFD2888344450B1AD1CB8F17C
:101AE000000F01D0CAF80050B9F10109CDD220464B
:101AF000E8E7641EB8F1000FF9D00021CAF8001021
:101B0000F5E710B5FFF738F8006890F801110129E2
:101B100001D0012010BDD0F80B0110BD2DE9F0411E
:101B20000646FFF731F88046454613E016B1E068F7
:101B3000B0420ED120682860D4E90101D8F80070C5
:101B400088472046FEF747FCD8F80000B842EBD1A2
:101B500000E025462C68002CE8D1BDE8F081002883
:101B600001D0FEF7E3BD704710B5002102A001F0DF
:101B7000D9FE012010BD0000534947414252543A5A
:101B80002041626E6F726D616C207465726D696E5A
:101B90006174696F6E00000010B501F0E3FEBDE8EE
:101BA0001040FFF7DCBF431A28BF9A427EF626ADED
:101BB0001044114410F0030F1EBF11F8013D521ED6
:101BC00000F8013D10F0030F7FF4F6AF103AC0F0BB
:101BD0000A8010B531E9185020E91850103ABFF4C6
:101BE000F9AFBDE81040530724BF31E9081020E9E0
:101BF000081044BF51F8043D40F8043D12F0030FB3
:101C000008BF7047D20728BF31F8023D48BF11F81E
:101C1000012C28BF20F8023D48BF00F8012C704776
:101C200030B44FF0013C50F8042B51F8043BCCFA8F
:101C300052F4D51A20D1FCB950F8042B51F8043BCA
:101C4000CCFA52F4D51A17D1B4B950F8042B51F884
:101C5000043BCCFA52F4D51A0ED16CB950F8042BCF
:101C600051F8043BCCFA52F4D51A05D1002CDAD045
:101C700030BC4FF00000704729BAB1FA81F111F081
:101C80001801D1F120008440F2D1CA40CB4012F0BB
:101C9000FF0213F0FF0330BCD01A704770B5054641
:101CA00001B90721541A241DB4F5B67F09DD28684F
:101CB00000F05DF9A04204DC2868401C2860012087
:101CC00070BD002C05DA2868401E286000F04FF92E
:101CD0000444072094FBF0F0401C70BD2DE9F04F48
:101CE0001F4615468B468246002689B000F0DEF975
:101CF000D0F810800024BBF1000F70D015F8010B54
:101D000010B125280DD10FE024B1641E06A850F8AB
:101D10002450F3E7002130460AF8061009B0BDE868
:101D2000F08F0AF80600C7E0E94615F8010B5928BC
:101D300070D023DC49286ED014DC44286DD008DC38
:101D40002528EED041283ED0422849D043282CD126
:101D500056E04528E9D0462869D0472876D048285B
:101D600023D17AE04D380C281FD2DFE800F0881E1E
:101D7000061E1E9BA0A9B3B5C1CFD6E75A382128AD
:101D800013D2DFE800F0111212121212121A2637C3
:101D9000455012592612741212797E12801289123D
:101DA00096A212B3BDCB1100A8E725200AF80600C1
:101DB000761C5E4513D26D1EA0E7D8F80010BA69F4
:101DC000D8F8240011E0D8F80410BA69D8F828002F
:101DD0000BE0D8F808103A69D8F82C0005E0B2E01A
:101DE000D8F80C103A69D8F8300002FB001101EB6A
:101DF0000809AAE006A840F82450D8F818108AE08C
:101E00007969642091FBF0F21332484668A192E0B0
:101E1000FA6889E08AE022E0FFE706A840F824504B
:101E200065A5641C6AE7FA6866A1484683E006A8CF
:101E300040F8245064A5F4E7384600F0ADF864217A
:101E400090FBF1F201FB120258E0FFE7384600F088
:101E5000A3F802465FA168466DE0BA6864E0B8681E
:101E60000C210B3090FBF1F201FB120205E0FA6944
:101E700059A14846521C5EE03A694DA1F9E77A68DB
:101E800052E00A2116E0B8680C2802DAD8F81010DF
:101E9000ADE7D8F81410AAE706A840F82450D8F8FF
:101EA000341038E006A840F824504DA5B9E73A6848
:101EB0003AE009210AF80610761C5E45B2D342E0EA
:101EC00006A840F8245048A5ABE7BA6902B9072232
:101ED00048A1AAE700210CE0786900F26C70089034
:101EE000D7E9061208A8FFF7D9FE06E0BA69EFE7BE
:101EF0000121D7E9062000F02EF802462CA1AAE71E
:101F000006A840F82450D8F81C1004E006A840F8B1
:101F10002450D8F8201001EB080582E77969642085
:101F200091FBF0F200FB121221A17EE77A6948468C
:101F300028A102F26C7200F03DF906E00AF80600F2
:101F4000761C5E4501D30020E8E619F8010B002855
:101F50003FF4DFAEF2E7511A00D5C91D401A01D592
:101F600000207047072190FBF1F0401C704781076B
:101F70000CD1642190FBF1F201FB120151B94FF435
:101F8000C87190FBF1F201FB120018B1002000F2C1
:101F90006D1070470120FAE708B5416901F26C71D4
:101FA0000091D0E906126846FFF778FE009808BD58
:101FB000252E326400000000256D2F25642F257921
:101FC000000000002532640025592D256D2D256463
:101FD0000000000025640000252E3364000000008E
:101FE00025483A254D00000025483A254D3A25530D
:101FF00000000000252E3164000000000EB5CDE980
:102000000001FEF797FA029069460120ABBE0EBDB3
:1020100008B5694600900220ABBE08BD1FB58DE82B
:10202000070069460520ABBE04B010BD1FB58DE8A2
:102030000F0069460620ABBEF6E708B5694600907A
:102040000920ABBE08BD1CB5CDE9000169460A20D8
:10205000ABBE1CBD704708B5694600900C20ABBEF6
:1020600008BD7546FEF782FDAE460500694653463B
:1020700020F00700854618B020B5FEF76BF9BDE8E3
:1020800020404FF000064FF000074FF000084FF0DF
:10209000000BAC46ACE8C009ACE8C009ACE8C0092C
:1020A000ACE8C00921F007018D4670470048704731
:1020B0000403002030B5B0F10A0271F100034FEAC9
:1020C000900E4EEA817EB0EB0E0061EB91014FEA7B
:1020D000101E4EEA017E10EB0E0041EB11114FEA8B
:1020E000102E4EEA016E10EB0E0041EB11214FEA6B
:1020F000104E4EEA014E10EB0E0041EB114140181C
:1021000041F100014FEAD00040EA41704FEAD101AD
:102110004FEA810444EA907410EB800544EB01041B
:102120006D1944EB0404521BA3414FF0000348BF58
:102130000A3200D530BD401C41F1000130BD10B560
:102140000446FEF719FD0068005D00F0010010BDB7
:1021500010B50446FF2801D9002010BDFEF70CFD84
:102160000068005D10F0980F03D0C10701D140F462
:10217000806010F4846F01D040F4006010F0BA0F5A
:1021800001D040F4807010F0BE0F01D040F4007018
:10219000810604D5010602D440F0800001E020F061
:1021A0002000C10701D0410601D5092CD5D140F44A
:1021B000805010BD0FB41CB5084B06AA7B4469467D
:1021C00000900598FEF7D3FF04460020694601F011
:1021D000DBFD20461CBC5DF814FB0000C91B0000A1
:1021E0007CB51D4616460C00009007D04142A14226
:1021F00002D32044401E01E04FF0FF30064B7B44E9
:102200002A46694601903046FEF7B1FF002C02D005
:10221000009A002111707CBD93EFFFFF70B504465A
:1022200085690068C10601D5302600E02026C00778
:1022300007D070BDD4E9012130469047206A401C88
:1022400020626D1EF6D570BD70B5044685690078B4
:10225000C00707D170BDD4E9012120209047206A32
:10226000401C20626D1EF6D570BD09684A0501D577
:1022700040B27047C905FCD500B2704709684A05ED
:1022800001D5C0B27047C905FCD580B270470000C7
:102290002DE9F0410646002410687529314616A53F
:1022A00010D0FFF7E2FF002802DA404213A507E052
:1022B00031688A0701D512A502E0490704D511A5A6
:1022C000012401E0FFF7DAFF00210A2206F12407CA
:1022D00009E0B0FBF2FCB0FBF2F302FB1C00303073
:1022E00078541846491C0028F3D123462A46304624
:1022F000BDE8F04101F071BB000000002D000000BE
:102300002B0000002000000011680268006A5305DD
:1023100001D508700AE0D30501D5088006E0130650
:1023200003D5C217C1E9000200E008600120704730
:102330002DE9F0411F46044603260168072A01F4EF
:10234000006004DB08B116A505E016A503E008B19E
:1023500015A500E015A521F010002060A069C01EA1
:10236000A0610FB1401EA0612046FFF757FF4FB19B
:10237000D4E9012138469047206A401C2062C01CE5
:10238000206206E0206AFAE7D4E9012115F8010B82
:102390009047761EF8D22046FFF756FFBDE8F08141
:1023A0004E414E006E616E00494E4600696E6600F9
:1023B0002DE9FF5F15468A460446DFF8AC80F844F5
:1023C0000027D8E900103E46CDE9001010E03AF8A9
:1023D00016106A4602A801F078FA411C07D021784D
:1023E000890603D5E269391891420DD80744761C55
:1023F0002078800602D5E069B84205DDAE42E6DB12
:102400003AF816000028E2D1A069C01BA06120465E
:10241000FFF704FFD8E90010CDE90010002017E015
:102420003AF818106A4602A801F04FFAB0F1FF3FDF
:1024300081460BD000250DF1080B05E0D4E9012100
:102440001BF8050090476D1C4D45F7D308F10100BE
:10245000B0428046E4DB206A384420622046FFF721
:10246000F3FEBDE8FF9F000082F601002DE9F04178
:102470008046D21D22F007020025D2E90002F5298C
:1024800015A614D0011E72F1000106DA0023D0EB6C
:10249000030063EB020211A608E0D8F800108B07D6
:1024A00001D50FA602E0490701D50EA60125114668
:1024B000002408F1240704E0FFF7FCFD30323A5510
:1024C000641C50EA0102F7D12B46324621464046B1
:1024D000BDE8F04101F081BA000000002D000000CD
:1024E0002B0000002000000030B4002100F1240483
:1024F00008E002F00705D208303542EA4372DB08F3
:102500006554491C52EA0305F3D10468002310A264
:10251000250708D504F020040C4304D0C469012326
:102520000CA2641EC46130BC01F057BA10B5044659
:1025300021461068FFF7A2FE02462046BDE8104083
:102540000023D1E7D21D22F00701D1E90023CBE718
:102550000000000030000000F0B40D4601880905BD
:1025600002D5214C7C4402E01F4C7C440E340021F7
:1025700000F1240608E002F00F071209E75D42EAC5
:1025800003721B097754491C52EA0307F3D10278FE
:102590000023120704D5702D06D009B1022311348F
:1025A0002246F0BC01F019BA01231034F8E770B5E7
:1025B00004460D4621461068FFF760FE0246294694
:1025C0002046BDE870400023C6E7D21D22F0070375
:1025D000D3E90023C0E70368126843F020030360D7
:1025E0000823C3610023B7E7E4F401003A2800D2CE
:1025F000303820F02002412A01D3A2F1370088426E
:1026000001D34FF0FF3070472DE9FF4F1C46914634
:102610004FF0FF3581B000218A468846D4E9016732
:10262000A16902986D1C8847216A83468847002863
:10263000F6D1BBF1FF3F0CD0002F26F4C0661ADDA7
:10264000700615D5BBF12B0F0AD0BBF12D0F0FD1A2
:1026500004E04FF0FF3005B0BDE8F08F46F480662F
:10266000A16902986D1C88477F1E8346002F02DDFA
:10267000BBF1300F03D0B9F1000F2AD025E0A169DA
:102680006D1C02987F1E46F400768847002F834613
:1026900005DDBBF1780F06D0BBF1580F03D0B9F1BF
:1026A000000F10D011E0B9F1000F02D0B9F1100FF6
:1026B0000BD1A1696D1C02987F1E26F40076884715
:1026C0008346102000E0082081464FEAE970009020
:1026D00017E00A20F8E74346AAFB0928DDF800C006
:1026E0007F1E03FB098046F4007605F101050AFB15
:1026F0000C0112EB0B0A029841EBEB78A1698847B9
:102700008346002F06DD49465846FFF76FFF5FEA14
:10271000000BE0D5E16902988847B00502D46FF05C
:10272000010098E7F00718D1700610D551467005E2
:1027300005D50023D1EB030163EB080200E042461C
:102740002068031D23600068C0E9001205E02068CE
:10275000011D21600068C0E900A828467BE72DE93B
:10276000FF5F1D464FF0FF3B91464FF000085F466C
:10277000D5E90146A96901987F1C8847296A8246E4
:1027800088470028F6D1BAF1FF3F0CD0002E24F480
:10279000C06419DD600614D5BAF12B0F09D0BAF167
:1027A0002D0F0ED103E0584604B0BDE8F09F44F46D
:1027B0008064A96901987F1C8847761E8246002E96
:1027C00002DDBAF1300F03D0B9F1000F26D032E0AC
:1027D000A969761E01987F1C44F400748847002E76
:1027E000824605DDBAF1780F06D0BAF1580F03D052
:1027F000B9F1000F10D01EE0B9F1000F02D0B9F10D
:10280000100F18D1A969761E01987F1C24F400745A
:1028100088478246102002E0082000E00A20814616
:1028200009E0A96908FB0908761E01987F1C44F499
:10283000007488478246002E05DD49465046FFF762
:10284000D5FE0028EDDAE96901988847A00502D491
:102850006FF00100A8E7E00725D1600613D56005F9
:1028600002D5C8F1000000E0404629680A1D2A6030
:102870000968220501D5087015E0220701D50880F6
:1028800011E008600FE02868011D2960006821053B
:1028900002D580F8008006E0210702D5A0F800806C
:1028A00001E0C0F8008038467EE72DE9FF5F4FF079
:1028B00000089946144646469169D2E901A7DDF819
:1028C00038B001988847054659EA0B0005D009E061
:1028D000A1690198761C88470546216A28468847E1
:1028E0000028F5D1681C03D05FEACA7005D015E056
:1028F0004FF0FF3004B0BDE8F09F2068011D21605B
:10290000D0F800800AE05FEACA7001D108F8015BE4
:10291000A169761C01987F1E88470546002F1ADDA5
:10292000681C18D0B9F1000F0DD0E81705EBD06086
:10293000421120F01F0059F822102A1A012090405D
:102940000142E0D107E0BBF1000FDCD12846216A4B
:1029500088470028D7D0E16901988847BBF1000F6C
:1029600007D1002E05DD5FEACA7002D1002188F888
:102970000010A068B84203DDBBF1000F03D017B10F
:102980006FF00100B6E73046B4E700002DE9FF4FD5
:1029900006468BB00878FF2806D0491C2D2805D0A4
:1029A00000244FF0000908E000200CE00124F8E7C3
:1029B00009EB8903491C00EB43090878FF28F7D18C
:1029C00014B1C9F100008146107800252C46AA46B2
:1029D00029462D2801D02B2804D1521C2D2813D094
:1029E000002082468B461078FF280FD04FF0000C55
:1029F0000A21521CA5FB017804FB018105FB0C1187
:102A0000C5194BEB0104EEE70120EAE70021084677
:102A10004FF00000BAF1000F02D000EB8000400838
:102A2000C0F38157012F01DD4FF0FF370E9955EAB2
:102A3000040009EB01080BD04FF0020918F5FA7FEA
:102A400016DA4FEACA70002F706008DD012007E037
:102A50004FEACA70C6E900B00FB0BDE8F08F0020A1
:102A60003060FDF76DFEC0F800901821084616E0B2
:102A7000B8F5FA7F18DD002F02DAF748784401E054
:102A8000F6487844D0E90010C6E9001040EACA7060
:102A90007060FDF755FEC0F80090142108460FB095
:102AA000BDE8F04F1EF03ABF002108464FF000008D
:102AB000B8F10001099002DAC7F1000200E03A46DD
:102AC00001DAC8F1000106A800F0DAFB06AB93E8D2
:102AD000070003AB83E8070044F23E005BEA040111
:102AE0000090584604D144F21E012C465D460091E8
:102AF000210C0904014306D10099240444EA154439
:102B00002D041039009104F07F41014306D1009952
:102B1000240244EA15642D020839009104F0704142
:102B2000014306D10099240144EA15742D01091FBF
:102B3000009104F04041014306D10099A40044EA09
:102B40009574AD00891E009104F00041084304D142
:102B500000986D196441401E00904FF001033A4601
:102B60006846B8F1000FCDE9014503A902DD1EF06A
:102B70008AF901E01EF05DF9BAF1000F04460D4636
:102B800001D084F00044002108464FF0000009996C
:102B900040F2FF77484010F00C0F07D124F00040BE
:102BA000284303D0C4F30A50B84212D1FDF7C8FD40
:102BB000C0F80090C4F30A50B8420AD1A84878443B
:102BC000D0E90010C6E9001004F00041084370602D
:102BD00042E7C6E900543FE72DE9FF4F1F464FF09B
:102BE000000A4FF0FF38454691B0D7E90146CDF8CD
:102BF0003CA0FFF75BFAC0680168405C1090B969BF
:102C000012986D1C8847396A814688470028F6D19A
:102C1000B9F1FF3F0AD0002E24F4D06411DDB9F1E0
:102C20002B0F08D0B9F12D0F0BD102E0404615B0A3
:102C300013E744F48064B96912986D1C8847761EC6
:102C40008146600504A901D52D2000E02B20002E2F
:102C500001F1010B0DF130088DF810003FDDB9F1E5
:102C6000690F08D0B9F1490F05D0B9F16E0F02D044
:102C7000B9F14E0F1CD13B4601A8009580E85002E7
:102C8000DDE912126FF002001EF0B3FEC11CCED1BE
:102C90000EE0B96912986D1C884781461398761E1C
:102CA00044F4007405600F98401C002E0F9016DD50
:102CB000B9F1300FEDD0B9F1780F02D0B9F1580F5A
:102CC0000DD10F9801280AD13B46CDE90054DDE92A
:102CD0001212001F02961EF08AFEC11CA7D1109985
:102CE00089453ED144F0800406E01399681CAAF19E
:102CF000010A44F400740860B9696D1C1298761ECC
:102D0000884730288146F0D02BE01099894505D1BD
:102D1000200603D4761E44F0800418E048461EF0D6
:102D20001AFB08B3761E0DF123029345A9F130007A
:102D300044F4007406D20BF8010B200607D5AAF163
:102D4000010003E0200602D40AF101008246A0053A
:102D500002D51399681C0860B96912986D1C8847E0
:102D60008146002ED1DC53E0002E51DDB9F1650F14
:102D700002D0B9F1450F4BD1A00549D5B9696D1CF9
:102D80001298761E24F440748847002E81460CDD8C
:102D90002B2804D0B9F12D0F07D144F48074B96900
:102DA00012986D1C8847761E8146E00501D52D21BD
:102DB00000E02B2108F8011BCDF8008021E0761EF1
:102DC0000DF13901884544F400740CD2A9F13000AA
:102DD00010F0FF0088F8000002D10099884509D959
:102DE00008F1010806E0E00501D51E4801E042F2C5
:102DF0000F708246B96912986D1C884781461398F6
:102E00000560002E04DD48461EF0A5FA0028D6D144
:102E1000F96912988847FF2053468BF8000088F81C
:102E2000000000200A900B9004AA0CA90AA8FFF742
:102E3000ADFDA00502D46FF00100F8E614F0240FF8
:102E400012D0E0071CD13868DDE90A12031D3B608F
:102E50000068C0E9001213E0980E02008A0E02001A
:102E60004E0D0200F1D8FFFF0AA968461EF060FA75
:102E7000E00705D13868009A011D396000680260DA
:102E80002846D4E60268114413780160184670475A
:102E9000D1600549794451610449794411620021A6
:102EA0001161114600F08CBFEDFFFFFFA1F2FFFFA3
:102EB000426842B1016811F8013B23B1521EC0E9DA
:102EC0000012184670470121C160881E7047426891
:102ED0005AB1C368016843B983688B4205D0491E63
:102EE000521CC0E90012002070474FF0FF307047BD
:102EF0002DE9F74F4FF000091546CA46009C14F81B
:102F0000010B302801D0ADB115E014F8010B4FF0E2
:102F10000109782803D0582801D04DB10BE00DB13C
:102F2000102D08D14FF0000914F8010B102502E014
:102F3000082500E00A2500274FEAE57B3E46B84613
:102F400016E0A5FB07234FF0010905FB08000BFB6A
:102F50000731030C05FB0616D7181FFA80F846F157
:102F60000006381E76F5803000D3CA4614F8010BEF
:102F70002946FFF73BFB0028E3DA019838B1B9F1A5
:102F8000000F01D0641E00E0009C01980460BAF1BB
:102F9000000F08D0FDF7D4FB02210160C81E0146D6
:102FA00003B0BDE8F08F310441EA174148EA074019
:102FB000F6E72DE9FF4F4FF000089A461446C14648
:102FC000464683B0D2E901B7CDF80080CDF8048041
:102FD000916904988847109905465AEA010005D07E
:102FE00009E0A1690498761C88470546216A2846AD
:102FF00088470028F5D1681C03D05FEACB7005D064
:103000002AE04FF0FF3007B0BDE8F08F2068011DC7
:103010002160D0F800801FE002A86A46E9B200F003
:1030200034FC411C07D0801C09D04FF000095FEA36
:10303000CB7007D00AE0E169049888473EE04FF082
:10304000010904E0BDF8081028F8021B7F1EA169E1
:103050000498761C88470546002F1ADD681C18D096
:10306000BAF1000F0DD0E81705EBD060421120F047
:103070001F005AF822102A1A012090400142CBD199
:1030800007E010980028C7D12846216A8847002801
:10309000C2D0E16904988847B9F1000F0ED11098A9
:1030A00030B9002E04DD5FEACB7001D1A8F8000032
:1030B000A068B84202DD109818B117B16FF0010096
:1030C000A1E730469FE72DE9FF4F4FF000089B46F0
:1030D0001446454683B0D2E90196CDF80080CDF87C
:1030E00004809169DDF848A00498884707465BEAA8
:1030F0000A0005D009E0A16904986D1C88470746BD
:10310000216A384688470028F5D1781C03D05FEA49
:10311000C97005D01BE04FF0FF3007B0BDE8F08F5D
:103120002068011D2160D0F8008010E05FEAC970BE
:1031300007D16A464046B9B200F0C7FB411C31D006
:103140008044A1696D1C0498761E88470746002EAE
:1031500014DD781C12D0BBF1000007D03B46DDE93E
:10316000101200F0E7FF0028E0D107E0BAF1000FED
:10317000DCD13846216A88470028D7D0E169049815
:103180008847BAF1000F06D1002D04DD5FEAC9704F
:1031900001D188F80000A068B04203DDBAF1000F49
:1031A00003D016B16FF00100B7E72846B5E72DE967
:1031B000FF5F9B46144600273D469169D2E9019680
:1031C000DDF840A00198884780465BEA0A0005D0F8
:1031D00009E0A16901986D1C88478046216A404634
:1031E00088470028F5D1B8F1FF3F03D05FEAC970E6
:1031F00005D014E04FF0FF3004B0BDE8F09F206828
:10320000011D216007680AE05FEAC97001D127F853
:10321000028BA1696D1C0198761E88478046002E9E
:1032200015DDB8F1FF3F12D0BBF1000007D04346D7
:10323000DDE90E1200F07EFF0028E5D107E0BAF1CB
:10324000000FE1D14046216A88470028DCD0E169BF
:1032500001988847BAF1000F05D1002D03DD5FEA20
:10326000C97000D13880A068B04203DDBAF1000F08
:1032700003D016B16FF00100BEE72846BCE700009E
:103280002DE9F047814616468AB0354878440DC886
:103290008DE80D0032487844801C03AC0DC884E8EA
:1032A0000D0041F69B300844372190FBF1F290FB72
:1032B000F1F5A5F1800501FB12041B3C02D5644227
:1032C000012000E00020DFF898A080460027FA44A3
:1032D000AAF1BE0A0EE0E0070AD03246684607EBC4
:1032E000470101230AEB81011DF0B8FD8DE80700BD
:1032F00064107F1C002CEED1194F7F44AE3F19E0C3
:10330000E80715D007EB04100DF1180A90E80E003D
:103310008AE80E00C068F04201D198190890324640
:10332000012306A903A81DF099FD03AB83E807005C
:103330006D10641C002DE3D14FF001033246694645
:10334000B8F1000F03A802D01DF05EFD01E01DF0F2
:1033500085FDC9E90001C9F808200AB0BDE8F08779
:1033600060E8010070B50D4601461446D368506907
:103370002A46FEF75BFE002807DA411C07D0E16809
:1033800020F0004041F48041E160281A70BD2046E1
:10339000FEF7D6F84FF0FF3070BDC1680022026022
:1033A00021F4805141F0400111F4C06FC16001D09F
:1033B0008260704702694168891AC269891A81600E
:1033C00070472DE9F05F04468946C06840F48000EC
:1033D00010F4C06FE06008D0204600F025FF2068A0
:1033E000002802DD401E206033E0E068010312D5B2
:1033F00020F40020E060810606D4E26A61688A4217
:1034000000D80A46511A216040F40010E06094F898
:103410002500BDE8F09F20F40010E060800602D592
:103420002046FEF7F0F8E06842F281014FF0FF3AE3
:103430000140012903D02046FEF782F8B0E0216860
:10344000002600290ADAC94340F480502160C4E90B
:1034500002606068411C61600078DAE744F2400174
:1034600008420CD020F4A04040F040002660E0600C
:1034700021696068401AE169401AA06090E0216902
:1034800091B9C00310D4E069FCF776FF2061B0B1B8
:10349000E06840F4006010F4407FE06002D140F446
:1034A0008070E06020696060E068D4F814B0C10604
:1034B0001AD5C0030ED52046FEF782F814E004F1B9
:1034C000240020610120E061E06820F4407040F4B5
:1034D0008060E6E721696068401AA16901445846A6
:1034E000FEF7B1FD0028A6DBE068C0032BD56168BC
:1034F000E06A884200D808462169451AE069471BFE
:103500001CD02046D4F81880FEF75AF808EB0501C5
:103510005846C4F81880FEF796FD00288BDBE0685B
:10352000B9F1000F40F40030E06002D0A0692844F7
:10353000A061E1692069C91B45180DE02046FEF72E
:103540003FF8E769F5E725696168D4E90607491B93
:10355000E56208446560A061E068B9F1000F20F001
:10356000100040F48050C4E9026005D02069E06298
:1035700060606FF001004CE7224639462846FFF7AD
:10358000F1FE411C0CD02918E16258B1401E2060A8
:10359000681C6060E06840F40030E060287838E73C
:1035A000504636E765602046FFF7F7FEF8E72DE95D
:1035B000F05F054617460C46C86820F4201040F41A
:1035C0008000C860800602D50846FEF71CF8E06857
:1035D00041F282014FF0FF3A0140022903D0204618
:1035E000FDF7AEFFB9E000F42041B1F5004F0FD177
:1035F000C00306D56168E06A884200D8084660606A
:1036000006E02069E06260606069FEF724FDA06169
:10361000A0680022EEB200280DDAE1688B050AD41A
:10362000C043A06041F490302260E0606068411CBB
:1036300061600670AAE0E0689146226040F40050A4
:10364000E060206978BB6069FEF7F7FC04F12405AF
:103650004FF00108A8B1A08910F4407F08D0E069BC
:10366000FCF78AFE206118B1E06840F4006017E0C2
:10367000C4F81C802561E06820F4407040F480604C
:103680000EE0E069FCF778FE00282061F0D0E068E9
:1036900040F4006010F4407FE06002D140F480709C
:1036A000E06020696060E06825696FF0010BC1058A
:1036B0001ED56168E06A884200D80846411B04D0E4
:1036C00022462846FDF746FFE8BB1FB1E562C4E984
:1036D000015959E0681CE0626060E069401EA0602A
:1036E000E06840F48030E06030462E70BDE8F09F26
:1036F00017B100F480320AE06068411C6160067016
:10370000E0680A2E40F48030E06006D00022E16AD2
:103710006068814203D90B4602E00122F7E70346C5
:10372000B4F80CC05B1B5FEA4C5C04D4D4F81CC03A
:103730009C4500DD02B3814200D80146002BA1EB7D
:103740000008E56200E008E0C4E9015907DD22460F
:1037500019462846FDF7FEFE08B15046C6E7B8F107
:10376000000F09D0A169E5626560A1EB0800A061C6
:10377000E06840F01000E06047B16168A069E56270
:10378000491B08446560A0615846AFE73046ADE785
:1037900070B5C468A50713D0650211D4B2F5807F57
:1037A00009D0B2F5007F06D0B2F5806F08D10123B1
:1037B00000F1240106E05D1E6FF07F46B54201D3A3
:1037C000012070BD0161C361416024F47061114347
:1037D000C160002070BD00002DE9F84399461746EE
:1037E00080464FF000060C0002D18846012717A43E
:1037F000B9F1000F25D105210020AFF300808146EB
:103800001FE014F8011B4A46684600F03EF8761C9B
:103810000546401C0FD0AD1C13D0B8F1000F03D0EB
:10382000BDF80010A8F80010BDF80000002800D076
:103830003046BDE8F883FCF783FF04210160284689
:10384000F7E77F1EDDD26FF00100F2E70000000015
:103850007CB50C46054622B906210020AFF3008056
:1038600002462146684600F030F80446401C07D066
:1038700025B1224669462846FCF77BFE20467CBDE2
:10388000FCF75EFF04210160F8E7F8B516460C4628
:103890000546FDF771F9036893F80101012804D08A
:1038A000185D78B101202C80F8BDD3F803013246B1
:1038B000214603F20313C71868460023B84700994E
:1038C0002980F8BD4FF0FF30F8BD2DE9F0411646D4
:1038D0000C460546FDF750F9036893F801010128ED
:1038E00007D0FF2C12D8185D80B101202C70BDE8E4
:1038F000F081D3F807013246214603F20713C718B7
:103900002846BC46BDE8F041002360474FF0FF3039
:10391000EDE710B50446AFF300802046BDE8104047
:10392000FCF703BD70B505460C460A2000E06D1C8F
:10393000FDF715F935B128780028F8D102E0641CAC
:10394000FDF70DF914B120780028F8D1BDE87040DA
:103950000A20FDF704B910B500F082FCBDE8104064
:10396000FEF7FDB810B5012805D0002103A0FFF730
:10397000D9FF012010BD09A1F8E7000053494752C3
:10398000544D454D3A204F7574206F66206865612F
:1039900070206D656D6F7279000000003A204865F7
:1039A0006170206D656D6F727920636F72727570D2
:1039B00074656400B2F120030AD5C2F1200301FA54
:1039C00002F120FA03F341EA030100FA02F0704722
:1039D00000FA03F14FF0000070472DE9F0470D4663
:1039E00099469246044600F124080168880604D5E9
:1039F000E06921F01001216000E00120A84201DD12
:103A0000471B00E00027A1697A1902EB0900081A98
:103A1000A0612078C00602D42046FEF7FFFB0026F6
:103A200008E0D4E901211AF806009047206A401CFA
:103A3000761C20624E45F4DB2078C0060AD520466D
:103A4000FEF7ECFB06E0D4E9012130209047206A24
:103A5000401C2062381EA7F10107F4DC07E0D4E91E
:103A6000012118F805009047206A401C2062281E9A
:103A7000A5F10105F3DC2046FEF7E6FB2078000601
:103A800002D50220BDE8F0870120FBE72DE9F04FC9
:103A900004460D46D21D22F0070089B0D0E90097F8
:103AA000484639461DF026FB0246F80F01D02D236B
:103AB00007E02068810701D52B2302E0202101EADD
:103AC000C0038DF820300BB1012000E00020032A54
:103AD000824601D0072A04DB29462046FEF728FC4F
:103AE0003FE12078800601D40D2500E0E569C7F3A9
:103AF0000A560D2D49DA00214FEA175B08464FF0B0
:103B00000000002F00F4400007DA00EB80004FF4C3
:103B1000400100EBD07001EA60008115012901DD50
:103B20004FF0FF3100224FEA850CBCF1180F06D38D
:103B30001346ACF118004FF08052C24003E04FF43E
:103B4000801323FA0CF30CF10C0CBCF1200F04D3FE
:103B5000ACF1200C09FA0CF001E007FA0CF0002996
:103B60004FF0004801DD18B90FE00ED140450CD3ED
:103B700019EB02095F4121B9404502D19F4329EA6F
:103B80000209BBEB175F00D0761C2088000502D528
:103B90007B48784402E07A487844193808AA3023F0
:103BA00002F80A30037C0AF10101002E0AF1020A30
:103BB00053546A4602DC4FF0300101E04FF031010E
:103BC0004FF001088DF8001002D0A6F2FF3603E096
:103BD00059EA470100D06B4E002D02DC217809071D
:103BE00004D54FF002082E218DF80110C4460021A3
:103BF0000BE0C7F303433F01C35C491C6D1E02F891
:103C00000830052908F1010801DA002DF1DC002156
:103C10000CE000EB1973491C1B786D1E082902F893
:103C200008304FEA091908F1010801DA002DF0DC2B
:103C300021688B0602D516E0A8F10108E04505DDF4
:103C400002EB080313F8013C302BF5D0B8F1000F5C
:103C500009DD02EB080313F8013C2E2B03D1090701
:103C600001D4A8F10108002D05DD3E2102F808105D
:103C70006D1E08F10108407C002E02F8080008F1D2
:103C8000010804DA2D20764202F8080002E02B2019
:103C900002F808000A214FF47A70864208F1010800
:103CA0000BDB96FBF0F3303302F8083096FBF0F3B1
:103CB00008F1010800FB136601E0642E0CDB6420B0
:103CC00096FBF0F3303302F8083096FBF0F308F17E
:103CD000010800FB136601E00A2E06DB96FBF1F0FB
:103CE000303002F8080008F1010896FBF1F001FB02
:103CF0001060303002F80800A16908F1010808EBF3
:103D0000050202EB0A00081AA0612078C00602D45E
:103D10002046FEF783FA216A08AE01EB0A00206212
:103D200004E0D4E9012116F8010B9047BAF1010A29
:103D3000F7D22078C00602D52046FEF76FFA6E460D
:103D400009E016F8010B3E280FD0D4E90121904775
:103D5000206A401C2062B8F10108F2D22046FEF72A
:103D600073FA09B00320BDE8F08F206A284420626E
:103D700003E0D4E90121302090476D1EEBD3F8E732
:103D800085DF010002FCFFFF0A6802F8010B0A60F0
:103D9000704710B5436913B1AFF3008001E0FEF73F
:103DA00007FB012010BD128800F12401828400224B
:103DB000C2840122EDE711684FF0FF32E9E700000D
:103DC0002DE9F34F4FF0000A0C4656468DB0012006
:103DD0000C9001F10C000B9062690B980121904747
:103DE000051E2DD0252D2CD0216A8847C0B16269CF
:103DF0000B9801219047216A88470028F7D1626912
:103E0000411E0B98904700E0761CA1690D988847E9
:103E1000216A88470028F7D1E1690D988847DBE7D8
:103E2000A1690D988847A842074601D1761CD3E7BF
:103E3000E1690D9888477F1C02D1BAF1000F6FD05D
:103E40006BE162690B9800273D46394690472A2866
:103E500004D162690B98012190470125DFF8D082D7
:103E600062690B9801219047A0F130010A290AD21A
:103E70004745E5DC07EB870100EB4107303FDFD426
:103E800045F01005ECE7E90601D46FF000476C2817
:103E90000AD04C2814D0682815D06A280DD0742870
:103EA0001CD07A281AD01DE062690B980121904736
:103EB0006C2802D045F0040514E045F002050DE041
:103EC00045F020050AE062690B98012190476828B7
:103ED00002D045F0080505E045F4006562690B98DD
:103EE00001219047C4E9015765283DD019DC5828C5
:103EF0007AD00CDC452837D004DC252826D0412890
:103F00009ED131E046282FD0472899D12CE05B285C
:103F100077D0612828D063287CD0642823D15AE048
:103F2000F6E06F2848D008DC66281DD067281BD033
:103F3000692821D06E2816D127E0702845D0732833
:103F400068D0752847D078280DD14DE0A1690D982B
:103F50008847252805463FF469AFE1690D988847F1
:103F60006D1C3FF46AAFD8E00D9923466A466FF0A6
:103F700001001DF03AFDC5E045F0400023464FF03A
:103F800000026060A80736D43EE0E8077FF447AF40
:103F90002068011D21600068290501D506701BE716
:103FA000290701D5068017E7A90703D5F117C0E94E
:103FB000006111E706600FE745F0400023464FF02F
:103FC00008026060A80716D41EE040F60E0125EA3C
:103FD0000100606016E045F0400023464FF00A0201
:103FE0006060A80707D40FE045F040006060A807B4
:103FF00008D5234610220D996FF00100FEF704FB4F
:1040000080E007E0102223460D996FF00100FEF7D3
:10401000A6FB77E04FF0000963284F46C8464B46A1
:10402000CB4602D05B2806D038E0E80601D4012058
:10403000A060012732E06269D4F80CB00B9801212E
:1040400090475E2807D14FF0010949466269D4F8CC
:104050000CB00B989047216939B900210A4603AB8F
:1040600043F82120491C0829FADBD8B3216949B358
:1040700008F1010862690B98012190475D28F4D18D
:10408000B9F1000F09D0002003A951F82020D24334
:1040900041F82020401C0828F7DB03AB20690028EA
:1040A00020794FEA40701ED05B462246CDF8008052
:1040B000CDE901970D9900286FF0010020DAFFF794
:1040C00076F81FE0C11703AA00EBD1614B1121F074
:1040D0001F0102EB8302411A136801208840034349
:1040E0001360C7E719E00D99224600286FF0010020
:1040F000009702DAFEF75DFF04E0FEF7D6FB01E071
:10410000FEF7E1FF00280ADA401C06D10C9820B126
:104110004FF0FF300FB0BDE8F08F5046FAE7E907E7
:1041200001D10AF1010A064400200C9054E6000077
:10413000CCCCCC0C10B508E030F8024B9C4204D13A
:104140000AB1002010BD012010BD491EF4D2104656
:1041500010BD2DE9FF5F8B461C468246029D05FB84
:104160000BF5E5B1D4F8088057464FF00009B8F1D7
:10417000000044DCE069A84227D2B9F1000F24D046
:10418000224629463846A669FDF7E4F958B1C4F835
:104190000880A069801B3844A0EB0A0129E00020B8
:1041A00004B0BDE8F09FE16811F4C06F01D00020B9
:1041B00008E022696068801AE269101AC903A060E9
:1041C00001D44042A0600298EAE7A84201D201224D
:1041D00000E0002221463878FFF7E9F9411C06D0BB
:1041E000D4F80880002807DB6D1E7F1C17E0A7EBC2
:1041F0000A01B1FBFBF0D3E74FF001090FE0A84241
:10420000064600D92E46394632466068FCF7B1F9B9
:104210006068AD1BA8EB0608304437446060002D91
:10422000A5D1C4F80880CEE770B5054640F2022655
:104230000A4C0FE094F85000C00708D0AC4206D0FA
:10424000E06836EA000002D12046FCF7C7FB206D8B
:1042500020F00104002CEDD170BD0000E801002029
:1042600010B5014602A0FFF75DFB012010BD000064
:1042700053494752545245443A2052656469726525
:1042800063743A2063616E2774206F70656E3A2004
:10429000000000002DE9FF4F1F464FF03C0987B09A
:1042A0004FF00042DDE9141001F10108DDF858A0DB
:1042B00002EA4050039000200590834605460446DC
:1042C0000490B969461E08988847AAF1010A02902D
:1042D000BAF1000F3BDD02982E2815D01021FEF711
:1042E00085F900282EDB4FF0010B0599014317D00B
:1042F000B9F1000F0BDB4A46C117FFF75BFB054323
:104300000C43A9F1040905E0012004900BE008B179
:1043100045F0010501200590049820B9361D02E002
:10432000049800B1361FB969089808F10108884758
:10433000BBF1000FAAF1010A0290C9D00999C1F896
:104340000080C5E70298702808D0502806D0F96987
:1043500008988847BBF1000F14D04FE0002002906E
:104360000120BBF1000F049009D0B969089808F149
:1043700001088847AAF10109B9F1000F07DCF969C2
:10438000089888476FF001000BB0BDE8F08F2B282C
:1043900004D02D280CD14FF0FF300490B969089853
:1043A00008F101088847A9F10109B9F1000FE6DD1C
:1043B000411CE4D00A21FEF719F90028DFDB02993D
:1043C00008F1010801EB810100EB41000290B9699D
:1043D000089888470A21FEF709F9099AA9F1010905
:1043E000B9F1000FC2F8008001DD0028E7DAF969B1
:1043F000089888470499029800FB016655EA040072
:1044000004D004F04041090002D006E0039898E08F
:10441000A40044EA9574AD00B61E04F00041080003
:1044200002D16D196441761E159810F0240F03D047
:104430004FF00B095C4803E04FF028096FF07D0056
:104440008246564507DAAAEB06018944B9F1410FC5
:1044500001DD4FF0410901200021A9F10102FFF720
:10446000A9FA024628400B462140084301D0012109
:1044700000E00021501E029143F1FF31284021400D
:10448000084301D0012000E000200299834651EA50
:104490000B014FD0002108464FF00000039900F4B3
:1044A000400039B100EB80004FF4400100EBD070C8
:1044B00001EA60008015012802DD4FF0FF3000E0C6
:1044C00013D0401C36D0029860B3BBF1000F0CD162
:1044D0004A4601200021FFF76DFA28402140084399
:1044E00001D0012000E00020E0B101204A46002177
:1044F000FFF760FA034640190A4661412D1A8C41C4
:1045000011D3B9F1400F09DD159810F0240F02D036
:10451000AAF1340603E0AAF1170600E0761C002594
:104520004FF0004406E05B1E42F1FF3220EA030533
:1045300021EA0204CAF10100B04206DA1B490398DD
:1045400008430190002000900EE0039AC4F3D321A9
:10455000E80A0A43164940EA44500A433146CDE985
:10456000000268461CF0EDFE159810F0240F0BD0E9
:104570001598C00715D13868DDE90012031D3B60AE
:104580000068C0E900120CE002A869461CF0D0FEE9
:104590001598C00705D13868029A011D3960006876
:1045A00002604046F0E6000002FCFFFF0000F07FE2
:1045B0000000F03F2DE9FF4F92461D4685B04FF0B9
:1045C0000041DDE9124BDDE914727F1E01EA4B5018
:1045D000414940F0FF4940EA0108002122F0200053
:1045E0004928049102D04E2828D04CE03BA0012657
:1045F00007C88DE80700A9690698641C88477F1ED4
:10460000014606D41DF8060018B121F020018142B0
:104610000BD0E96906988847032E34D0082E32D093
:104620006FF0010009B0BDE8F08F761C032E01D0B9
:10463000082EE0D1601CCAF80000DCE7A9690698E2
:10464000641C88477F1E2AD420F02000412826D1F0
:10465000A9690698641C88477F1E20D420F020009A
:104660004E281CD1A9690698641C88477F1E48F40F
:10467000002849F48009CAF8004001D4282806D04F
:10468000E969069888475FEACB7012D022E0A969F1
:104690000698641C88477F1E01D4002803DAE96964
:1046A00006988847BCE72928F1D1641CCAF8004065
:1046B000E9E71BF0240F07D028680499031D2B603D
:1046C0000068C0E9001805E02868021D2A6000683B
:1046D000C0F800902046A5E70000F07F494E46490B
:1046E0004E49545900000000FFE7FEE780B541F253
:1046F0007460C2F2000000F0F7FB80BD80B541F2AB
:104700009C60C2F2000000F0EFFB80BD80B541F27A
:10471000A870C2F2000001F05DF980BD80B541F6DD
:104720008810C2F2000001F055F980BD80B541F259
:10473000E860C2F2000001F04DF980BD80B541F69D
:10474000E810C2F2000001F045F980BD80B541F2E9
:104750004870C2F2000001F03DF980BD80B541F61D
:104760002810C2F2000001F035F980BD80B541F695
:104770000800C2F2000001F02DF980BD80B541F6BD
:104780004820C2F2000001F025F980BD80B541F655
:104790006800C2F2000001F01DF980BD80B541F64D
:1047A000A820C2F2000001F015F980BD80B541F6E5
:1047B000C800C2F2000001F00DF980BD82B0019086
:1047C0000198007810384AF6AB21CAF6AA21A0FB5E
:1047D000011000090090009941F6DA30C0F602009D
:1047E000405C0199C8650098042807D3FFE7019948
:1047F0000868042262F30900886506E001990868E8
:1048000040F2FF3290438865FFE70198806D02B067
:104810007047000086B0059000208DF813000598C1
:10482000806A03900598806910BBFFE703980290A7
:1048300003281BD80299DFE801F0020D0218059841
:1048400090F82F00C00720B1FFE701208DF813007A
:10485000FFE70CE00598C06AB0F1C07F04D1FFE724
:1048600001208DF81300FFE701E000E0FFE745E0DD
:1048700005988069B0F5005F25D1FFE703980190A6
:1048800003281ED80199DFE801F002060211012079
:104890008DF8130016E0059890F82F00C00720B19E
:1048A000FFE701208DF81300FFE70BE00598C06AD1
:1048B000B0F1C07F04D1FFE701208DF81300FFE7BE
:1048C00000E0FFE719E003980090032804D3FFE716
:1048D0000098032804D00EE001208DF813000BE0AF
:1048E000059890F82F00C00720B1FFE701208DF850
:1048F0001300FFE700E0FFE7FFE7FFE79DF8130085
:1049000006B070477047000081B0EFF3108072B6B8
:104910000090FFE7FEE7000084B00290019102984A
:1049200090F820008DF803009DF80300012805D0C1
:10493000FFE79DF8030002280AD1FFE7019A0298D9
:10494000016848691043486100208DF80F0008E0B5
:104950000299486A40F48020486201208DF80F00D7
:10496000FFE79DF80F0004B07047000088B0069084
:10497000059104920393069890F820008DF80700A3
:1049800006980068806800900598806808B9FFE77D
:1049900000E0FFE79DF80700012806D0FFE79DF83B
:1049A0000700022840F08D80FFE79DF803004007D4
:1049B00000280CD4FFE79DF803000007002806D468
:1049C000FFE79DF80300C006002871D5FFE70098B7
:1049D000C0F3016002900298032809D3FFE706990B
:1049E000486A40F40000486201208DF81F0071E021
:1049F000029901208840039908600598806868B989
:104A0000FFE705980168C06840EA415006990968C7
:104A1000029A01EB0211C1F880010EE005994A6883
:104A20008868C96840EAC200084306990968029A82
:104A300001EB0211C1F88001FFE7059800690699B2
:104A40000968029A01EB0211C1F884010598007D02
:104A500001280CD1FFE706980068029900EB0111CC
:104A6000D1F8840140F48070C1F88401FFE7049814
:104A7000406806990968029A01EB0211C1F88C019D
:104A80000498006806990968029A01EB0211C1F8BE
:104A9000880106980068029900EB0111D1F88001A5
:104AA00040F00100C1F8800100208DF81F0011E0E6
:104AB0000699486A40F40010486201208DF81F00F2
:104AC00008E00699486A40F48020486201208DF889
:104AD0001F00FFE79DF81F0008B0704786B00490E4
:104AE0000391049800680190049890F820008DF8D4
:104AF00003009DF80300012806D0FFE79DF803009E
:104B0000022840F0B080FFE746F20040C4F2000007
:104B100001900199D1F8000240F00100C1F80002B3
:104B20000199D1F8000220F47C50C1F800020398EA
:104B3000426A0199D1F8000240EA0220C1F800025D
:104B40000398406900F01F01012088400290029AFA
:104B50000199D1F81C029043C1F81C020398C06966
:104B6000F0B9FFE7029A0199D1F80C029043C1F81D
:104B70000C02039A9088D168526940EA0140019979
:104B800001EBC201C1F84002039A10889168526992
:104B900040EA0140019901EBC201C1F84402FFE77C
:104BA0000398C06901281ED1FFE7029A0199D1F844
:104BB0000C021043C1F80C02039A908811685269E4
:104BC00040EA0140019901EBC201C1F84002039A99
:104BD00090899168526940EA0140019901EBC20154
:104BE000C1F84402FFE70398806940B9FFE7029AE1
:104BF0000199D1F804029043C1F8040207E0029A37
:104C00000199D1F804021043C1F80402FFE70398A8
:104C1000006940B9FFE7029A0199D1F81402904364
:104C2000C1F8140207E0029A0199D1F81402104366
:104C3000C1F81402FFE70398006A012808D1FFE7D2
:104C4000029A0199D1F81C021043C1F81C02FFE737
:104C50000199D1F8000220F00100C1F80002002003
:104C60008DF8170008E00499486A40F480204862F3
:104C700001208DF81700FFE79DF8170006B0704778
:104C800081B0009001B0704786B004900391029209
:104C90000193049890F820008DF803009DF803001C
:104CA000012806D0FFE79DF80300022840F0D780D6
:104CB000FFE7039880B9FFE704980068C0688007A1
:104CC00048B9FFE70499486A40F40010486201209F
:104CD0008DF81700CCE00FE00498006800698007A9
:104CE00048B9FFE70499486A40F40010486201207F
:104CF0008DF81700BCE0FFE704980068039900EB0B
:104D00000110D0F8B00100F0040002998860029808
:104D1000806858B9FFE704980068039900EB011018
:104D2000D0F8B001400D029908600AE004980068CC
:104D3000039900EB0110D0F8B001C0080299486057
:104D4000FFE704980068039900EB0110D0F8B00168
:104D500000F002000299C86004980068039900EB13
:104D60000110D0F8B40100F00F0002990861049816
:104D70000068039900EB0110D0F8B40180B2000A7A
:104D80000299886104980068039900EB0110D0F83B
:104D9000B401000C0299486104980068039900EB83
:104DA0000110D0F8B80101990870049800680399BF
:104DB00000EB0110D0F8B801000A0199487004987E
:104DC0000068039900EB0110D0F8B801000C0199BC
:104DD000887004980068039900EB0110D0F8B801BE
:104DE000000E0199C87004980068039900EB011047
:104DF000D0F8BC010199087104980068039900EB90
:104E00000110D0F8BC01000A0199487104980068AB
:104E1000039900EB0110D0F8BC01000C01998871D6
:104E200004980068039900EB0110D0F8BC01000E53
:104E30000199C871039838B9FFE704980168C868F8
:104E400040F02000C86006E004980168086940F05E
:104E500020000861FFE700208DF8170008E00499A2
:104E6000486A40F48020486201208DF81700FFE76F
:104E70009DF8170006B0704783B0029000200190A3
:104E8000029890F820008DF803009DF80300012897
:104E900005D0FFE79DF80300022822D1FFE7029822
:104EA000006880684001002804D5FFE701980130C0
:104EB0000190FFE70298006880680001002804D58F
:104EC000FFE7019801300190FFE7029800688068D1
:104ED000C000002804D5FFE7019801300190FFE7EA
:104EE000FFE7019803B0704780B58AB009900020B1
:104EF0000890099800684069079009980068406820
:104F00000690099800688068059009980068C06854
:104F10000490099800680069039009980068806906
:104F200002909DF81C00C007002800F09480FFE765
:104F30009DF81400C00758B3FFE7099801680120E5
:104F400088609DF814008007002804D5FFE70998C1
:104F500000F090FC1BE09DF814004007002805D5E8
:104F6000FFE7089840F4006008900FE09DF81400F7
:104F70000007002805D5FFE7089840F48050089006
:104F800003E0099800F072FCFFE7FFE7FFE7FFE7A7
:104F90009DF81500C00760B3FFE7099801684FF45A
:104FA000807088609DF815008007002804D5FFE711
:104FB000099800F067FC1BE09DF8150040070028E9
:104FC00005D5FFE7089840F4005008900FE09DF8E1
:104FD00015000007002805D5FFE7089840F4804039
:104FE000089003E0099800F049FCFFE7FFE7FFE7BE
:104FF000FFE79DF81600C00760B3FFE70998016856
:105000004FF4803088609DF816008007002804D592
:10501000FFE7099800F03EFC1BE09DF816004007F2
:10502000002805D5FFE7089840F4004008900FE0FD
:105030009DF816000007002805D5FFE7089840F402
:105040008030089003E0099800F020FCFFE7FFE7BC
:10505000FFE7FFE7FFE79DF81C000007002810D5D9
:10506000FFE79DF81000C006002809D5FFE7089863
:1050700040F400700890099801681020C860FFE7AC
:10508000FFE79DF81C00400700280FD5FFE79DF8BB
:1050900010000007002808D5FFE7099801680820DC
:1050A000C860099800F0CCFAFFE7FFE79DF81C0004
:1050B000800700280BD5FFE709980068C0688007C3
:1050C00020B1FFE7099800F0BFFAFFE7FFE79DF87E
:1050D0001C004006002810D5FFE79DF80C00C00614
:1050E000002809D5FFE7089840F4806008900998E7
:1050F000016810200861FFE7FFE79DF81C008006AB
:1051000000280FD5FFE79DF80C000007002808D500
:10511000FFE70998016808200861099800F054FB2E
:10512000FFE7FFE79DF81C00C00600280BD5FFE74E
:10513000099800680069800720B1FFE7099800F02E
:1051400047FBFFE7FFE79DF81E00800700280FD50B
:10515000FFE79DF81800C006002808D5FFE709986A
:10516000016810204860099800F036FBFFE7FFE770
:105170009DF81E00C00778B1FFE79DF818000007F2
:10518000002808D5FFE709980168082048600998B9
:1051900000F084FBFFE7FFE79DF81D0000060028F4
:1051A00040F18D80FFE79DF818004007002840F18E
:1051B0008180FFE79DF81D00C00750B1FFE79DF813
:1051C0000800C00728B1FFE7089840F001000890E8
:1051D000FFE79DF81D00800700280BD5FFE79DF82D
:1051E00008008007002805D5FFE7089840F0020076
:1051F0000890FFE79DF81D00400700280BD5FFE74A
:105200009DF808004007002805D5FFE7089840F002
:1052100004000890FFE79DF81D000007002848D50E
:10522000FFE79DF8080010F0700F42D0FFE70298EA
:1052300000F0700001460191102814D0FFE701989A
:10524000202815D0FFE70198302816D0FFE70198F5
:10525000402817D0FFE70198502818D0FFE70198A1
:10526000602819D01DE0089840F00800089019E067
:10527000089840F01000089014E0089840F02000D2
:1052800008900FE0089840F0400008900AE0089865
:1052900040F08000089005E0089840F48070089085
:1052A00000E0FFE709980168886920F070008861D4
:1052B000FFE7FFE70998016804204860FFE70898C6
:1052C00048B1FFE7089A0999486A1043486209986B
:1052D000FFF7D6FCFFE70AB080BD000080B584B0C0
:1052E0000290029820B9FFE701208DF80F00E0E05E
:1052F000029890F8200020B9FFE7029800F0DEF84D
:10530000FFE702980168086840F00100086000F0BB
:10531000BFFF0190FFE7029800684068C007A8B986
:10532000FFE700F0B5FF0199401A0B280DD3FFE706
:105330000299486A40F4003048620299052081F8D9
:10534000200001208DF80F00B3E0E4E70298016827
:10535000086820F00200086000F09AFF0190FFE763
:105360000298006840688007002815D5FFE700F024
:105370008FFF0199401A0B280DD3FFE70299486A65
:1053800040F4003048620299052081F82000012095
:105390008DF80F008DE0E3E70298007E012807D129
:1053A000FFE702980168086840F08000086006E0A6
:1053B00002980168086820F080000860FFE7029802
:1053C000407E012807D1FFE702980168086840F095
:1053D0004000086006E002980168086820F040007C
:1053E0000860FFE70298807E012807D1FFE7029856
:1053F0000168086840F02000086006E00298016833
:10540000086820F020000860FFE70298C07E0128AD
:1054100007D1FFE702980168086820F010000860D3
:1054200006E002980168086840F010000860FFE795
:105430000298007F012807D1FFE7029801680868F9
:1054400040F00800086006E002980168086820F053
:1054500008000860FFE70298407F012807D1FFE7B6
:1054600002980168086840F00400086006E00298AD
:105470000168086820F004000860FFE7029B1968D3
:105480005A689868D3F80CC040EA0C00D3F810C0F2
:1054900040EA0C005B691843013A1043C861029965
:1054A00000204862029A012182F820108DF80F0036
:1054B000FFE79DF80F0004B080BD000080B590B0FC
:1054C0000F9000200E900D900C900B900A900F986A
:1054D000006846F20041C4F20001884249D1FFE76A
:1054E00040F24830C2F200000168013101600068FA
:1054F000012812D1FFE7FFE70020099043F64000A2
:10550000C4F20200016841F000710160006800F01F
:10551000007009900998FFE7FFE7FFE70020089077
:1055200043F63000C4F20200016841F00801016056
:10553000006800F0080008900898FFE703200A9030
:1055400002210B91002103910C910D9009200E90E6
:1055500040F60040C4F202000AA900F0A5FC039A3C
:1055600014200490052100F06FFF049800F062FF02
:1055700064E00F98006846F60001C4F2000188421A
:105580005BD1FFE7FFE70020079043F64000C4F23D
:105590000200016841F080610160006800F08060F5
:1055A00007900798FFE740F24830C2F20000016818
:1055B000013101600068012812D1FFE7FFE70020F8
:1055C000069043F64000C4F20200016841F0007109
:1055D0000160006800F0007006900698FFE7FFE7A2
:1055E000FFE70020059043F63000C4F20200016896
:1055F00041F002010160006800F00200059005988A
:10560000FFE760200A9002200B90002001900C9090
:1056100003200D9009200E9040F20040C4F20200D9
:105620000AA900F041FC019A40200290052100F0F7
:105630000BFF029800F0FEFEFFE7FFE710B080BD11
:1056400081B0009001B0704780B592B01190119870
:1056500041F2C462C2F200020B9202F11C0300216B
:10566000FFF712FB0B9800681090119841F27461DB
:10567000C2F2000188424CD1FFE741F24060C2F221
:1056800000000A9010A912F0EBFD01460A980F9154
:1056900012F0D8FD0E900FA80EA919F03DF9B8B37D
:1056A000FFE741F24060C2F2000010A912F014FEC0
:1056B0000068C06B58B3FFE741F24060C2F20000DF
:1056C000089010A9079112F007FE006841F2C4612A
:1056D000C2F200010691096904F04AFF089807998F
:1056E00012F0FAFD069900681C3104F033FF0898A7
:1056F000079912F0F1FD0799024608981268D26BDB
:10570000099212F0E9FD099900688847FFE7FFE771
:1057100057E0119841F29C61C2F2000188424FD1DA
:10572000FFE741F24C60C2F20000059041F2C46113
:10573000C2F2000112F094FD014605980D9112F09D
:1057400081FD0C900DA80CA919F0E6F8B8B3FFE79D
:1057500041F24C60C2F2000010A912F0BDFD0068D9
:10576000C06B58B3FFE741F24C60C2F200000390F7
:1057700010A9029112F0B0FD006841F2C461C2F2BA
:1057800000010191096904F0F3FE0398029912F0F7
:10579000A3FD019900681C3104F0DCFE0398029916
:1057A00012F09AFD0299024603981268D26B049295
:1057B00012F092FD049900688847FFE7FFE7FFE7D2
:1057C000FFE712B080BD000081B0009001B07047CB
:1057D00081B0009001B0704781B0009001B0704777
:1057E00080B584B00290029890F8200001282FD153
:1057F000FFE70299022081F82000029801680868FA
:1058000020F00100086000F043FD0190FFE70298DE
:1058100000684068C007A8B1FFE700F039FD0199B2
:10582000401A0B280DD3FFE70299486A40F4003074
:1058300048620299052081F8200001208DF80F00B0
:105840000FE0E4E70299002048628DF80F0008E0BD
:105850000299486A40F40020486201208DF80F0048
:10586000FFE79DF80F0004B080BD000081B00090FC
:1058700001B0704781B0009001B0704781B00090D6
:1058800001B0704781B0009001B0704781B00090C6
:1058900001B0704781B0009001B0704781B00090B6
:1058A00001B0704780B584B002900298806D01907D
:1058B00000F0EEFC0090029890F8350002280DD020
:1058C000FFE7029980204865FFE70299002081F8F0
:1058D0003400FFE701208DF80F0055E002980168C1
:1058E000086820F01600086002980168486920F0F6
:1058F000800048610298006C20B9FFE70298806C34
:1059000038B1FFE702980168086820F008000860D5
:10591000FFE702980168086820F001000860FFE7CF
:10592000029800680068C007C8B1FFE700F0B0FC4B
:105930000099401A062811D3FFE7029920204865F4
:105940000299032081F83500FFE70299002081F8D1
:105950003400FFE703208DF80F0015E0E0E7029820
:10596000C16D3F208840019988600299012081F82B
:105970003500FFE70299002081F83400FFE7FFE7D8
:1059800000208DF80F00FFE79DF80F0004B080BDE8
:1059900082B00090009890F83500022807D0FFE709
:1059A00000998020486501208DF807000EE00099DD
:1059B000052081F8350000980168086820F0010092
:1059C0000860FFE700208DF80700FFE79DF807005B
:1059D00002B0704780B586B005900020039040F279
:1059E0009410C2F20000006848F2B511C1F64E31C1
:1059F000A0FB0110800A02900598806D019001982B
:105A00000068049004980599C96DC84000070028F3
:105A10001AD5FFE70598006800684007002812D5EE
:105A2000FFE705980168086820F004000860059801
:105A3000C16D08208840019988600599486D40F043
:105A400001004865FFE7FFE704980599C96DC84064
:105A5000C007A0B1FFE7059800684069000600286C
:105A60000CD5FFE70598C16D012088400199886039
:105A70000599486D40F002004865FFE7FFE704988C
:105A80000599C96DC8404007002814D5FFE705985F
:105A900000680068800700280CD5FFE70598C16DF5
:105AA00004208840019988600599486D40F0040001
:105AB0004865FFE7FFE704980599C96DC840C0062F
:105AC000002847D5FFE70598006800680007002810
:105AD0003FD5FFE70598C16D102088400199886087
