:020000040800F2
:1000000098640020F9020008858B000835850008F7
:10001000818B0008B1460008D1970008000000005D
:10002000000000000000000000000000718C0008CB
:10003000CD48000800000000018C0008DD8C00089D
:100040001303000813030008130300081303000838
:100050001303000813030008130300081303000828
:10006000130300081303000813030008D546000813
:10007000E5460008F5460008054700081547000852
:1000800025470008130300081303000813030008A2
:10009000B546000813030008130300081303000803
:1000A00013030008130300081303000813030008D8
:1000B000ED8D000813030008130300081303000864
:1000C00013030008130300081303000813030008B8
:1000D000130300087997000889970008B197000872
:1000E0001303000813030008130300081303000898
:1000F0001303000813030008130300083547000822
:100100001303000813030008130300081303000877
:1001100049930008599300081303000813030008CB
:10012000130300084547000855470008130300085B
:100130001303000813030008130300081303000847
:10014000C546000813030008130300081303000842
:10015000130300086547000875470008C1970008A9
:100160001303000813030008130300081303000817
:100170001303000813030008130300080000000025
:10018000130300081303000800F002F800F0A4F8BD
:100190000AA090E8000C82448344AAF10107DA45E2
:1001A00001D100F099F8AFF2090EBAE80F0013F090
:1001B000010F18BFFB1A43F001031847E4F60100D2
:1001C00004F70100103A24BF78C878C1FAD8520762
:1001D00024BF30C830C144BF04680C6070470000C1
:1001E0000023002400250026103A28BF78C1FBD840
:1001F000520728BF30C148BF0B6070476E2901F01D
:100200000184702901F0458566291DF06683652902
:100210001DF0638367291DF0608361291DF05F83F2
:1002200003681B0A28BF41F08001692901F0AE83F1
:10023000642901F0AB83752901F0A8836F2901F0CF
:10024000D384782901F01185E92901F06D84E4292E
:1002500001F06A84F52901F06784EF2901F0D08468
:10026000F82901F010850368DB0928BF41F08001FF
:10027000632903F0FA83732903F0FF83E32903F072
:100280000A84F32903F00F84002070471FB51DF086
:100290000FFB9DE8030000F0B7FA01F091FA0400AB
:1002A000002000211DF0D0F8401C606000200021DB
:1002B0001DF0F6F8E060002000211DF0DBF8206161
:1002C00000F0F8FC00F080F91FBD10B5002000F030
:1002D0005BFF00F058FD10BD01F04DFA1146FFF72D
:1002E000D5FF1AF0A3FF02F036FF03B4FFF7EDFFCE
:1002F00003BC00F057FA000009488047094800474E
:10030000FEE7FEE7FEE7FEE7FEE7FEE7FEE7FEE7C5
:10031000FEE7FEE704480549054A064B7047000022
:10032000D98D000889010008985E0020986400209B
:10033000986000209860002053EA020C00F0698069
:100340002DE9F04B4FF00006002B1FBFB3FA83F5E9
:1003500003FA05F424FA05F65E4012BF1643B2FA1A
:1003600082F502FA05F4C5F120051EBF22FA05FC4C
:1003700044EA0C04203556EA044C4FEA144418BFF2
:10038000641C4FF000084FF00009904271EB030C21
:1003900039D3002919BFB1FA81F701FA07F6B0FA8B
:1003A00080F700FA07F6C7F120071EBF20FA07FC06
:1003B00046EA0C062037B6FBF4FCA7EB0507103F16
:1003C00007F01F0BCBF120062CFA06F60CFA0BFBFC
:1003D00044BFB3460026202FA4BF5E464FF0000B5B
:1003E0005BEA060C08BF4FF0010B19EB0B0948EB59
:1003F0000608ABFB027C06FB02CC0BFB03CCC01B4C
:1004000071EB0C01C1E70B46024641464846BDE888
:10041000F08B13B5084318BF4FF0FF300146AFF320
:100420000080BDE81C4070470B460146184600F0AE
:10043000A2B9032A40F2308010F0030C00F01580BE
:1004400011F8013BBCF1020F624498BF11F801CBD7
:1004500000F8013B38BF11F8013BA2F1040298BF3C
:1004600000F801CB38BF00F8013B11F0030300F0A6
:100470002580083AC0F0088051F8043B083A51F84A
:1004800004CBA0E80810F5E7121D5CBF51F8043B4F
:1004900040F8043BAFF30080D20724BF11F8013BC2
:1004A00011F801CB48BF11F8012B24BF00F8013B24
:1004B00000F801CB48BF00F8012B704710B5203A77
:1004C000C0F00B80B1E81850A0E81850B1E81850FF
:1004D000A0E81850203ABFF4F5AF5FEA027C24BFD1
:1004E000B1E81850A0E8185044BF18C918C0BDE8BA
:1004F00010405FEA827C24BF51F8043B40F8043B83
:1005000008BF7047D20728BF31F8023B48BF11F837
:10051000012B28BF20F8023B48BF00F8012B704791
:1005200002F0FF0343EA032242EA024200F002B86B
:100530004FF000020429C0F0128010F0030C00F00C
:100540001B80CCF1040CBCF1020F18BF00F8012B8A
:10055000A8BF20F8022BA1EB0C0100F00DB85FEA58
:10056000C17C24BF00F8012B00F8012B48BF00F824
:10057000012B70474FF0000200B513469446964693
:10058000203922BFA0E80C50A0E80C50B1F12001A6
:10059000BFF4F7AF090728BFA0E80C5048BF0CC054
:1005A0005DF804EB890028BF40F8042B08BF7047B2
:1005B00048BF20F8022B11F0804F18BF00F8012B24
:1005C000704770477047704770B5064C7C44064DC5
:1005D0007D4404E02046016808448047241DAC4265
:1005E000F8D170BDACF50100C8F5010070B5064644
:1005F00000F0E6F8056806F10B0020F00704B442AD
:100600009CBF002070BD2B466A68BAB11068A0423A
:1006100010D304F1080188423CBF5068586007D3EA
:100620005168101941601168091B0160586014601D
:10063000101D70BD13465268002AE7D12146284696
:1006400000F0CEF80028DED170BD70B50446051F5D
:1006500000F0B6F80068002C14BF446870BD002C90
:1006600018BFAC423CBF20466468F8D301680A1842
:10067000AA4218BF456003D12A68054611440160AB
:1006800028684119A1421CBF6C6070BD6168696037
:1006900021680844286070BD10B500F099F8006822
:1006A00010BD10B5044600F093F8046010BD0000C2
:1006B00070B50446C068810713D0800601D5A56ACD
:1006C00004E0A169606808442169451A204600F0E9
:1006D000ADFA002206462946204600F0C9F9304608
:1006E00070BD002070BD70B510B1BDE87040DFE78F
:1006F0000025074C6E1E07E02046FFF7D9FF00B12A
:100700003546206D20F00104002CF5D1284670BD3F
:10071000180100201CF002BECA68431C0FD00D4B0C
:100720001A420CD1D3070AD081F825004B680B631D
:1007300000238B6012F0C06F0B6003D004E04FF019
:10074000FF30704742F00072034B1A40034B1A43CC
:10075000CA60704780200800BFFFDFFF001048001C
:1007600010B5002000F031FDFFF7AFFDBDE81040EF
:10077000012000F017B82DE9F041074615460E4656
:100780001020FFF733FF04000AD06760C4E9026558
:1007900000F01AF80168216004600020BDE8F081D3
:1007A0000120FBE701491820ABBEFEE7260002004E
:1007B00010B501F005F8001D10BD00BF8DCC010083
:1007C000004870471C020020004870474C0200207F
:1007D0000048704714020020704770477047704708
:1007E00038B504460A4600206946AFF30080002869
:1007F00008BF38BD02460099204600F0E5FF012001
:1008000038BD012002F0D5BCF8B5AFF30080054635
:1008100000200C46102000BF0646A819A0420DD9A2
:10082000324669460020AFF30080070008BF02F09F
:10083000C0FC0098A04218BF0546C419FFF7C0FFCE
:1008400005600746F01D20F007004619284600F015
:100850000AF8B44208BFF8BDA21B31463868BDE8AB
:10086000F84000F0B1BF00210160C0E901107047FD
:100870001020704770B50D460646041FFFF7A0FF15
:100880000268BDB1DEB105F10B0020F00701A942FD
:100890003CBF002070BD23688B4238BF506813D323
:1008A0005A1A082A36D3601840F8042B2160FFF743
:1008B000CCFE2FE03046FFF7C8FE002070BD284672
:1008C000BDE87040FFF792BE002818BFA0423CBFB1
:1008D00002464068F8D303EB040C84451CD1D0F8E1
:1008E00000C06344994217D8A3EB010CBCF1080F78
:1008F0000DD3D0F804C06318C3F804C0D4F800C006
:1009000000686044401A18602160536002E0236070
:1009100040685060201D70BD2846FFF767FE050047
:1009200008D031462068021F2846FFF7C7FD201D6A
:10093000FFF78BFE284670BD10B500F05FFF00F09A
:10094000080010BD2DE9F0410F46134615460A4632
:1009500006460021084600F099FF0446401CFFF7B8
:1009600045FE306030B1611C2B463A46BDE8F0418F
:1009700000F08CBF4FF0FF30BDE8F0810FB41CB524
:100980000C0007AA009007D04142A14202D32044A4
:10099000401E01E04FF0FF30074B7B446946019059
:1009A000069801F048F80021002C01D0009A11703F
:1009B0001CBC5DF814FB0000BF1000007CB51D4698
:1009C00016460C00009007D04142A14202D32044B9
:1009D000401E01E04FF0FF30064B7B442A4669463B
:1009E0000190304601F027F8002C02D0009A002137
:1009F00011707CBD7F10000000B58DB00990009291
:100A00000B904FF0FF300A9000200C90054878447E
:100A10000690054878446A46079009A801F04CFE04
:100A20000DB000BDC71C0000DF1C00000FB400B5F6
:100A30008DB010A9099000910B904FF0FF300A90F3
:100A400000200C90064878440690064878446A4690
:100A500007900F9909A801F02FFE0DB05DF814FB67
:100A60008F1C0000A71C000001F0B2BE01F0F8BE10
:100A70002DE9F041044616460D464769007B800784
:100A80002ED0384600F05DFE50BB3EB3012E02D0A2
:100A9000022E25D104E0204600F066F805441DE052
:100AA000384600F05CFEE168002841F01001E1608A
:100AB00005DA204600F07AF80120BDE8F081C9038C
:100AC0000BD56268E16A914200D81146A2691144CF
:100AD0002269891A814200DD08460544002D01DAA9
:100AE0000220EAE7E16A6068E268814206D2910387
:100AF000E06203D522F4003141F01002A66900271C
:100B0000AE4213DCE16A814201D90B4600E00346A4
:100B100003EB060C2369ACEB030CAC4506DD81420C
:100B200001D98C4600E084469C4505D1A76027602A
:100B300042F02000A5620DE0AD1BE669AE1B8142CC
:100B4000A66000D90846C01A281A206058196060AB
:100B500022F0200003490840E060002084F848703B
:100B6000ABE70000BFCFD7FF10B50146C2689007C2
:100B700003D0900607D5886A0AE0FFF729FE012115
:100B80000160881E10BD8B69486818440B69C01A43
:100B900091F848301BB191F84910401A10BD11036B
:100BA000FCD50028FADD401E10BD0000C16821F40C
:100BB000001141F08001C160002181600160704737
:100BC0002DE9F74F15460C464FF0FF3B3848D768E4
:100BD000D2F814A0074209D05046A96900F0B7FD29
:100BE000002819DB3248C0430740EF604FF000494E
:100BF0006FF000484C4501D3464600E02646009978
:100C00003B465046324600F08DFDA96920F0004277
:100C1000B21A1144A96128B12846FFF7C7FF584608
:100C2000BDE8FE8FA41BE5D10020F9E770B50446AE
:100C30000569C06A6168884200D80846E16821F405
:100C40002011E160C90312D5A84208D02246411BF9
:100C50002846FFF7B5FF10B14FF0FF3070BD002000
:100C6000E562C4E90150E06820F48030E0600020D3
:100C700070BD10B50446C06820F02000E060A16A95
:100C8000A06988420DD02046FFF7D0FFE06820F42D
:100C9000405040F01000E060A06AA0612069E0626E
:100CA000606044F24001E0688843E06010BD0000ED
:100CB0001000020010B542485421FFF75BFC414888
:100CC0005421FFF757FC40485421FFF753FC3F499C
:100CD0003B483C4A3F4B08603D490A603A4919602D
:100CE000531C0365481C1065012008653B48344AC5
:100CF00039A1784400F07AF820B9384878440A38A5
:100D000002F050FA37482F4A35A1784400F06EF8C7
:100D100020B9344878440A3802F044FA32482A4A62
:100D20002FA1784400F062F820B92F4878440A389F
:100D300002F038FA40232248DC000021224602F06B
:100D400049F920B125487844543802F02BFA1D485F
:100D500022464023002102F03DF920B12148784489
:100D6000543802F01FFA184822461023002102F0DE
:100D700031F9002806D01C487844BDE810405638A8
:100D800002F010BA10BD104870B5006D20F00104DB
:100D90000B4800F0A3F80B4800F0A0F80A4800F058
:100DA0009DF809E0206D20F00105204600F096F83E
:100DB0002046FFF74AFC2C46002CF3D170BD000002
:100DC000180100206C010020C0010020000000205C
:100DD000040000200800002072000000E8CC0100A0
:100DE00077000000D4CC0100C0CC01002DE9F04117
:100DF0000C461646070047D0104600F06FF82078E2
:100E0000611C61280AD0722802D077283CD102E008
:100E10000125002405E00225042402E0082448F20C
:100E2000020511F8010B2B2806D0622809D011F811
:100E3000010C74280AD00BE045F0030544F00204CD
:100E4000EFE745F0040544F00104EAE744F010043C
:100E50003846214600F056FC411C15D00021316176
:100E600071604FF40071F560F1617061200704D585
:100E7000304602220021FFF7FBFD306D40F00100FB
:100E800030653046BDE8F0810020FBE72DE9F041F8
:100E90000D460646104C206DC10704D0410804D011
:100EA00020F00104F7E722460EE05420FFF79EFBF6
:100EB00007000ED0206D47F0010108435421206542
:100EC0003846FFF757FB3A4629463046BDE8F04121
:100ED0008CE70020D6E70000180100202DE9F0473C
:100EE00004464FF0FF380026C568D4E90497A807E8
:100EF00018D02046FFF79AFE384600F00DFC002877
:100F000000DA4646280502D54846FFF79EFB4C21ED
:100F10002046FFF72FFB206D20F0010020653046B2
:100F2000BDE8F0874046FBE72DE9FE430E46174635
:100F3000804600210846AFF300800546002000905F
:100F400001905EB130784FF0FF3900B1AFB11DB103
:100F5000D5E90001CDE9000100240CE00020BDE846
:100F6000FE83315D6A46641C02A802F0B0F8411CA1
:100F700003D0012803D0BC42F3D34846EFE71DB1AC
:100F8000DDE90001C5E90001B8F1000F03D0BDF8AB
:100F90000810A8F80010BDF808000028DFD020468F
:100FA000DDE770B50C4605460AB1104603E00421A2
:100FB0000020AFF3008022462946BDE8704003467A
:100FC000002000F03DB82DE9F84F914688460546CF
:100FD0004FF000045FEA030A0E682BD107210020BE
:100FE000AFF30080824625E016F8011B52466846A2
:100FF00002F06DF80746401C0FD0BF1C1AD01DB17F
:10100000BDF8000025F81400BDF80000641C58B1BC
:10101000002DE9D0C8F800600EE0FFF7D9FB0421ED
:1010200001603846BDE8F88F15B10021C8F80010FE
:10103000601EF7E7002DD7D04C45D5D32046F1E709
:1010400001F0ECBF02F026B82DE9F84F9B46904620
:10105000894605460024DDF828A00E685FEA0A00EC
:1010600033D10921AFF3008082462EE0B8F1000FA2
:101070001AD05246684616F8011BA8F1010802F082
:1010800026F80746401C13D0BF1C1ED01DB1BDF86A
:10109000000025F81400BDF80000641C78B1002D94
:1010A000E4D0C9F8006012E09DB1C9F8006010E01A
:1010B000FFF78EFB042101603846BDE8F88F15B1BB
:1010C0000021C9F80010601EF7E7002DCED05C4566
:1010D000CCD32046F1E72DE9FF4F91468A46804662
:1010E00083B00024109F0D68A7BB0A210020AFF336
:1010F000008007462EE017B1D7E900B102913A46C9
:101100006846298802F003F80646401C0BD0B8F167
:10111000000F16D00698311981420CD9EFB102990F
:10112000C7E900B119E0FFF753FB04210160304625
:1011300007B0BDE8F08F08EB040032466946FFF7C0
:1011400078F92888344450B1AD1CB8F1000F01D0B3
:10115000CAF80050B9F10109CDD22046E8E7641E73
:10116000B8F1000FF9D00021CAF80010F5E710B56A
:10117000FFF71EFB006890F80111012901D0012042
:1011800010BDD0F80B0110BD2DE9F0410646FFF768
:101190001BFB8046454613E016B1E068B0420ED115
:1011A00020682860D4E90101D8F8007088472046FB
:1011B000FFF74BFAD8F80000B842EBD100E0254623
:1011C0002C68002CE8D1BDE8F08110B501F0D2FF09
:1011D000BDE8104001F0C8BF10B5431C02E010F894
:1011E000011B71B18107FAD14FF0013202C88C1A8C
:1011F0008C4314EAC211F9D0C01A0A0603D0C01EEB
:1012000010BDC01A10BD0A0401D0801E10BD090215
:10121000FCD0401E10BD002101E0801C491C02884A
:10122000002AFAD108467047431A28BF9A427FF62F
:1012300000A910441144032A40F2268010F0030F45
:101240001EBF11F8013D521E00F8013D10F0030FC2
:101250007FF4F6AF11F0030300F03B80083AC0F0D2
:101260000B8051F8043D083A51F804CD40F8043D94
:1012700040F804CDFFF7F3BF121D5CBF51F8043DE9
:1012800040F8043DAFF30080D20724BF11F8013DC0
:1012900011F801CD48BF11F8012C24BF00F8013D21
:1012A00000F801CD48BF00F8012C7047431A28BF51
:1012B0009A427FF603A91044114410F0030F1EBF99
:1012C00011F8013D521E00F8013D10F0030F7FF4AC
:1012D000F6AF103AC0F00A8010B531E9185020E995
:1012E0001850103ABFF4F9AFBDE81040530724BFBF
:1012F00031E9081020E9081044BF51F8043D40F8D6
:10130000043D12F0030F08BF7047D20728BF31F821
:10131000023D48BF11F8012C28BF20F8023D48BF0C
:1013200000F8012C7047000030B44FF0013C50F839
:10133000042B51F8043BCCFA52F4D51A20D1FCB955
:1013400050F8042B51F8043BCCFA52F4D51A17D1BB
:10135000B4B950F8042B51F8043BCCFA52F4D51A26
:101360000ED16CB950F8042B51F8043BCCFA52F46E
:10137000D51A05D1002CDAD030BC4FF000007047F0
:1013800029BAB1FA81F111F01801D1F1200084409D
:10139000F2D1CA40CB4012F0FF0213F0FF0330BC81
:1013A000D01A704770B5054601B90721541A241D9B
:1013B000B4F5B67F09DD286800F05DF9A04204DCD1
:1013C0002868401C2860012070BD002C05DA2868C0
:1013D000401E286000F04FF90444072094FBF0F011
:1013E000401C70BD2DE9F04F1F4615468B468246C6
:1013F000002689B000F0E4F9D0F810800024BBF199
:10140000000F70D015F8010B10B125280DD10FE099
:1014100024B1641E06A850F82450F3E7002130469A
:101420000AF8061009B0BDE8F08F0AF80600C7E018
:10143000E94615F8010B592870D023DC49286ED0F5
:1014400014DC44286DD008DC2528EED041283ED09D
:10145000422849D043282CD156E04528E9D04628D7
:1014600069D0472876D0482823D17AE04D380C2817
:101470001FD2DFE800F0881E061E1E9BA0A9B3B590
:10148000C1CFD6E75A38212813D2DFE800F0111275
:1014900012121212121A26374550125926127412BD
:1014A00012797E128012891296A212B3BDCB11005E
:1014B000A8E725200AF80600761C5E4513D26D1EAB
:1014C000A0E7D8F80010BA69D8F8240011E0D8F8DD
:1014D0000410BA69D8F828000BE0D8F808103A6967
:1014E000D8F82C0005E0B2E0D8F80C103A69D8F82A
:1014F000300002FB001101EB0809AAE006A840F841
:101500002450D8F818108AE07969642091FBF0F231
:101510001332484668A192E0FA6889E08AE022E046
:10152000FFE706A840F8245065A5641C6AE7FA683E
:1015300066A1484683E006A840F8245064A5F4E775
:10154000384600F0ADF8642190FBF1F201FB120285
:1015500058E0FFE7384600F0A3F802465FA168466E
:101560006DE0BA6864E0B8680C210B3090FBF1F2D2
:1015700001FB120205E0FA6959A14846521C5EE0DF
:101580003A694DA1F9E77A6852E00A2116E0B86895
:101590000C2802DAD8F81010ADE7D8F81410AAE732
:1015A00006A840F82450D8F8341038E006A840F8CF
:1015B00024504DA5B9E73A683AE009210AF8061027
:1015C000761C5E45B2D342E006A840F8245048A5F8
:1015D000ABE7BA6902B9072248A1AAE700210CE0EB
:1015E000786900F26C700890D7E9061208A8FFF736
:1015F000D9FE06E0BA69EFE70121D7E9062000F03D
:101600002EF802462CA1AAE706A840F82450D8F8E4
:101610001C1004E006A840F82450D8F8201001EB74
:10162000080582E77969642091FBF0F200FB121251
:1016300021A17EE77A69484628A102F26C7200F087
:101640000FF906E00AF80600761C5E4501D300207B
:10165000E8E619F8010B00283FF4DFAEF2E7511A73
:1016600000D5C91D401A01D500207047072190FB05
:10167000F1F0401C704781070CD1642190FBF1F21E
:1016800001FB120151B94FF4C87190FBF1F201FB5B
:10169000120018B1002000F26D1070470120FAE727
:1016A00008B5416901F26C710091D0E906126846F3
:1016B000FFF778FE009808BD252E32640000000078
:1016C000256D2F25642F2579000000002532640048
:1016D00025592D256D2D256400000000256400008E
:1016E000252E33640000000025483A254D000000F7
:1016F00025483A254D3A255300000000252E316437
:10170000000000000EB5CDE90001FFF765FD029075
:1017100069460120ABBE0EBD08B5694600900220A7
:10172000ABBE08BD1FB58DE8070069460520ABBEFE
:1017300004B010BD1FB58DE80F0069460620ABBE92
:10174000F6E708B5694600900920ABBE08BD1CB598
:10175000CDE9000169460A20ABBE1CBD704708B543
:10176000694600900C20ABBE08BD000000487047E1
:101770001402002070477546FFF7F8FFAE460500DB
:101780006946534620F00700854618B020B5FEF79D
:10179000C1FDBDE820404FF000064FF000074FF0BC
:1017A00000084FF0000BAC46ACE8C009ACE8C0093B
:1017B000ACE8C009ACE8C00921F007018D467047CC
:1017C0000048704734020020034640688C460028D9
:1017D00018BF88423CBF03464068F8D318681844D5
:1017E000884207D00CF1030020F00700001D411AC9
:1017F000521A0146081D0A60FEF727BF10B50446BD
:10180000FF2801D9002010BDFEF7D2FF0068005D5F
:1018100010F0980F03D0C10701D140F4806010F49C
:10182000846F01D040F4006010F0BA0F01D040F492
:10183000807010F0BE0F01D040F40070810604D516
:10184000010602D440F0800001E020F02000C10732
:1018500001D0410601D5092CD5D140F4805010BDEE
:101860000FB41CB5084B06AA7B4469460090059846
:1018700000F0E1F804460020694602F0E7F820464F
:101880001CBC5DF814FB0000E12100007CB51D4686
:1018900016460C00009007D04142A14202D32044DA
:1018A000401E01E04FF0FF30064B7B442A4669465C
:1018B0000190304600F0BFF8002C02D0009A0021C1
:1018C00011707CBDAF01000070B5044685690068E9
:1018D000C10601D5302600E02026C00707D070BD24
:1018E000D4E9012130469047206A401C20626D1ED9
:1018F000F6D570BD70B5044685690078C00707D17C
:1019000070BDD4E9012120209047206A401C20624C
:101910006D1EF6D570BD09684A0501D540B2704705
:10192000C905FCD500B2704709684A0501D5C0B2A7
:101930007047C905FCD580B2704770B50C460546A6
:10194000012A05D02878800600D5EA69002302E044
:10195000012305E05B1C934202D2E05C0028F9D130
:10196000A869E618C01AA861286A1844286228469F
:10197000FFF7AAFF04E0D5E9012114F8010B904715
:10198000B442F8D32846FFF7B5FF70BD2DE9F0410A
:101990000646002410687529314616A510D0FFF7B9
:1019A000BAFF002802DA404213A507E031688A072F
:1019B00001D512A502E0490704D511A5012401E0D3
:1019C000FFF7B2FF00210A2206F1240709E0B0FB6D
:1019D000F2FCB0FBF2F302FB1C00303078541846E6
:1019E000491C0028F3D123462A463046BDE8F04181
:1019F00001F047BC000000002D0000002B0000009B
:101A00002000000011680268006A530501D50870C3
:101A10000AE0D30501D5088006E0130603D5C217F6
:101A2000C1E9000200E008600120704701694A1C1A
:101A300002610878704700B58FB0CDE9013100210F
:101A4000059105497944CDE903101146684600F037
:101A50002BF90FB000BD0000E5FFFFFFD1E9002327
:101A60009A4202D2531C0B60107070472DE9FF5F41
:101A700015468A460446DFF8AC80F8440027D8E9CA
:101A800000103E46CDE9001010E03AF816106A4604
:101A900002A801F03CFB411C07D02178890603D540
:101AA000E269391891420DD80744761C20788006E7
:101AB00002D5E069B84205DDAE42E6DB3AF8160031
:101AC0000028E2D1A069C01BA0612046FFF7FCFE00
:101AD000D8E90010CDE90010002017E03AF81810FE
:101AE0006A4602A801F013FBB0F1FF3F81460BD01C
:101AF00000250DF1080B05E0D4E901211BF80500D4
:101B000090476D1C4D45F7D308F10100B042804667
:101B1000E4DB206A384420622046FFF7EBFEBDE894
:101B2000FF9F00006EBF01002DE9F0418046D21DED
:101B300022F007020025D2E90002F52915A614D0EB
:101B4000011E72F1000106DA0023D0EB030063EB03
:101B5000020211A608E0D8F800108B0701D50FA6E5
:101B600002E0490701D50EA601251146002408F11F
:101B7000240704E001F037FB30323A55641C50EA88
:101B80000102F7D12B46324621464046BDE8F041DE
:101B900001F077BB000000002D0000002B000000CA
:101BA0002000000030B4002100F1240408E002F01D
:101BB0000705D208303542EA4372DB086554491CF8
:101BC00052EA0305F3D10468002310A2250708D5C3
:101BD00004F020040C4304D0C46901230CA2641E49
:101BE000C46130BC01F04DBB10B5044621461068FD
:101BF000FFF79AFE02462046BDE810400023D1E7D9
:101C0000D21D22F00701D1E90023CBE7000000003C
:101C100030000000F0B40D460188090502D5214CC2
:101C20007C4402E01F4C7C440E34002100F1240669
:101C300008E002F00F071209E75D42EA03721B0990
:101C40007754491C52EA0307F3D1027800231207A4
:101C500004D5702D06D009B1022311342246F0BC00
:101C600001F00FBB01231034F8E770B504460D46B0
:101C700021461068FFF758FE024629462046BDE877
:101C800070400023C6E7D21D22F00703D3E90023EA
:101C9000C0E70368126843F0200303600823C361B0
:101CA0000023B7E7D0BD01002DE9F05F8946044667
:101CB0004FF0000ADFF874B1FB44C0F820A02046C2
:101CC000E1688847002874D0252806D0D4E901218E
:101CD0009047206A401C2062F1E700265F462046BC
:101CE000E16888472028054607DB312D05D27819A1
:101CF00010F8200C08B10643F1E7B00701D526F033
:101D00000406C4F81CA00027C4F818A02A2D09D086
:101D100028461BF0FCFA38B304EB8708303DC8F8BE
:101D2000185019E059F8041B204604EB8702916112
:101D3000E1688847012F054618D1E069002820DABC
:101D400026F020061DE0D8F8180000EB800005EB17
:101D500040003038C8F818002046E168884705463A
:101D60001BF0D5FA0028EED1012F0AD02E2D08D174
:101D70002046E16888477F1C0546022F46F0200672
:101D8000C4DBA069002803DA404246F00106A061E6
:101D9000F00701D026F010066C2D0BD0682D09D06D
:101DA0004C2D39D06A2D35D0742D35D07A2D33D0C5
:101DB00016E038E0E1682F4620468847B8420546DD
:101DC00009D16C2F26D04FF48060E168064320468D
:101DD0008847054604E06C2F1AD04FF48070064304
:101DE0000DB3A5F14100192802D8203546F400664C
:101DF0004A462946204626604E46FEF7FFF980B146
:101E000001280BD0F61D26F0070000F1080956E75F
:101E10004020E4E78020D8E70020D6E706F1040957
:101E20004DE7284652E7206ABDE8F09F60BD0100FB
:101E30002DE9FF4F1C4691464FF0FF3581B0002140
:101E40008A468846D4E90167A16902986D1C8847D3
:101E5000216A834688470028F6D1BBF1FF3F0CD0AA
:101E6000002F26F4C0661ADD700615D5BBF12B0FC6
:101E70000AD0BBF12D0F0FD104E04FF0FF3005B0B9
:101E8000BDE8F08F46F48066A16902986D1C884712
:101E90007F1E8346002F02DDBBF1300F03D0B9F166
:101EA000000F2AD025E0A1696D1C02987F1E46F420
:101EB00000768847002F834605DDBBF1780F06D0FA
:101EC000BBF1580F03D0B9F1000F10D011E0B9F1F8
:101ED000000F02D0B9F1100F0BD1A1696D1C02984F
:101EE0007F1E26F4007688478346102000E00820F5
:101EF00081464FEAE970009017E00A20F8E7434670
:101F0000AAFB0928DDF800C07F1E03FB098046F408
:101F1000007605F101050AFB0C0112EB0B0A029891
:101F200041EBEB78A16988478346002F06DD4946DF
:101F3000584601F0BCFD5FEA000BE0D5E16902986C
:101F40008847B00502D46FF0010098E7F00718D178
:101F5000700610D55146700505D50023D1EB03015D
:101F600063EB080200E042462068031D236000681E
:101F7000C0E9001205E02068011D21600068C0E989
:101F800000A828467BE72DE9FF5F1D464FF0FF3B89
:101F900091464FF000085F46D5E90146A9690198CE
:101FA0007F1C8847296A824688470028F6D1BAF103
:101FB000FF3F0CD0002E24F4C06419DD600614D558
:101FC000BAF12B0F09D0BAF12D0F0ED103E058460C
:101FD00004B0BDE8F09F44F48064A96901987F1CB7
:101FE0008847761E8246002E02DDBAF1300F03D0FC
:101FF000B9F1000F26D032E0A969761E01987F1C46
:1020000044F400748847002E824605DDBAF1780F4B
:1020100006D0BAF1580F03D0B9F1000F10D01EE06E
:10202000B9F1000F02D0B9F1100F18D1A969761ECD
:1020300001987F1C24F4007488478246102002E037
:10204000082000E00A20814609E0A96908FB090888
:10205000761E01987F1C44F4007488478246002E47
:1020600005DD4946504601F022FD0028EDDAE96918
:1020700001988847A00502D46FF00100A8E7E007A7
:1020800025D1600613D5600502D5C8F1000000E037
:10209000404629680A1D2A600968220501D5087092
:1020A00015E0220701D5088011E008600FE02868DC
:1020B000011D29600068210502D580F8008006E036
:1020C000210702D5A0F8008001E0C0F80080384662
:1020D0007EE72DE9FF5F4FF000089946144646461B
:1020E0009169D2E901A7DDF838B001988847054623
:1020F00059EA0B0005D009E0A1690198761C8847D0
:102100000546216A284688470028F5D1681C03D077
:102110005FEACA7005D015E04FF0FF3004B0BDE8AB
:10212000F09F2068011D2160D0F800800AE05FEA7E
:10213000CA7001D108F8015BA169761C01987F1E65
:1021400088470546002F1ADD681C18D0B9F1000F2A
:102150000DD0E81705EBD060421120F01F0059F8B0
:1021600022102A1A012090400142E0D107E0BBF181
:10217000000FDCD12846216A88470028D7D0E169C2
:1021800001988847BBF1000F07D1002E05DD5FEAFB
:10219000CA7002D1002188F80010A068B84203DD9F
:1021A000BBF1000F03D017B16FF00100B6E7304666
:1021B000B4E700002DE9FF4F06468BB00878FF28F2
:1021C00006D0491C2D2805D000244FF0000908E056
:1021D00000200CE00124F8E709EB8903491C00EB1F
:1021E00043090878FF28F7D114B1C9F100008146EE
:1021F000107800252C46AA4629462D2801D02B28E8
:1022000004D1521C2D2813D0002082468B46107812
:10221000FF280FD04FF0000C0A21521CA5FB0178BB
:1022200004FB018105FB0C11C5194BEB0104EEE722
:102230000120EAE7002108464FF00000BAF1000F44
:1022400002D000EB80004008C0F38157012F01DD70
:102250004FF0FF370E9955EA040009EB01080BD047
:102260004FF0020918F5FA7F16DA4FEACA70002F0C
:10227000706008DD012007E04FEACA70C6E900B0CF
:102280000FB0BDE8F08F00203060FEF7A1FAC0F873
:1022900000901821084616E0B8F5FA7F18DD002FE7
:1022A00002DAF748784401E0F6487844D0E90010B3
:1022B000C6E9001040EACA707060FEF789FAC0F8FB
:1022C0000090142108460FB0BDE8F04F1BF002BB90
:1022D000002108464FF00000B8F10001099002DA31
:1022E000C7F1000200E03A4601DAC8F1000106A891
:1022F00001F016FE06AB93E8070003AB83E8070086
:1023000044F23E005BEA04010090584604D144F2D6
:102310001E012C465D460091210C0904014306D1A3
:102320000099240444EA15442D041039009104F066
:102330007F41014306D10099240244EA15642D022D
:102340000839009104F07041014306D1009924013D
:1023500044EA15742D01091F009104F04041014326
:1023600006D10099A40044EA9574AD00891E00913D
:1023700004F00041084304D100986D196441401EE7
:1023800000904FF001033A466846B8F1000FCDE9DE
:10239000014503A902DD1AF054FD01E01AF027FD02
:1023A000BAF1000F04460D4601D084F0004400212C
:1023B00008464FF00000099940F2FF77484010F0BE
:1023C0000C0F07D124F00040284303D0C4F30A5077
:1023D000B84212D1FEF7FCF9C0F80090C4F30A50DD
:1023E000B8420AD1A8487844D0E90010C6E90010E4
:1023F00004F000410843706042E7C6E900543FE73B
:102400002DE9FF4F1F464FF0000A4FF0FF384546B9
:1024100091B0D7E90146CDF83CA0FFF7D1F9C068EB
:102420000168405C1090B96912986D1C8847396A40
:10243000814688470028F6D1B9F1FF3F0AD0002E27
:1024400024F4D06411DDB9F12B0F08D0B9F12D0FB0
:102450000BD102E0404615B013E744F48064B9693B
:1024600012986D1C8847761E8146600504A901D527
:102470002D2000E02B20002E01F1010B0DF1300882
:102480008DF810003FDDB9F1690F08D0B9F1490F9F
:1024900005D0B9F16E0F02D0B9F14E0F1CD13B46F9
:1024A00001A8009580E85002DDE912126FF00200E9
:1024B0001BF07BFAC11CCED10EE0B96912986D1CDD
:1024C000884781461398761E44F4007405600F987F
:1024D000401C002E0F9016DDB9F1300FEDD0B9F190
:1024E000780F02D0B9F1580F0DD10F9801280AD1F9
:1024F0003B46CDE90054DDE91212001F02961BF0A5
:1025000052FAC11CA7D1109989453ED144F08004EC
:1025100006E01399681CAAF1010A44F400740860EB
:10252000B9696D1C1298761E884730288146F0D014
:102530002BE01099894505D1200603D4761E44F07E
:10254000800418E048461AF0E2FE08B3761E0DF14A
:1025500023029345A9F1300044F4007406D20BF82D
:10256000010B200607D5AAF1010003E0200602D4E2
:102570000AF101008246A00502D51399681C086083
:10258000B96912986D1C88478146002ED1DC53E052
:10259000002E51DDB9F1650F02D0B9F1450F4BD1D5
:1025A000A00549D5B9696D1C1298761E24F44074B3
:1025B0008847002E81460CDD2B2804D0B9F12D0F61
:1025C00007D144F48074B96912986D1C8847761E4F
:1025D0008146E00501D52D2100E02B2108F8011BE3
:1025E000CDF8008021E0761E0DF13901884544F4D4
:1025F00000740CD2A9F1300010F0FF0088F8000040
:1026000002D10099884509D908F1010806E0E005E2
:1026100001D51E4801E042F20F708246B969129856
:102620006D1C8847814613980560002E04DD4846DE
:102630001AF06DFE0028D6D1F96912988847FF205C
:1026400053468BF8000088F8000000200A900B9099
:1026500004AA0CA90AA8FFF7ADFDA00502D46FF0EB
:102660000100F8E614F0240F12D0E0071CD13868FE
:10267000DDE90A12031D3B600068C0E9001213E0A7
:1026800020D6010012D60100D6D40100F1D8FFFFF8
:102690000AA968461AF028FEE00705D13868009AB2
:1026A000011D3960006802602846D4E602681144C2
:1026B0001378016018467047D1600549794451612B
:1026C00004497944116200211161114601F0FEB9FB
:1026D000EDFFFFFFAB0B0000426842B1016811F84B
:1026E000013B23B1521EC0E9001218467047012178
:1026F000C160881E704742685AB1C368016843B917
:1027000083688B4205D0491E521CC0E9001200208C
:1027100070474FF0FF3070470FB40B0010B54FF00B
:1027200000048AB00FA900910E99CC60234C7C4420
:10273000234A7A44CDE9064200D004236FF00042D8
:10274000CDE901321F4A7A446B46089202460020C6
:102750001BF027F90AB010BC5DF814FBF0B5074672
:102760004FF0FF301E4615460C463B4685B06A4684
:102770000091CDE9010131460020049004A8FFF743
:10278000CBFF04990346601825B109B1024600E069
:1027900022462A6000290ED0002B02DD00998142DA
:1027A00009D03B466A463146001B0094CDE901043E
:1027B00004A8FFF7B1FF05B0F0BD0000A7FFFFFFC1
:1027C000C1FFFFFF270B000000230360FFF7C6BF18
:1027D0002DE9F04791460E4680460446002514F840
:1027E000017B2FB1FDF7E4FF0068C05DC007F6D1A3
:1027F0002B2F02D02D2F1ED0641E4A463146204674
:1028000001F01EFB26B13268A24201D1C6F8008059
:102810004FF002046A0518D50023D0EB030563EBE3
:1028200001025D1B934109DB0023D0EB030063EB46
:102830000101BDE8F08745F48065DEE7FDF7C8FFDC
:10284000046000204FF00041F3E7021E71F1000226
:10285000EFDAFDF7BDFF04604FF0FF304108E8E715
:102860002DE9F05F93460F46804604460026FDF7AB
:10287000AFFFD0F80090824614F8015B2DB1FDF750
:1028800097FF0068405DC007F6D12B2D02D02D2D9B
:102890001FD0641E0021CAF800105A46394620464F
:1028A00001F0CEFA024627B13868A04201D1C7F83C
:1028B0000080DAF8000002280ED0CAF800907005F7
:1028C0000AD500200346D2EB000063EB0101BDE80E
:1028D000F09F46F48066DDE71046F8E72DE9FF4FEC
:1028E0004FF000089A461446C146464683B0D2E9E6
:1028F00001B7CDF80080CDF804809169049888472D
:10290000109905465AEA010005D009E0A16904982A
:10291000761C88470546216A284688470028F5D155
:10292000681C03D05FEACB7005D02AE04FF0FF307F
:1029300007B0BDE8F08F2068011D2160D0F800804D
:102940001FE002A86A46E9B200F0C1FB411C07D0B3
:10295000801C09D04FF000095FEACB7007D00AE075
:10296000E169049888473EE04FF0010904E0BDF8B2
:10297000081028F8021B7F1EA1690498761C88475E
:102980000546002F1ADD681C18D0BAF1000F0DD0D3
:10299000E81705EBD060421120F01F005AF8221012
:1029A0002A1A012090400142CBD107E0109800285C
:1029B000C7D12846216A88470028C2D0E169049817
:1029C0008847B9F1000F0ED1109830B9002E04DD00
:1029D0005FEACB7001D1A8F80000A068B84202DD20
:1029E000109818B117B16FF00100A1E730469FE7CA
:1029F0002DE9FF4F4FF000089B461446454683B033
:102A0000D2E90196CDF80080CDF804809169DDF817
:102A100048A00498884707465BEA0A0005D009E009
:102A2000A16904986D1C88470746216A3846884783
:102A30000028F5D1781C03D05FEAC97005D01BE0EF
:102A40004FF0FF3007B0BDE8F08F2068011D216016
:102A5000D0F8008010E05FEAC97007D16A464046AE
:102A6000B9B200F054FB411C31D08044A1696D1C07
:102A70000498761E88470746002E14DD781C12D075
:102A8000BBF1000007D03B46DDE9101201F039FA36
:102A90000028E0D107E0BAF1000FDCD13846216A06
:102AA00088470028D7D0E16904988847BAF1000F19
:102AB00006D1002D04DD5FEAC97001D188F800005D
:102AC000A068B04203DDBAF1000F03D016B16FF079
:102AD0000100B7E72846B5E72DE9FF5F9B4614469E
:102AE00000273D469169D2E90196DDF840A00198A2
:102AF000884780465BEA0A0005D009E0A169019891
:102B00006D1C88478046216A404688470028F5D1D9
:102B1000B8F1FF3F03D05FEAC97005D014E04FF071
:102B2000FF3004B0BDE8F09F2068011D21600768F8
:102B30000AE05FEAC97001D127F8028BA1696D1C18
:102B40000198761E88478046002E15DDB8F1FF3FBC
:102B500012D0BBF1000007D04346DDE90E1201F0B0
:102B6000D0F90028E5D107E0BAF1000FE1D14046E5
:102B7000216A88470028DCD0E16901988847BAF1CA
:102B8000000F05D1002D03DD5FEAC97000D1388048
:102B9000A068B04203DDBAF1000F03D016B16FF0A8
:102BA0000100BEE72846BCE770B50D460146144655
:102BB000D36850692A46FEF7BDFD002807DA411C9C
:102BC00007D0E16820F0004041F48041E160281A1C
:102BD00070BD2046FDF7EAFF4FF0FF3070BDC168C1
:102BE0000022026021F4805141F0400111F4C06FD5
:102BF000C16001D08260704702694168891AC26968
:102C0000891A816070472DE9F05F04468946C068E3
:102C100040F4800010F4C06FE06008D0204601F05E
:102C20005DFA2068002802DD401E206033E0E06885
:102C3000010312D520F40020E060810606D4E26A88
:102C400061688A4200D80A46511A216040F4001097
:102C5000E06094F82500BDE8F09F20F40010E060EB
:102C6000800602D52046FEF704F8E06842F28101B2
:102C70004FF0FF3A0140012903D02046FDF796FFAF
:102C8000B0E02168002600290ADAC94340F48050E8
:102C90002160C4E902606068411C61600078DAE785
:102CA00044F2400108420CD020F4A04040F0400023
:102CB0002660E06021696068401AE169401AA060FE
:102CC00090E0216991B9C00310D4E069FDF78EFC52
:102CD0002061B0B1E06840F4006010F4407FE06033
:102CE00002D140F48070E06020696060E068D4F850
:102CF00014B0C1061AD5C0030ED52046FDF796FFC5
:102D000014E004F1240020610120E061E06820F477
:102D1000407040F48060E6E721696068401AA1696C
:102D200001445846FEF713FD0028A6DBE068C00307
:102D30002BD56168E06A884200D808462169451AA7
:102D4000E069471B1CD02046D4F81880FDF76EFFC1
:102D500008EB05015846C4F81880FEF7F8FC002877
:102D60008BDBE068B9F1000F40F40030E06002D086
:102D7000A0692844A061E1692069C91B45180DE0DC
:102D80002046FDF753FFE769F5E725696168D4E957
:102D90000607491BE56208446560A061E068B9F177
:102DA000000F20F0100040F48050C4E9026005D00C
:102DB0002069E06260606FF001004CE7224639460E
:102DC0002846FFF7F1FE411C0CD02918E16258B1EA
:102DD000401E2060681C6060E06840F40030E060E5
:102DE000287838E7504636E765602046FFF7F7FE5B
:102DF000F8E72DE9F05F054617460C46C86820F451
:102E0000201040F48000C860800602D50846FDF717
:102E100030FFE06841F282014FF0FF3A01400229A1
:102E200003D02046FDF7C2FEB9E000F42041B1F521
:102E3000004F0FD1C00306D56168E06A884200D810
:102E40000846606006E02069E06260606069FEF745
:102E500086FCA061A0680022EEB200280DDAE168CD
:102E60008B050AD4C043A06041F490302260E0603A
:102E70006068411C61600670AAE0E06891462260CB
:102E800040F40050E060206978BB6069FEF759FCAF
:102E900004F124054FF00108A8B1A08910F4407F87
:102EA00008D0E069FDF7A2FB206118B1E06840F4AA
:102EB000006017E0C4F81C802561E06820F44070D1
:102EC00040F480600EE0E069FDF790FB002820618F
:102ED000F0D0E06840F4006010F4407FE06002D180
:102EE00040F48070E06020696060E06825696FF000
:102EF000010BC1051ED56168E06A884200D808460A
:102F0000411B04D022462846FDF75AFEE8BB1FB1FC
:102F1000E562C4E9015959E0681CE0626060E0695B
:102F2000401EA060E06840F48030E06030462E70C3
:102F3000BDE8F09F17B100F480320AE06068411CE0
:102F400061600670E0680A2E40F48030E06006D0D0
:102F50000022E16A6068814203D90B4602E0012247
:102F6000F7E70346B4F80CC05B1B5FEA4C5C04D483
:102F7000D4F81CC09C4500DD02B3814200D8014654
:102F8000002BA1EB0008E56200E008E0C4E901596C
:102F900007DD224619462846FDF712FE08B15046C5
:102FA000C6E7B8F1000F09D0A169E5626560A1EB41
:102FB0000800A061E06840F01000E06047B161687F
:102FC000A069E562491B08446560A0615846AFE707
:102FD0003046ADE770B5C468A50713D0650211D4BB
:102FE000B2F5807F09D0B2F5007F06D0B2F5806FD0
:102FF00008D1012300F1240106E05D1E6FF07F4639
:10300000B54201D3012070BD0161C361416024F468
:1030100070611143C160002070BD00002DE9F843CC
:103020009946174680464FF000060C0002D18846AC
:10303000012717A4B9F1000F25D105210020AFF316
:10304000008081461FE014F8011B4A46684600F0E4
:103050003EF8761C0546401C0FD0AD1C13D0B8F1CD
:10306000000F03D0BDF80010A8F80010BDF8000054
:10307000002800D03046BDE8F883FDF7A9FB042105
:1030800001602846F7E77F1EDDD26FF00100F2E70E
:10309000000000007CB50C46054622B90621002040
:1030A000AFF3008002462146684600F030F804463F
:1030B000401C07D025B1224669462846FDF7B9F9DC
:1030C00020467CBDFDF784FB04210160F8E7F8B5DC
:1030D00016460C460546FDF76BFB036893F80101A5
:1030E000012804D0185D78B101202C80F8BDD3F8F8
:1030F00003013246214603F20313C7186846002332
:10310000B84700992980F8BD4FF0FF30F8BD2DE990
:10311000F04116460C460546FDF74AFB036893F856
:103120000101012807D0FF2C12D8185D80B10120C1
:103130002C70BDE8F081D3F807013246214603F236
:103140000713C7182846BC46BDE8F0410023604776
:103150004FF0FF30EDE710B50446AFF30080204696
:10316000BDE81040FDF7C1B8002801D0FDF71ABB3B
:103170007047000010B5002102A000F0CBFF012035
:1031800010BD0000534947414252543A2041626EFB
:103190006F726D616C207465726D696E6174696FB8
:1031A0006E00000010B500F0CFFFBDE81040FFF743
:1031B000DBBF10B500F0E2FFBDE81040FFF7D4BF61
:1031C000B2F120030AD5C2F1200301FA02F120FA7C
:1031D00003F341EA030100FA02F0704700FA03F139
:1031E0004FF00000704730B5B0F10A0271F10003F2
:1031F0004FEA900E4EEA817EB0EB0E0061EB91013A
:103200004FEA101E4EEA017E10EB0E0041EB111149
:103210004FEA102E4EEA016E10EB0E0041EB112129
:103220004FEA104E4EEA014E10EB0E0041EB1141F9
:10323000401841F100014FEAD00040EA41704FEAE6
:10324000D1014FEA810444EA907410EB800544EB0D
:1032500001046D1944EB0404521BA3414FF0000319
:1032600048BF0A3200D530BD401C41F1000130BDDD
:1032700010B50446FDF79CFA0068005D00F00100FF
:1032800010BD2DE9F0470D4699469246044600F1DF
:1032900024080168880604D5E06921F01001216046
:1032A00000E00120A84201DD471B00E00027A169E2
:1032B0007A1902EB0900081AA0612078C00602D42E
:1032C0002046FEF701FB002608E0D4E901211AF8A8
:1032D00006009047206A401C761C20624E45F4DBB5
:1032E0002078C0060AD52046FEF7EEFA06E0D4E9BB
:1032F000012130209047206A401C2062381EA7F12F
:103300000107F4DC07E0D4E9012118F80500904733
:10331000206A401C2062281EA5F10105F3DC20462E
:10332000FEF7E8FA2078000602D50220BDE8F08713
:103330000120FBE72DE9FF4F0C461E464FF0FF37FB
:103340008BB0D2E90001DDF860800A908A46C1F3B3
:103350000A5505B93D46002108464FF00000BAF174
:10336000000F00F4400005DA00EB80004FF440014C
:1033700001EA50004FEA9059B9F1010F00DDB9465A
:103380000A9850EA4A000ED044F61050A5F2FF35D4
:1033900045432F14B8F1000F1ED07542291E1EDDC3
:1033A000C9F100021CE0B8F1010F4FF0000001D09C
:1033B000302103E0F24305E02154401CB042FBDB26
:1033C00030460022002121540B99C1F80880C1E940
:1033D00000200FB0BDE8F08FBD1B6D1CDEE74A4634
:1033E00000DA694206A800F09BFD06AB93E80700EF
:1033F00003AB83E8070050460A9919F025FA8DE8D7
:103400000700A0F500501F3800900398002D0ADD3A
:1034100042F21F014A460844002303A9039068466C
:1034200019F0D0FC09E0A0F500504A461F380023EF
:1034300003A90390684619F0EFFC8DE8070000042B
:10344000000C03D04FF0FF30410800E01046B8F107
:10345000000F03D00022009215461EE0751E05D411
:10346000FFF7C1FE303262556D1EF9D5B346012219
:10347000084302D000227F1C04E02078302801D1CC
:1034800000227F1E002A099784D01DE0112D07DA43
:10349000FFF7A9FE303262556D1C50EA0102F5D1EA
:1034A000084302D00098C8B10EE00021681E05E074
:1034B000235C625C63542254401E491C8142F7DB4A
:1034C000AB46A81B401E0990002004F80B000B9887
:1034D000099AC0F80880C0E9002B7AE711264FF05E
:1034E000000857E72DE9F04F88460446D21D22F028
:1034F000070191B0D1E90001CDE90A0119F0D8FD29
:1035000002460B98C00F01D02D2007E020688107EC
:1035100001D52B2002E0202101EAC000032A0990F6
:1035200001D0072A05DB03464146204600F056FE3F
:103530000BE12078800601D5E06900E00620B8F1B3
:10354000650F814606D0B8F1660F18D0B8F1670F45
:1035500070D131E00020B9F1110F009001DB11238F
:1035600001E009F101030AAA01A90CA8FFF7E2FE94
:10357000DDE90C70002609F10105834647E00120D2
:103580004B4600904FF000470AAA01A90CA8FFF78C
:10359000D1FEDDE90DB00C995D46002610B909F1A8
:1035A00001000D18B9EB050003D4C0F1FF3609F195
:1035B0000105A5EB09002BE0B9F1010F01DA4FF08D
:1035C00001090020B9F1110F0090484601DD1123D7
:1035D00000E003460AAA01A90CA8FFF7ABFEDDE94B
:1035E0000C704D4600268346207800070AD4AB4570
:1035F00000DA5D4601A8012D04DD411911F8011C16
:10360000302907D04F4502DA17F1040F04DA012000
:1036100082460FE06D1EEEE7002F02DCED1B3E44FC
:1036200003E0781CA84200DD7D1CB81B00F1010AF4
:103630004FF000472078000703D4AA4501DB4FF084
:10364000FF3A0021B7F1004F0DF143088DF8431008
:1036500024D002202B23002F01DA7F422D230A21C0
:10366000021EA0F1010000DC5FB197FBF1FC97FBAB
:10367000F1F201FB1C7C17460CF1300C08F801CD6F
:10368000EEE7A8F1010003702188090501D5452165
:1036900000E06521A0F1010800F8011C09980FA9BC
:1036A000A1EB0807FF1D00B10120411901EBEA70F1
:1036B000A1693844081A401EA0612078C00602D4CF
:1036C0002046FEF701F9099828B1D4E90121904775
:1036D000206A401C20622078C00622D52046FEF7D2
:1036E000F3F81EE0002E04DBB34502DD01A8805D87
:1036F00000E03020D4E901219047206A401C20627C
:10370000761CAAF101005FEA000A0AD1FEF758F818
:10371000C0680168405CD4E901219047206A401CE0
:103720002062281EA5F10105DCDC07E0D4E90121B7
:1037300018F8010B9047206A401C2062381EA7F140
:103740000107F3DC2046FEF7D5F8032011B041E66F
:103750002DE9F04F04460D46D21D22F0070089B036
:10376000D0E900974846394619F0A2FC0246F80F06
:1037700001D02D2307E02068810701D52B2302E02B
:10378000202101EAC0038DF820300BB1012000E0B8
:103790000020032A824601D0072A04DB294620465E
:1037A00000F01CFD3FE12078800601D40D2500E0EB
:1037B000E569C7F30A560D2D49DA00214FEA175B78
:1037C00008464FF00000002F00F4400007DA00EB3D
:1037D00080004FF4400100EBD07001EA60008115D9
:1037E000012901DD4FF0FF3100224FEA850CBCF1C9
:1037F000180F06D31346ACF118004FF08052C240A8
:1038000003E04FF4801323FA0CF30CF10C0CBCF121
:10381000200F04D3ACF1200C09FA0CF001E007FAF8
:103820000CF000294FF0004801DD18B90FE00ED16F
:1038300040450CD319EB02095F4121B9404502D143
:103840009F4329EA0209BBEB175F00D0761C208852
:10385000000502D57B48784402E07A48784419385C
:1038600008AA302302F80A30037C0AF10101002E75
:103870000AF1020A53546A4602DC4FF0300101E0BB
:103880004FF031014FF001088DF8001002D0A6F280
:10389000FF3603E059EA470100D06B4E002D02DCF1
:1038A0002178090704D54FF002082E218DF8011068
:1038B000C44600210BE0C7F303433F01C35C491C2E
:1038C0006D1E02F80830052908F1010801DA002D03
:1038D000F1DC00210CE000EB1973491C1B786D1E14
:1038E000082902F808304FEA091908F1010801DA3D
:1038F000002DF0DC21688B0602D516E0A8F1010846
:10390000E04505DD02EB080313F8013C302BF5D050
:10391000B8F1000F09DD02EB080313F8013C2E2B70
:1039200003D1090701D4A8F10108002D05DD3E21CE
:1039300002F808106D1E08F10108407C002E02F804
:10394000080008F1010804DA2D20764202F8080088
:1039500002E02B2002F808000A214FF47A70864218
:1039600008F101080BDB96FBF0F3303302F8083066
:1039700096FBF0F308F1010800FB136601E0642EEA
:103980000CDB642096FBF0F3303302F8083096FB32
:10399000F0F308F1010800FB136601E00A2E06DBD4
:1039A00096FBF1F0303002F8080008F1010896FBB0
:1039B000F1F001FB1060303002F80800A16908F155
:1039C000010808EB050202EB0A00081AA061207842
:1039D000C00602D42046FDF777FF216A08AE01EB4E
:1039E0000A00206204E0D4E9012116F8010B904797
:1039F000BAF1010AF7D22078C00602D52046FDF7B9
:103A000063FF6E4609E016F8010B3E280FD0D4E99B
:103A100001219047206A401C2062B8F10108F2D2CF
:103A20002046FDF767FF09B00320BDE8F08F206A4C
:103A30002844206203E0D4E90121302090476D1E24
:103A4000EBD3F8E7E6A1010002FCFFFF0A6802F8E9
:103A5000010B0A60704710B5436913B1AFF30080E2
:103A600001E0FDF76AFF012010BD127800F124018A
:103A70000A7000224A700122EDE711684FF0FF3210
:103A8000E9E710B5436913B1AFF3008001E0FDF73A
:103A9000EDFF012010BD128800F124018284002274
:103AA000C2840122EDE711684FF0FF32E9E73A28BE
:103AB00000D2303820F02002412A01D3A2F1370091
:103AC000884201D34FF0FF30704700002DE9F34FDB
:103AD0004FF0000A0C4656468DB001200C9001F1C3
:103AE0000C000B9062690B9801219047051E2DD0A8
:103AF000252D2CD0216A8847C0B162690B9801211D
:103B00009047216A88470028F7D16269411E0B98C7
:103B1000904700E0761CA1690D988847216A884784
:103B20000028F7D1E1690D988847DBE7A1690D9876
:103B30008847A842074601D1761CD3E7E1690D9872
:103B400088477F1C02D1BAF1000F6FD06BE1626928
:103B50000B9800273D46394690472A2804D16269D0
:103B60000B98012190470125DFF8D08262690B98FC
:103B700001219047A0F130010A290AD24745E5DC2E
:103B800007EB870100EB4107303FDFD445F010051C
:103B9000ECE7E90601D46FF000476C280AD04C2806
:103BA00014D0682815D06A280DD074281CD07A2823
:103BB0001AD01DE062690B98012190476C2802D051
:103BC00045F0040514E045F002050DE045F0200540
:103BD0000AE062690B9801219047682802D045F0FD
:103BE000080505E045F4006562690B9801219047DE
:103BF000C4E9015765283DD019DC58287AD00CDC7F
:103C0000452837D004DC252826D041289ED131E034
:103C100046282FD0472899D12CE05B2877D06128FF
:103C200028D063287CD0642823D15AE0F6E06F289E
:103C300048D008DC66281DD067281BD0692821D011
:103C40006E2816D127E0702845D0732868D07528D3
:103C500047D078280DD14DE0A1690D9888472528D7
:103C600005463FF469AFE1690D9888476D1C3FF444
:103C70006AAFD8E00D9923466A466FF0010019F04B
:103C800090FEC5E045F0400023464FF00002606022
:103C9000A80736D43EE0E8077FF447AF2068011D4F
:103CA00021600068290501D506701BE7290701D5A9
:103CB000068017E7A90703D5F117C0E9006111E7EE
:103CC00006600FE745F0400023464FF008026060B1
:103CD000A80716D41EE040F60E0125EA0100606038
:103CE00016E045F0400023464FF00A026060A80746
:103CF00007D40FE045F040006060A80708D52346D0
:103D000010220D996FF00100FEF792F880E007E0B5
:103D1000102223460D996FF00100FEF734F977E089
:103D20004FF0000963284F46C8464B46CB4602D0A9
:103D30005B2806D038E0E80601D40120A060012706
:103D400032E06269D4F80CB00B98012190475E28EC
:103D500007D14FF0010949466269D4F80CB00B98BD
:103D60009047216939B900210A4603AB43F8212065
:103D7000491C0829FADBD8B3216949B308F10108C5
:103D800062690B98012190475D28F4D1B9F1000FC9
:103D900009D0002003A951F82020D24341F8202067
:103DA000401C0828F7DB03AB2069002820794FEA84
:103DB00040701ED05B462246CDF80080CDE90197C9
:103DC0000D9900286FF0010020DAFEF785FE1FE054
:103DD000C11703AA00EBD1614B1121F01F0102EBC7
:103DE0008302411A13680120884003431360C7E728
:103DF00019E00D99224600286FF00100009702DAC1
:103E0000FEF76CFD04E0FEF764F901E0FEF7F0FD5B
:103E100000280ADA401C06D10C9820B14FF0FF3080
:103E20000FB0BDE8F08F5046FAE7E90701D10AF17B
:103E3000010A064400200C9054E60000CCCCCC0CC7
:103E40002DE9F74F4FF000091546CA46009C14F8BB
:103E5000010B302801D0ADB115E014F8010B4FF083
:103E60000109782803D0582801D04DB10BE00DB1DD
:103E7000102D08D14FF0000914F8010B102502E0B5
:103E8000082500E00A2500274FEAE57B3E46B846B4
:103E900016E0A5FB07234FF0010905FB08000BFB0B
:103EA0000731030C05FB0616D7181FFA80F846F1F8
:103EB0000006381E76F5803000D3CA4614F8010B90
:103EC0002946FFF7F4FD0028E3DA019838B1B9F18B
:103ED000000F01D0641E00E0009C01980460BAF15C
:103EE000000F08D0FCF774FC02210160C81E0146D7
:103EF00003B0BDE8F08F310441EA174148EA0740BA
:103F0000F6E710B508E030F8024B9C4204D10AB144
:103F1000002010BD012010BD491EF4D2104610BD76
:103F20002DE9F047814616468AB0354878440DC8D9
:103F30008DE80D0032487844801C03AC0DC884E83D
:103F40000D0041F69B300844372190FBF1F290FBC5
:103F5000F1F5A5F1800501FB12041B3C02D564427A
:103F6000012000E00020DFF898A080460027FA44F6
:103F7000AAF1BE0A0EE0E0070AD03246684607EB17
:103F8000470101230AEB810118F046FF8DE8070085
:103F900064107F1C002CEED1194F7F44AE3F19E016
:103FA000E80715D007EB04100DF1180A90E80E0091
:103FB0008AE80E00C068F04201D198190890324694
:103FC000012306A903A818F027FF03AB83E8070025
:103FD0006D10641C002DE3D14FF001033246694699
:103FE000B8F1000F03A802D018F0ECFE01E018F0C1
:103FF00013FFC9E90001C9F808200AB0BDE8F0873D
:10400000A09B01002DE9FF5F8B461C468246029D66
:1040100005FB0BF5E5B1D4F8088057464FF00009D1
:10402000B8F1000044DCE069A84227D2B9F1000FE2
:1040300024D0224629463846A669FCF7C1FD58B16E
:10404000C4F80880A069801B3844A0EB0A0129E06D
:10405000002004B0BDE8F09FE16811F4C06F01D00A
:10406000002008E022696068801AE269101AC9031A
:10407000A06001D44042A0600298EAE7A84201D2C1
:10408000012200E0002221463878FEF7B2FE411CF2
:1040900006D0D4F80880002807DB6D1E7F1C17E0CF
:1040A000A7EB0A01B1FBFBF0D3E74FF001090FE0EA
:1040B000A842064600D92E46394632466068FCF7CB
:1040C000B8F96068AD1BA8EB06083044374460605F
:1040D000002DA5D1C4F80880CEE7000070B50546D4
:1040E00040F202260A4C0FE094F85000C00708D0B6
:1040F000AC4206D0E06836EA000002D12046FCF768
:10410000D7FA206D20F00104002CEDD170BD000025
:104110001801002070B505460C460A2000E06D1C11
:1041200000F054F835B128780028F8D102E0641C7A
:1041300000F04CF814B120780028F8D1BDE87040A8
:104140000A2000F043B8000010B5014602A0FFF7B6
:10415000E1FF012010BD000053494752545245442D
:104160003A2052656469726563743A2063616E2710
:1041700074206F70656E3A200000000010B50128B1
:1041800005D0002103A0FFF7C5FF012010BD09A144
:10419000F8E7000053494752544D454D3A204F75BA
:1041A00074206F662068656170206D656D6F72792F
:1041B000000000003A2048656170206D656D6F72E7
:1041C0007920636F727275707465640008B5694612
:1041D0008DF800000320ABBE08BD00002DE9F041C2
:1041E0001F46044603260168072A01F4006004DB29
:1041F00008B116A505E016A503E008B115A500E075
:1042000015A521F010002060A069C01EA0610FB1AB
:10421000401EA0612046FDF757FB4FB1D4E90121B4
:1042200038469047206A401C2062C01C206206E08D
:10423000206AFAE7D4E9012115F8010B9047761EB0
:10424000F8D22046FDF756FBBDE8F0814E414E0006
:104250006E616E00494E4600696E66002DE9FF4FA3
:104260001F464FF03C0987B04FF00042DDE91410C3
:1042700001F10108DDF858A002EA40500390002047
:1042800005908346054604460490B969461E089881
:104290008847AAF1010A0290BAF1000F3BDD0298AB
:1042A0002E2815D01021FFF702FC00282EDB4FF03E
:1042B000010B0599014317D0B9F1000F0BDB4A46FA
:1042C000C117FEF77DFF05430C43A9F1040905E082
:1042D000012004900BE008B145F001050120059094
:1042E000049820B9361D02E0049800B1361FB96960
:1042F000089808F101088847BBF1000FAAF1010AEC
:104300000290C9D00999C1F80080C5E702987028C9
:1043100008D0502806D0F96908988847BBF1000FEB
:1043200014D04FE0002002900120BBF1000F049058
:1043300009D0B969089808F101088847AAF101096C
:10434000B9F1000F07DCF969089888476FF00100A0
:104350000BB0BDE8F08F2B2804D02D280CD14FF0E6
:10436000FF300490B969089808F101088847A9F15D
:104370000109B9F1000FE6DD411CE4D00A21FFF785
:1043800096FB0028DFDB029908F1010801EB8101AF
:1043900000EB41000290B969089888470A21FFF7AD
:1043A00086FB099AA9F10109B9F1000FC2F8008052
:1043B00001DD0028E7DAF96908988847049902982E
:1043C00000FB016655EA040004D004F040410900F6
:1043D00002D006E0039898E0A40044EA9574AD008A
:1043E000B61E04F00041080002D16D196441761E2A
:1043F000159810F0240F03D04FF00B095C4803E030
:104400004FF028096FF07D008246564507DAAAEB87
:1044100006018944B9F1410F01DD4FF04109012046
:104420000021A9F10102FEF7CBFE024628400B460F
:104430002140084301D0012100E00021501E0291DB
:1044400043F1FF3128402140084301D0012000E022
:1044500000200299834651EA0B014FD00021084603
:104460004FF00000039900F4400039B100EB8000E8
:104470004FF4400100EBD07001EA60008015012884
:1044800002DD4FF0FF3000E013D0401C36D0029820
:1044900060B3BBF1000F0CD14A4601200021FEF7AA
:1044A0008FFE28402140084301D0012000E0002079
:1044B000E0B101204A460021FEF782FE0346401982
:1044C0000A4661412D1A8C4111D3B9F1400F09DD23
:1044D000159810F0240F02D0AAF1340603E0AAF1D7
:1044E000170600E0761C00254FF0004406E05B1E36
:1044F00042F1FF3220EA030521EA0204CAF1010079
:10450000B04206DA1B49039808430190002000904E
:104510000EE0039AC4F3D321E80A0A43164940EA9D
:1045200044500A433146CDE90002684618F0E5FEE2
:10453000159810F0240F0BD01598C00715D13868C6
:10454000DDE90012031D3B600068C0E900120CE0C9
:1045500002A8694618F0C8FE1598C00705D138684A
:10456000029A011D3960006802604046F0E60000D2
:1045700002FCFFFF0000F07F0000F03F2DE9FF4F3D
:1045800092461D4685B04FF00041DDE9124BDDE952
:1045900014727F1E01EA4B50414940F0FF4940EA46
:1045A0000108002122F020004928049102D04E2861
:1045B00028D04CE03BA0012607C88DE80700A96978
:1045C0000698641C88477F1E014606D41DF8060025
:1045D00018B121F0200181420BD0E9690698884783
:1045E000032E34D0082E32D06FF0010009B0BDE8A0
:1045F000F08F761C032E01D0082EE0D1601CCAF883
:104600000000DCE7A9690698641C88477F1E2AD44D
:1046100020F02000412826D1A9690698641C88470B
:104620007F1E20D420F020004E281CD1A9690698B6
:10463000641C88477F1E48F4002849F48009CAF8A2
:10464000004001D4282806D0E969069888475FEA27
:10465000CB7012D022E0A9690698641C88477F1E9F
:1046600001D4002803DAE96906988847BCE72928BD
:10467000F1D1641CCAF80040E9E71BF0240F07D011
:1046800028680499031D2B600068C0E9001805E044
:104690002868021D2A600068C0F800902046A5E73F
:1046A0000000F07F494E46494E4954590000000031
:1046B000FFE7FEE780B541F20430C2F2000000F0EF
:1046C000F7FB80BD80B541F22C30C2F2000000F053
:1046D000EFFB80BD80B541F23840C2F2000001F02E
:1046E00013F980BD80B541F21860C2F2000001F0FC
:1046F0000BF980BD80B541F27830C2F2000001F0C4
:1047000003F980BD80B541F27860C2F2000001F08B
:10471000FBF880BD80B541F2D830C2F2000001F054
:10472000F3F880BD80B541F2B850C2F2000001F04C
:10473000EBF880BD80B541F29840C2F2000001F074
:10474000E3F880BD80B541F2D860C2F2000001F00C
:10475000DBF880BD80B541F2F840C2F2000001F004
:10476000D3F880BD80B541F23870C2F2000001F08C
:10477000CBF880BD80B541F25850C2F2000001F084
:10478000C3F880BD82B001900198007810384AF6D5
:10479000AB21CAF6AA21A0FB0110000900900099E4
:1047A0004DF69230C0F60100405C0199C865009852
:1047B000042807D3FFE701990868042262F309007F
:1047C000886506E00199086840F2FF3290438865E9
:1047D000FFE70198806D02B07047000086B0059039
:1047E00000208DF813000598806A03900598806971
:1047F00010BBFFE70398029003281BD80299DFE85B
:1048000001F0020D0218059890F82F00C00720B1A2
:10481000FFE701208DF81300FFE70CE00598C06A60
:10482000B0F1C07F04D1FFE701208DF81300FFE74E
:1048300001E000E0FFE745E005988069B0F5005F22
:1048400025D1FFE70398019003281ED80199DFE8DE
:1048500001F00206021101208DF8130016E0059800
:1048600090F82F00C00720B1FFE701208DF813005A
:10487000FFE70BE00598C06AB0F1C07F04D1FFE705
:1048800001208DF81300FFE700E0FFE719E003982F
:104890000090032804D3FFE70098032804D00EE01B
:1048A00001208DF813000BE0059890F82F00C00749
:1048B00020B1FFE701208DF81300FFE700E0FFE7DC
:1048C000FFE7FFE79DF8130006B070477047000050
:1048D00081B0EFF3108072B60090FFE7FEE70000B2
:1048E00084B002900191029890F820008DF80300A6
:1048F0009DF80300012805D0FFE79DF8030002287A
:104900000AD1FFE7019A029801684869104348619B
:1049100000208DF80F0008E00299486A40F48020DA
:10492000486201208DF80F00FFE79DF80F0004B0EA
:104930007047000088B00690059104920393069892
:1049400090F820008DF807000698006880680090B5
:104950000598806808B9FFE700E0FFE79DF80700C9
:10496000012806D0FFE79DF80700022840F08D805F
:10497000FFE79DF80300400700280CD4FFE79DF8EF
:1049800003000007002806D4FFE79DF80300C006D7
:10499000002871D5FFE70098C0F3016002900298EB
:1049A000032809D3FFE70699486A40F400004862EB
:1049B00001208DF81F0071E00299012088400399C1
:1049C00008600598806868B9FFE705980168C068C5
:1049D00040EA415006990968029A01EB0211C1F8B8
:1049E00080010EE005994A688868C96840EAC200FB
:1049F000084306990968029A01EB0211C1F8800187
:104A0000FFE70598006906990968029A01EB02110F
:104A1000C1F884010598007D01280CD1FFE70698B4
:104A20000068029900EB0111D1F8840140F4807014
:104A3000C1F88401FFE70498406806990968029A62
:104A400001EB0211C1F88C0104980068069909680D
:104A5000029A01EB0211C1F88801069800680299D8
:104A600000EB0111D1F8800140F00100C1F8800194
:104A700000208DF81F0011E00699486A40F40010EC
:104A8000486201208DF81F0008E00699486A40F44A
:104A90008020486201208DF81F00FFE79DF81F006D
:104AA00008B0704786B004900391049800680190A4
:104AB000049890F820008DF803009DF80300012869
:104AC00006D0FFE79DF80300022840F0B080FFE722
:104AD00046F20040C4F2000001900199D1F80002B2
:104AE00040F00100C1F800020199D1F8000220F461
:104AF0007C50C1F800020398426A0199D1F8000283
:104B000040EA0220C1F800020398406900F01F014A
:104B1000012088400290029A0199D1F81C0290432A
:104B2000C1F81C020398C069F0B9FFE7029A019925
:104B3000D1F80C029043C1F80C02039A9088D16816
:104B4000526940EA0140019901EBC201C1F84002FB
:104B5000039A10889168526940EA0140019901EB7B
:104B6000C201C1F84402FFE70398C06901281ED1C1
:104B7000FFE7029A0199D1F80C021043C1F80C0228
:104B8000039A90881168526940EA0140019901EB4B
:104B9000C201C1F84002039A90899168526940EAC3
:104BA0000140019901EBC201C1F84402FFE70398FB
:104BB000806940B9FFE7029A0199D1F80402904355
:104BC000C1F8040207E0029A0199D1F804021043E7
:104BD000C1F80402FFE70398006940B9FFE7029AB1
:104BE0000199D1F814029043C1F8140207E0029A27
:104BF0000199D1F814021043C1F81402FFE7039899
:104C0000006A012808D1FFE7029A0199D1F81C0235
:104C10001043C1F81C02FFE70199D1F8000220F00F
:104C20000100C1F8000200208DF8170008E0049987
:104C3000486A40F48020486201208DF81700FFE7A1
:104C40009DF8170006B0704781B0009001B0704722
:104C500086B00490039102920193049890F820008A
:104C60008DF803009DF80300012806D0FFE79DF8AA
:104C70000300022840F0D780FFE7039880B9FFE7E0
:104C800004980068C068800748B9FFE70499486A3B
:104C900040F40010486201208DF81700CCE00FE0CE
:104CA000049800680069800748B9FFE70499486ADA
:104CB00040F40010486201208DF81700BCE0FFE7C7
:104CC00004980068039900EB0110D0F8B00100F0DF
:104CD0000400029988600298806858B9FFE7049838
:104CE0000068039900EB0110D0F8B001400D029963
:104CF00008600AE004980068039900EB0110D0F8FE
:104D0000B001C00802994860FFE704980068039961
:104D100000EB0110D0F8B00100F002000299C86069
:104D200004980068039900EB0110D0F8B40100F07A
:104D30000F000299086104980068039900EB0110C4
:104D4000D0F8B40180B2000A029988610498006822
:104D5000039900EB0110D0F8B401000C02994861EE
:104D600004980068039900EB0110D0F8B80101998C
:104D7000087004980068039900EB0110D0F8B8019E
:104D8000000A0199487004980068039900EB01102B
:104D9000D0F8B801000C0199887004980068039954
:104DA00000EB0110D0F8B801000E0199C87004980A
:104DB0000068039900EB0110D0F8BC01019908715B
:104DC00004980068039900EB0110D0F8BC01000AB8
:104DD0000199487104980068039900EB0110D0F81C
:104DE000BC01000C0199887104980068039900EBDC
:104DF0000110D0F8BC01000E0199C871039838B9B0
:104E0000FFE704980168C86840F02000C86006E029
:104E100004980168086940F020000861FFE700205D
:104E20008DF8170008E00499486A40F48020486231
:104E300001208DF81700FFE79DF8170006B07047B6
:104E400083B0029000200190029890F820008DF825
:104E500003009DF80300012805D0FFE79DF803003B
:104E6000022822D1FFE702980068806840010028EC
:104E700004D5FFE7019801300190FFE70298006830
:104E800080680001002804D5FFE7019801300190F7
:104E9000FFE7029800688068C000002804D5FFE79B
:104EA000019801300190FFE7FFE7019803B07047D8
:104EB00080B58AB009900020089009980068406980
:104EC0000790099800684068069009980068806813
:104ED000059009980068C068049009980068006906
:104EE000039009980068806902909DF81C00C00733
:104EF000002800F09480FFE79DF81400C00758B325
:104F0000FFE709980168012088609DF81400800778
:104F1000002804D5FFE7099800F046FC1BE09DF847
:104F200014004007002805D5FFE7089840F400600A
:104F300008900FE09DF814000007002805D5FFE752
:104F4000089840F48050089003E0099800F028FC8D
:104F5000FFE7FFE7FFE7FFE79DF81500C00760B335
:104F6000FFE7099801684FF4807088609DF815008C
:104F70008007002804D5FFE7099800F01DFC1BE01E
:104F80009DF815004007002805D5FFE7089840F474
:104F9000005008900FE09DF815000007002805D587
:104FA000FFE7089840F48040089003E0099800F07B
:104FB000FFFBFFE7FFE7FFE7FFE79DF81600C007ED
:104FC00060B3FFE7099801684FF4803088609DF86E
:104FD00016008007002804D5FFE7099800F0F4FBCD
:104FE0001BE09DF816004007002805D5FFE708984C
:104FF00040F4004008900FE09DF8160000070028DC
:1050000005D5FFE7089840F48030089003E0099840
:1050100000F0D6FBFFE7FFE7FFE7FFE7FFE79DF8BC
:105020001C000007002810D5FFE79DF81000C006FF
:10503000002809D5FFE7089840F400700890099807
:1050400001681020C860FFE7FFE79DF81C004007DB
:1050500000280FD5FFE79DF810000007002808D5AD
:10506000FFE7099801680820C860099800F0CCFAA9
:10507000FFE7FFE79DF81C00800700280BD5FFE73E
:1050800009980068C068800720B1FFE7099800F020
:10509000BFFAFFE7FFE79DF81C004006002810D587
:1050A000FFE79DF80C00C006002809D5FFE7089827
:1050B00040F4806008900998016810200861FFE7BB
:1050C000FFE79DF81C00800600280FD5FFE79DF83C
:1050D0000C000007002808D5FFE7099801680820A0
:1050E0000861099800F00AFBFFE7FFE79DF81C0044
:1050F000C00600280BD5FFE7099800680069800703
:1051000020B1FFE7099800F0FDFAFFE7FFE79DF8FF
:105110001E00800700280FD5FFE79DF81800C00685
:10512000002808D5FFE70998016810204860099811
:1051300000F0ECFAFFE7FFE79DF81E00C00778B12A
:10514000FFE79DF818000007002808D5FFE7099839
:10515000016808204860099800F03AFBFFE7FFE784
:105160009DF81D000006002840F18D80FFE79DF8A6
:1051700018004007002840F18180FFE79DF81D00DE
:10518000C00750B1FFE79DF80800C00728B1FFE74E
:10519000089840F001000890FFE79DF81D00800787
:1051A00000280BD5FFE79DF808008007002805D5EB
:1051B000FFE7089840F002000890FFE79DF81D0007
:1051C000400700280BD5FFE79DF80800400700289E
:1051D00005D5FFE7089840F004000890FFE79DF828
:1051E0001D000007002848D5FFE79DF8080010F0D3
:1051F000700F42D0FFE7029800F070000146019165
:10520000102814D0FFE70198202815D0FFE7019857
:10521000302816D0FFE70198402817D0FFE7019803
:10522000502818D0FFE70198602819D01DE0089891
:1052300040F00800089019E0089840F0100008902D
:1052400014E0089840F0200008900FE0089840F023
:10525000400008900AE0089840F08000089005E0BF
:10526000089840F48070089000E0FFE70998016812
:10527000886920F070008861FFE7FFE709980168FE
:1052800004204860FFE7089848B1FFE7089A0999A9
:10529000486A104348620998FFF7D6FCFFE70AB056
:1052A00080BD000080B584B00290029820B9FFE76D
:1052B00001208DF80F00E0E0029890F8200020B95E
:1052C000FFE7029800F0DEF8FFE70298016808683F
:1052D00040F00100086000F075FF0190FFE70298C0
:1052E00000684068C007A8B9FFE700F06BFF0199AC
:1052F000401A0B280DD3FFE70299486A40F40030AA
:1053000048620299052081F8200001208DF80F00E5
:10531000B3E0E4E702980168086820F00200086042
:1053200000F050FF0190FFE7029800684068800796
:10533000002815D5FFE700F045FF0199401A0B281A
:105340000DD3FFE70299486A40F4003048620299A1
:10535000052081F8200001208DF80F008DE0E3E7A3
:105360000298007E012807D1FFE7029801680868CB
:1053700040F08000086006E002980168086820F0AC
:1053800080000860FFE70298407E012807D1FFE710
:1053900002980168086840F04000086006E0029842
:1053A0000168086820F040000860FFE70298807EEE
:1053B000012807D1FFE702980168086840F0200043
:1053C000086006E002980168086820F02000086084
:1053D000FFE70298C07E012807D1FFE70298016825
:1053E000086820F01000086006E00298016808686C
:1053F00040F010000860FFE70298007F012807D105
:10540000FFE702980168086840F00800086006E0BD
:1054100002980168086820F008000860FFE7029819
:10542000407F012807D1FFE702980168086840F033
:105430000400086006E002980168086820F0040093
:105440000860FFE7029B19685A689868D3F80CC097
:1054500040EA0C00D3F810C040EA0C005B69184326
:10546000013A1043C861029900204862029A012162
:1054700082F820108DF80F00FFE79DF80F0004B0B0
:1054800080BD000080B590B00F9000200E900D9070
:105490000C900B900A900F98006846F20041C4F2FD
:1054A0000001884249D1FFE740F27820C2F20000B3
:1054B0000168013101600068012812D1FFE7FFE7B0
:1054C0000020099043F64000C4F20200016841F058
:1054D00000710160006800F0007009900998FFE712
:1054E000FFE7FFE70020089043F63000C4F2020017
:1054F000016841F008010160006800F008000890B0
:105500000898FFE703200A9002210B9100210391E4
:105510000C910D9009200E9040F60040C4F202005C
:105520000AA900F05BFC039A14200490052100F006
:1055300025FF049800F018FF64E00F98006846F615
:105540000001C4F2000188425BD1FFE7FFE70020C1
:10555000079043F64000C4F20200016841F0806108
:105560000160006800F0806007900798FFE740F254
:105570007820C2F200000168013101600068012852
:1055800012D1FFE7FFE70020069043F64000C4F287
:105590000200016841F000710160006800F00070D5
:1055A00006900698FFE7FFE7FFE70020059043F627
:1055B0003000C4F20200016841F00201016000689D
:1055C00000F0020005900598FFE760200A90022095
:1055D0000B90002001900C9003200D9009200E905C
:1055E00040F20040C4F202000AA900F0F7FB019A61
:1055F00040200290052100F0C1FE029800F0B4FEA8
:10560000FFE7FFE710B080BD81B0009001B07047A8
:1056100080B586B00590059841F25432C2F200027E
:1056200002F11C0300210391FFF712FB0398049081
:10563000FFE7049840F2B061C2F2000109788842A5
:1056400059D2FFE7049941F2A020C2F20000029073
:1056500050F8210041F25431C2F200011C3104F033
:10566000F3FE0298049950F8210004F0E7FE059932
:1056700088423BD1FFE7049941F2A020C2F200002A
:1056800050F8210004F06EFF41F25431C2F20001E3
:10569000096888422AD1FFE7049941F2A020C2F2AA
:1056A000000050F82100006CF8B1FFE7049941F2C6
:1056B000A020C2F20000019050F8210041F25431C4
:1056C000C2F200010091096904F0D2FE009901982C
:1056D000049A50F822001C3104F0B6FE0198049997
:1056E00050F82100016C8847FFE704E0FFE70498C9
:1056F000013004909DE706B080BD000081B00090AD
:1057000001B0704781B0009001B0704781B0009047
:1057100001B0704780B584B00290029890F82000E4
:1057200001282FD1FFE70299022081F8200002987A
:105730000168086820F00100086000F043FD019056
:10574000FFE7029800684068C007A8B1FFE700F0D3
:1057500039FD0199401A0B280DD3FFE70299486AD9
:1057600040F4003048620299052081F820000120B1
:105770008DF80F000FE0E4E70299002048628DF8F1
:105780000F0008E00299486A40F4002048620120B6
:105790008DF80F00FFE79DF80F0004B080BD0000FA
:1057A00081B0009001B0704781B0009001B07047A7
:1057B00081B0009001B0704781B0009001B0704797
:1057C00081B0009001B0704781B0009001B0704787
:1057D00081B0009001B0704780B584B0029002980B
:1057E000806D019000F0EEFC0090029890F835007A
:1057F00002280DD0FFE7029980204865FFE7029953
:10580000002081F83400FFE701208DF80F0055E0FB
:1058100002980168086820F0160008600298016884
:10582000486920F0800048610298006C20B9FFE7C9
:105830000298806C38B1FFE702980168086820F090
:1058400008000860FFE702980168086820F001007E
:105850000860FFE7029800680068C007C8B1FFE76A
:1058600000F0B0FC0099401A062811D3FFE7029916
:10587000202048650299032081F83500FFE702994E
:10588000002081F83400FFE703208DF80F0015E0B9
:10589000E0E70298C16D3F20884001998860029935
:1058A000012081F83500FFE70299002081F83400DB
:1058B000FFE7FFE700208DF80F00FFE79DF80F00DE
:1058C00004B080BD82B00090009890F835000228A6
:1058D00007D0FFE700998020486501208DF8070078
:1058E0000EE00099052081F83500009801680868ED
:1058F00020F001000860FFE700208DF80700FFE7B7
:105900009DF8070002B0704780B586B00590002072
:10591000039040F2D400C2F20000006848F2B511D2
:10592000C1F64E31A0FB0110800A02900598806DEF
:10593000019001980068049004980599C96DC840C9
:10594000000700281AD5FFE705980068006840079F
:10595000002812D5FFE705980168086820F00400C8
:1059600008600598C16D08208840019988600599F4
:10597000486D40F001004865FFE7FFE7049805998E
:10598000C96DC840C007A0B1FFE70598006840692D
:10599000000600280CD5FFE70598C16D012088405E
:1059A000019988600599486D40F002004865FFE75D
:1059B000FFE704980599C96DC8404007002814D531
:1059C000FFE7059800680068800700280CD5FFE70E
:1059D0000598C16D04208840019988600599486D3B
:1059E00040F004004865FFE7FFE704980599C96D9A
:1059F000C840C006002847D5FFE705980068006842
:105A0000000700283FD5FFE70598C16D10208840AA
:105A100001998860059800680068400300281AD53D
:105A2000FFE70598006800680003002809D4FFE735
:105A30000598006C20B1FFE70598016C8847FFE7E7
:105A400008E00598806C20B1FFE70598816C8847D5
:105A5000FFE7FFE716E0059800680068C00500282A
:105A600007D4FFE705980168086820F0080008607F
:105A7000FFE70598006C20B1FFE70598016C8847A7
:105A8000FFE7FFE7FFE7FFE704980599C96DC84006
:105A90008006002840F18D80FFE7059800680068C7
:105AA000C006002840F18480FFE70598C16D2020E2
:105AB000884001998860059890F83500052834D110
:105AC000FFE705980168086820F01600086005984F
:105AD0000168486920F0800048610598006C20B991
