:020000040800F2
:10000000C8630020F9020008C9860008BD80000806
:10001000C5860008AD4F00082991000800000000C7
:1000200000000000000000000000000081880008BF
:100030007153000800000000D1860008D188000834
:100040001303000813030008130300081303000838
:100050001303000813030008130300081303000828
:10006000130300081303000813030008ED520008EF
:10007000F952000805530008115300081D530008E9
:100080002953000813030008130300081303000892
:10009000F14F0008130300081303000813030008BE
:1000A00013030008130300081303000813030008D8
:1000B000C98900081303000813030008130300088C
:1000C00013030008130300081303000813030008B8
:1000D00013030008C98C0008618D00086D8F0008AB
:1000E0001303000813030008130300081303000898
:1000F0001303000813030008130300083553000816
:100100001303000813030008130300081303000877
:10011000F98A0008058B0008130300081303000880
:1001200013030008415300084D530008130300084F
:100130001303000813030008130300081303000847
:100140003D500008130300081303000813030008C0
:1001500013030008595300086553000891900008E4
:100160001303000813030008130300081303000817
:100170001303000813030008130300080000000025
:10018000130300081303000800F002F800F0A4F8BD
:100190000AA090E8000C82448344AAF10107DA45E2
:1001A00001D100F099F8AFF2090EBAE80F0013F090
:1001B000010F18BFFB1A43F001031847A0280200E3
:1001C000C0280200103A24BF78C878C1FAD8520774
:1001D00024BF30C830C144BF04680C6070470000C1
:1001E0000023002400250026103A28BF78C1FBD840
:1001F000520728BF30C148BF0B6070476E2901F01D
:100200002184702901F0658566291EF03B806529EF
:100210001EF0388067291EF0358061291EF0348079
:1002200003681B0A28BF41F08001692901F0CE83D1
:10023000642901F0CB83752901F0C8836F2901F08F
:10024000F384782901F03185E92901F08D84E429CE
:1002500001F08A84F52901F08784EF2901F0F08408
:10026000F82901F030850368DB0928BF41F08001DF
:10027000632903F01C84732903F02184E32903F02C
:100280002C84F32903F03184002070471FB51DF042
:10029000E4FF9DE8030000F0FDFA01F0B1FA04006C
:1002A000002000211DF034FD401C60600020002172
:1002B0001DF05AFDE060002000211DF03FFD20618F
:1002C00000F03EFD00F0A6F91FBD10B5002000F0C3
:1002D000A1FF00F09EFD10BD01F06CFA1146FFF782
:1002E000D5FF1BF0DFFB02F056FF03B4FFF7EDFF75
:1002F00003BC00F0A1F90000094880470948004705
:10030000FEE7FEE7FEE7FEE7FEE7FEE7FEE7FEE7C5
:10031000FEE7FEE704480549054A064B7047000022
:10032000B589000889010008C85D0020C863002065
:10033000C85F0020C85F002053EA020C00F069800B
:100340002DE9F04B4FF00006002B1FBFB3FA83F5E9
:1003500003FA05F424FA05F65E4012BF1643B2FA1A
:1003600082F502FA05F4C5F120051EBF22FA05FC4C
:1003700044EA0C04203556EA044C4FEA144418BFF2
:10038000641C4FF000084FF00009904271EB030C21
:1003900039D3002919BFB1FA81F701FA07F6B0FA8B
:1003A00080F700FA07F6C7F120071EBF20FA07FC06
:1003B00046EA0C062037B6FBF4FCA7EB0507103F16
:1003C00007F01F0BCBF120062CFA06F60CFA0BFBFC
:1003D00044BFB3460026202FA4BF5E464FF0000B5B
:1003E0005BEA060C08BF4FF0010B19EB0B0948EB59
:1003F0000608ABFB027C06FB02CC0BFB03CCC01B4C
:1004000071EB0C01C1E70B46024641464846BDE888
:10041000F08B13B5084318BF4FF0FF300146AFF320
:100420000080BDE81C40704710B5002000F0DBF9EB
:10043000FFF74BFFBDE81040012000F0FDB80B4670
:100440000146184600F0B8B9032A40F2308010F097
:10045000030C00F0158011F8013BBCF1020F62445F
:1004600098BF11F801CB00F8013B38BF11F8013BF0
:10047000A2F1040298BF00F801CB38BF00F8013B9D
:1004800011F0030300F02580083AC0F0088051F80D
:10049000043B083A51F804CBA0E80810F5E7121D18
:1004A0005CBF51F8043B40F8043BAFF30080D20737
:1004B00024BF11F8013B11F801CB48BF11F8012B03
:1004C00024BF00F8013B00F801CB48BF00F8012B26
:1004D000704710B5203AC0F00B80B1E81850A0E882
:1004E0001850B1E81850A0E81850203ABFF4F5AF02
:1004F0005FEA027C24BFB1E81850A0E8185044BF5E
:1005000018C918C0BDE810405FEA827C24BF51F8CA
:10051000043B40F8043B08BF7047D20728BF31F8BE
:10052000023B48BF11F8012B28BF20F8023B48BF0F
:1005300000F8012B7047431A28BF9A427FF6C9AFD3
:100540001044114410F0030F1EBF11F8013D521E5C
:1005500000F8013D10F0030F7FF4F6AF103AC0F041
:100560000A8010B531E9185020E91850103ABFF44C
:10057000F9AFBDE81040530724BF31E9081020E966
:10058000081044BF51F8043D40F8043D12F0030F39
:1005900008BF7047D20728BF31F8023D48BF11F8A5
:1005A000012C28BF20F8023D48BF00F8012C7047FD
:1005B00002F0FF0343EA032242EA024200F01CB9C0
:1005C0004FF0000200B5134694469646203922BFEC
:1005D000A0E80C50A0E80C50B1F12001BFF4F7AF37
:1005E000090728BFA0E80C5048BF0CC05DF804EB19
:1005F000890028BF40F8042B08BF704748BF20F887
:10060000022B11F0804F18BF00F8012B7047704784
:100610007047704770B5064C7C44064D7D4404E03D
:100620002046016808448047241DAC42F8D170BDC3
:100630001C2702003C27020001491820ABBEFEE740
:100640002600020070B5064600F000F9056806F1C4
:100650000B0020F00704B4429CBF002070BD2B4665
:100660006A68BAB11068A04210D304F10801884248
:100670003CBF5068586007D3516810194160116839
:10068000091B016058601460101D70BD134652684C
:10069000002AE7D12146284600F0E8F80028DED1FC
:1006A00070BD70B50446051F00F0D0F80068002C3E
:1006B00014BF446870BD002C18BFAC423CBF20463C
:1006C0006468F8D301680A18AA4218BF456003D1CC
:1006D0002A6805461144016028684119A1421CBFDF
:1006E0006C6070BD6168696021680844286070BDF5
:1006F00010B500F0B3F8006810BD10B5044600F066
:10070000ADF8046010BD000070B50446C0688107F4
:1007100013D0800601D5A56A04E0A1696068084489
:100720002169451A204600F0C7FA002206462946EC
:10073000204600F0E3F9304670BD002070BD70B572
:1007400010B1BDE87040DFE70025074C6E1E07E0E2
:100750002046FFF7D9FF00B13546206D20F0010497
:10076000002CF5D1284670BDD80000201DF03ABA03
:10077000CA68431C0FD00D4B1A420CD1D3070AD0C4
:1007800081F825004B680B6300238B6012F0C06F6B
:100790000B6003D004E04FF0FF30704742F000726E
:1007A000034B1A40034B1A43CA607047802008006D
:1007B000BFFFDFFF001048002DE9F0410746154656
:1007C0000E461020FFF73EFF04000AD06760C4E920
:1007D000026500F03FF80168216004600020BDE878
:1007E000F0810120FBE710B500F03AFDBDE81040B4
:1007F00000F031BD4FF000020429C0F0128010F06B
:10080000030C3FF4DFAECCF1040CBCF1020F18BFB7
:1008100000F8012BA8BF20F8022BA1EB0C01FFF779
:10082000D1BE5FEAC17C24BF00F8012B00F8012B88
:1008300048BF00F8012B70477047000010B500F06A
:10084000DFFF001D10BD00BFC9D401000048704784
:10085000DC010020004870470C020020004870476F
:10086000D4010020704770477047704738B5044680
:100870000A4600206946AFF30080002808BF38BD53
:1008800002460099204600F0BFFF012038BD01203C
:1008900002F0AABCF8B5AFF30080054600200C4674
:1008A000102000BF0646A819A0420DD9324669465D
:1008B0000020AFF30080070008BF02F095FC00980D
:1008C000A04218BF0546C419FFF7C0FF05600746E0
:1008D000F01D20F007004619284600F00AF8B4423F
:1008E00008BFF8BDA21B31463868BDE8F84000F0EB
:1008F0008BBF00210160C0E90110704710207047D4
:1009000070B50D460646041FFFF7A0FF0268BDB193
:10091000DEB105F10B0020F00701A9423CBF002029
:1009200070BD23688B4238BF506813D35A1A082A07
:1009300036D3601840F8042B2160FFF7B2FE2FE099
:100940003046FFF7AEFE002070BD2846BDE870407F
:10095000FFF778BE002818BFA0423CBF024640689F
:10096000F8D303EB040C84451CD1D0F800C06344D9
:10097000994217D8A3EB010CBCF1080F0DD3D0F8A6
:1009800004C06318C3F804C0D4F800C00068604411
:10099000401A18602160536002E023604068506094
:1009A000201D70BD2846FFF74DFE050008D03146DA
:1009B0002068021F2846FFF78CFD201DFFF771FEFF
:1009C000284670BD10B500F039FF00F0080010BDDA
:1009D0002DE9F0410F46134615460A46064600210A
:1009E000084600F073FF0446401CFFF72BFE306002
:1009F00030B1611C2B463A46BDE8F04100F066BFBD
:100A00004FF0FF30BDE8F0810FB41CB50C0007AA11
:100A1000009007D04142A14202D32044401E01E091
:100A20004FF0FF30074B7B4469460190069801F078
:100A300022F80021002C01D0009A11701CBC5DF836
:100A400014FB0000731000007CB51D4616460C0018
:100A5000009007D04142A14202D32044401E01E051
:100A60004FF0FF30064B7B442A46694601903046E2
:100A700001F001F8002C02D0009A002111707CBD19
:100A80003310000000B58DB0099000920B904FF02C
:100A9000FF300A9000200C900548784406900548E5
:100AA00078446A46079009A801F026FE0DB000BD03
:100AB0007B1C0000931C00000FB400B58DB010A982
:100AC000099000910B904FF0FF300A9000200C909D
:100AD000064878440690064878446A4607900F997D
:100AE00009A801F009FE0DB05DF814FB431C0000DD
:100AF0005B1C000001F08CBE01F0D2BE2DE9F0417C
:100B0000044616460D464769007B80072ED03846BE
:100B100000F037FE50BB3EB3012E02D0022E25D18D
:100B200004E0204600F066F805441DE0384600F079
:100B300036FEE168002841F01001E16005DA204648
:100B400000F07AF80120BDE8F081C9030BD5626896
:100B5000E16A914200D81146A26911442269891ABA
:100B6000814200DD08460544002D01DA0220EAE753
:100B7000E16A6068E268814206D29103E06203D5CF
:100B800022F4003141F01002A6690027AE4213DCC6
:100B9000E16A814201D90B4600E0034603EB060CF3
:100BA0002369ACEB030CAC4506DD814201D98C46D0
:100BB00000E084469C4505D1A760276042F02000F4
:100BC000A5620DE0AD1BE669AE1B8142A66000D9AF
:100BD0000846C01A281A20605819606022F02000C8
:100BE00003490840E060002084F84870ABE700004B
:100BF000BFCFD7FF10B50146C268900703D090065B
:100C000007D5886A0AE0FFF729FE01210160881EE6
:100C100010BD8B69486818440B69C01A91F84830B8
:100C20001BB191F84910401A10BD1103FCD50028E2
:100C3000FADD401E10BD0000C16821F4001141F032
:100C40008001C16000218160016070472DE9F74F8C
:100C500015460C464FF0FF3B3848D768D2F814A031
:100C6000074209D05046A96900F091FD002819DB20
:100C70003248C0430740EF604FF000496FF0004832
:100C80004C4501D3464600E0264600993B46504677
:100C9000324600F067FDA96920F00042B21A114403
:100CA000A96128B12846FFF7C7FF5846BDE8FE8F67
:100CB000A41BE5D10020F9E770B504460569C06AB8
:100CC0006168884200D80846E16821F42011E1609B
:100CD000C90312D5A84208D02246411B2846FFF777
:100CE000B5FF10B14FF0FF3070BD0020E562C4E9E0
:100CF0000150E06820F48030E060002070BD10B545
:100D00000446C06820F02000E060A16AA069884223
:100D10000DD02046FFF7D0FFE06820F4405040F0AF
:100D20001000E060A06AA0612069E062606044F2A7
:100D30004001E0688843E06010BD00001000020040
:100D400010B542485421FFF73BFC41485421FFF7BE
:100D500037FC40485421FFF733FC3F493B483C4AAD
:100D60003F4B08603D490A603A491960531C0365CE
:100D7000481C1065012008653B48344A39A1784475
:100D800000F07AF820B9384878440A3802F025FA99
:100D900037482F4A35A1784400F06EF820B934481E
:100DA00078440A3802F019FA32482A4A2FA17844C6
:100DB00000F062F820B92F4878440A3802F00DFAA2
:100DC00040232248DC000021224602F023F920B112
:100DD00025487844543802F000FA1D482246402342
:100DE000002102F017F920B121487844543802F06C
:100DF000F4F9184822461023002102F00BF90028CC
:100E000006D01C487844BDE81040563802F0E5B9D9
:100E100010BD104870B5006D20F001040B4800F0C3
:100E2000A3F80B4800F0A0F80A4800F09DF809E08C
:100E3000206D20F00105204600F096F82046FFF7CF
:100E400030FC2C46002CF3D170BD0000D8000020EF
:100E50002C01002080010020000000200400002060
:100E6000080000207200000006D601007700000094
:100E7000F2D50100DED501002DE9F0410C46164601
:100E8000070047D0104600F06FF82078611C6128F9
:100E90000AD0722802D077283CD102E00125002434
:100EA00005E00225042402E0082448F2020511F8B6
:100EB000010B2B2806D0622809D011F8010C7428E8
:100EC0000AD00BE045F0030544F00204EFE745F0DB
:100ED000040544F00104EAE744F0100438462146D2
:100EE00000F030FC411C15D00021316171604FF4DD
:100EF0000071F560F1617061200704D5304602226F
:100F00000021FFF7FBFD306D40F0010030653046F9
:100F1000BDE8F0810020FBE72DE9F0410D460646D3
:100F2000104C206DC10704D0410804D020F001040A
:100F3000F7E722460EE05420FFF784FB07000ED0AF
:100F4000206D47F001010843542120653846FFF722
:100F500037FB3A4629463046BDE8F0418CE7002091
:100F6000D6E70000D80000202DE9F04704464FF0F6
:100F7000FF380026C568D4E90497A80718D0204692
:100F8000FFF79AFE384600F0E7FB002800DA4646F5
:100F9000280502D54846FFF784FB4C212046FFF781
:100FA0000FFB206D20F0010020653046BDE8F08782
:100FB0004046FBE72DE9FE430E46174680460021DA
:100FC0000846AFF3008005460020009001905EB116
:100FD00030784FF0FF3900B1AFB11DB1D5E9000154
:100FE000CDE9000100240CE00020BDE8FE83315D66
:100FF0006A46641C02A802F08AF8411C03D001284A
:1010000003D0BC42F3D34846EFE71DB1DDE9000150
:10101000C5E90001B8F1000F03D0BDF80810A8F829
:101020000010BDF808000028DFD02046DDE770B5CD
:101030000C4605460AB1104603E004210020AFF338
:10104000008022462946BDE870400346002000F09B
:101050003DB82DE9F84F9146884605464FF000040B
:101060005FEA030A0E682BD107210020AFF300804E
:10107000824625E016F8011B5246684602F047F802
:101080000746401C0FD0BF1C1AD01DB1BDF8000090
:1010900025F81400BDF80000641C58B1002DE9D0FB
:1010A000C8F800600EE0FFF7D9FB04210160384664
:1010B000BDE8F88F15B10021C8F80010601EF7E7F1
:1010C000002DD7D04C45D5D32046F1E701F0C6BF5F
:1010D00002F000B82DE9F84F9B4690468946054638
:1010E0000024DDF828A00E685FEA0A0033D1092148
:1010F000AFF3008082462EE0B8F1000F1AD05246BE
:10110000684616F8011BA8F1010802F000F807462E
:10111000401C13D0BF1C1ED01DB1BDF8000025F827
:101120001400BDF80000641C78B1002DE4D0C9F8AB
:10113000006012E09DB1C9F8006010E0FFF78EFB7F
:10114000042101603846BDE8F88F15B10021C9F8C7
:101150000010601EF7E7002DCED05C45CCD32046B2
:10116000F1E72DE9FF4F91468A46804683B000247F
:10117000109F0D68A7BB0A210020AFF3008007462F
:101180002EE017B1D7E900B102913A4668462988A6
:1011900001F0DDFF0646401C0BD0B8F1000F16D061
:1011A0000698311981420CD9EFB10299C7E900B113
:1011B00019E0FFF753FB04210160304607B0BDE89A
:1011C000F08F08EB040032466946FFF73DF92888A6
:1011D000344450B1AD1CB8F1000F01D0CAF8005032
:1011E000B9F10109CDD22046E8E7641EB8F1000F3D
:1011F000F9D00021CAF80010F5E710B5FFF71EFB83
:10120000006890F80111012901D0012010BDD0F82B
:101210000B0110BD2DE9F0410646FFF71BFB804690
:10122000454613E016B1E068B0420ED12068286050
:10123000D4E90101D8F8007088472046FFF731FA59
:10124000D8F80000B842EBD100E025462C68002C0D
:10125000E8D1BDE8F081002801D0FFF7EDB9704773
:1012600010B5002102A001F09FFF012010BD000079
:10127000534947414252543A2041626E6F726D6148
:101280006C207465726D696E6174696F6E00000028
:1012900010B5431C02E010F8011B71B18107FAD1AF
:1012A0004FF0013202C88C1A8C4314EAC211F9D0F3
:1012B000C01A0A0603D0C01E10BDC01A10BD0A0411
:1012C00001D0801E10BD0902FCD0401E10BD0021BF
:1012D00001E0801C491C0288002AFAD108467047A8
:1012E000431A28BF9A427FF6AFA810441144032A3C
:1012F00040F2268010F0030F1EBF11F8013D521E70
:1013000000F8013D10F0030F7FF4F6AF11F0030376
:101310003FF424A9083AC0F00B8051F8043D083A84
:1013200051F804CD40F8043D40F804CDFFF7F3BF79
:10133000121D5CBF51F8043D40F8043DAFF300803E
:10134000D20724BF11F8013D11F801CD48BF11F8B3
:10135000012C24BF00F8013D00F801CD48BF00F882
:10136000012C70470000000030B44FF0013C50F8F1
:10137000042B51F8043BCCFA52F4D51A20D1FCB915
:1013800050F8042B51F8043BCCFA52F4D51A17D17B
:10139000B4B950F8042B51F8043BCCFA52F4D51AE6
:1013A0000ED16CB950F8042B51F8043BCCFA52F42E
:1013B000D51A05D1002CDAD030BC4FF000007047B0
:1013C00029BAB1FA81F111F01801D1F1200084405D
:1013D000F2D1CA40CB4012F0FF0213F0FF0330BC41
:1013E000D01A704770B5054601B90721541A241D5B
:1013F000B4F5B67F09DD286800F05DF9A04204DC91
:101400002868401C2860012070BD002C05DA28687F
:10141000401E286000F04FF90444072094FBF0F0D0
:10142000401C70BD2DE9F04F1F4615468B46824685
:10143000002689B000F0E4F9D0F810800024BBF158
:10144000000F70D015F8010B10B125280DD10FE059
:1014500024B1641E06A850F82450F3E7002130465A
:101460000AF8061009B0BDE8F08F0AF80600C7E0D8
:10147000E94615F8010B592870D023DC49286ED0B5
:1014800014DC44286DD008DC2528EED041283ED05D
:10149000422849D043282CD156E04528E9D0462897
:1014A00069D0472876D0482823D17AE04D380C28D7
:1014B0001FD2DFE800F0881E061E1E9BA0A9B3B550
:1014C000C1CFD6E75A38212813D2DFE800F0111235
:1014D00012121212121A263745501259261274127D
:1014E00012797E128012891296A212B3BDCB11001E
:1014F000A8E725200AF80600761C5E4513D26D1E6B
:10150000A0E7D8F80010BA69D8F8240011E0D8F89C
:101510000410BA69D8F828000BE0D8F808103A6926
:10152000D8F82C0005E0B2E0D8F80C103A69D8F8E9
:10153000300002FB001101EB0809AAE006A840F800
:101540002450D8F818108AE07969642091FBF0F2F1
:101550001332484668A192E0FA6889E08AE022E006
:10156000FFE706A840F8245065A5641C6AE7FA68FE
:1015700066A1484683E006A840F8245064A5F4E735
:10158000384600F0ADF8642190FBF1F201FB120245
:1015900058E0FFE7384600F0A3F802465FA168462E
:1015A0006DE0BA6864E0B8680C210B3090FBF1F292
:1015B00001FB120205E0FA6959A14846521C5EE09F
:1015C0003A694DA1F9E77A6852E00A2116E0B86855
:1015D0000C2802DAD8F81010ADE7D8F81410AAE7F2
:1015E00006A840F82450D8F8341038E006A840F88F
:1015F00024504DA5B9E73A683AE009210AF80610E7
:10160000761C5E45B2D342E006A840F8245048A5B7
:10161000ABE7BA6902B9072248A1AAE700210CE0AA
:10162000786900F26C700890D7E9061208A8FFF7F5
:10163000D9FE06E0BA69EFE70121D7E9062000F0FC
:101640002EF802462CA1AAE706A840F82450D8F8A4
:101650001C1004E006A840F82450D8F8201001EB34
:10166000080582E77969642091FBF0F200FB121211
:1016700021A17EE77A69484628A102F26C7200F047
:101680000FF906E00AF80600761C5E4501D300203B
:10169000E8E619F8010B00283FF4DFAEF2E7511A33
:1016A00000D5C91D401A01D500207047072190FBC5
:1016B000F1F0401C704781070CD1642190FBF1F2DE
:1016C00001FB120151B94FF4C87190FBF1F201FB1B
:1016D000120018B1002000F26D1070470120FAE7E7
:1016E00008B5416901F26C710091D0E906126846B3
:1016F000FFF778FE009808BD252E32640000000038
:10170000256D2F25642F2579000000002532640007
:1017100025592D256D2D256400000000256400004D
:10172000252E33640000000025483A254D000000B6
:1017300025483A254D3A255300000000252E3164F6
:10174000000000000EB5CDE90001FFF7A1FD0290F9
:1017500069460120ABBE0EBD08B569460090022067
:10176000ABBE08BD1FB58DE8070069460520ABBEBE
:1017700004B010BD1FB58DE80F0069460620ABBE52
:10178000F6E708B5694600900920ABBE08BD1CB558
:10179000CDE9000169460A20ABBE1CBD704708B503
:1017A000694600900C20ABBE08BD000000487047A1
:1017B000D40100207546FFF7F9FFAE4605006946E3
:1017C000534620F00700854618B020B5FEF7A2FD6D
:1017D000BDE820404FF000064FF000074FF0000832
:1017E0004FF0000BAC46ACE8C009ACE8C009ACE86F
:1017F000C009ACE8C00921F007018D467047000020
:1018000000487047F4010020034640688C460028D9
:1018100018BF88423CBF03464068F8D31868184494
:10182000884207D00CF1030020F00700001D411A88
:10183000521A0146081D0A60FEF733BF10B5044670
:10184000FF2801D9002010BDFEF7F8FF0068005DF9
:1018500010F0980F03D0C10701D140F4806010F45C
:10186000846F01D040F4006010F0BA0F01D040F452
:10187000807010F0BE0F01D040F40070810604D5D6
:10188000010602D440F0800001E020F02000C107F2
:1018900001D0410601D5092CD5D140F4805010BDAE
:1018A0000FB41CB5084B06AA7B4469460090059806
:1018B00000F0E1F804460020694602F0E9F820460D
:1018C0001CBC5DF814FB0000E52100007CB51D4642
:1018D00016460C00009007D04142A14202D320449A
:1018E000401E01E04FF0FF30064B7B442A4669461C
:1018F0000190304600F0BFF8002C02D0009A002181
:1019000011707CBDAF01000070B5044685690068A8
:10191000C10601D5302600E02026C00707D070BDE3
:10192000D4E9012130469047206A401C20626D1E98
:10193000F6D570BD70B5044685690078C00707D13B
:1019400070BDD4E9012120209047206A401C20620C
:101950006D1EF6D570BD09684A0501D540B27047C5
:10196000C905FCD500B2704709684A0501D5C0B267
:101970007047C905FCD580B2704770B50C46054666
:10198000012A05D02878800600D5EA69002302E004
:10199000012305E05B1C934202D2E05C0028F9D1F0
:1019A000A869E618C01AA861286A1844286228465F
:1019B000FFF7AAFF04E0D5E9012114F8010B9047D5
:1019C000B442F8D32846FFF7B5FF70BD2DE9F041CA
:1019D0000646002410687529314616A510D0FFF779
:1019E000BAFF002802DA404213A507E031688A07EF
:1019F00001D512A502E0490704D511A5012401E093
:101A0000FFF7B2FF00210A2206F1240709E0B0FB2C
:101A1000F2FCB0FBF2F302FB1C00303078541846A5
:101A2000491C0028F3D123462A463046BDE8F04140
:101A300001F049BC000000002D0000002B00000058
:101A40002000000011680268006A530501D5087083
:101A50000AE0D30501D5088006E0130603D5C217B6
:101A6000C1E9000200E008600120704701694A1CDA
:101A700002610878704700B58FB0CDE901310021CF
:101A8000059105497944CDE903101146684600F0F7
:101A90002BF90FB000BD0000E5FFFFFFD1E90023E7
:101AA0009A4202D2531C0B60107070472DE9FF5F01
:101AB00015468A460446DFF8AC80F8440027D8E98A
:101AC00000103E46CDE9001010E03AF816106A46C4
:101AD00002A801F03CFB411C07D02178890603D500
:101AE000E269391891420DD80744761C20788006A7
:101AF00002D5E069B84205DDAE42E6DB3AF81600F1
:101B00000028E2D1A069C01BA0612046FFF7FCFEBF
:101B1000D8E90010CDE90010002017E03AF81810BD
:101B20006A4602A801F013FBB0F1FF3F81460BD0DB
:101B300000250DF1080B05E0D4E901211BF8050093
:101B400090476D1C4D45F7D308F10100B042804627
:101B5000E4DB206A384420622046FFF7EBFEBDE854
:101B6000FF9F0000D6C801002DE9F0418046D21D3C
:101B700022F007020025D2E90002F52915A614D0AB
:101B8000011E72F1000106DA0023D0EB030063EBC3
:101B9000020211A608E0D8F800108B0701D50FA6A5
:101BA00002E0490701D50EA601251146002408F1DF
:101BB000240704E001F039FB30323A55641C50EA46
:101BC0000102F7D12B46324621464046BDE8F0419E
:101BD00001F079BB000000002D0000002B00000088
:101BE0002000000030B4002100F1240408E002F0DD
:101BF0000705D208303542EA4372DB086554491CB8
:101C000052EA0305F3D10468002310A2250708D582
:101C100004F020040C4304D0C46901230CA2641E08
:101C2000C46130BC01F04FBB10B5044621461068BA
:101C3000FFF79AFE02462046BDE810400023D1E798
:101C4000D21D22F00701D1E90023CBE700000000FC
:101C500030000000F0B40D460188090502D5214C82
:101C60007C4402E01F4C7C440E34002100F1240629
:101C700008E002F00F071209E75D42EA03721B0950
:101C80007754491C52EA0307F3D102780023120764
:101C900004D5702D06D009B1022311342246F0BCC0
:101CA00001F011BB01231034F8E770B504460D466E
:101CB00021461068FFF758FE024629462046BDE837
:101CC00070400023C6E7D21D22F00703D3E90023AA
:101CD000C0E70368126843F0200303600823C36170
:101CE0000023B7E738C701002DE9F05F89460446B5
:101CF0004FF0000ADFF874B1FB44C0F820A0204682
:101D0000E1688847002874D0252806D0D4E901214D
:101D10009047206A401C2062F1E700265F4620467B
:101D2000E16888472028054607DB312D05D2781960
:101D300010F8200C08B10643F1E7B00701D526F0F2
:101D40000406C4F81CA00027C4F818A02A2D09D046
:101D500028461BF040FF38B304EB8708303DC8F835
:101D6000185019E059F8041B204604EB87029161D2
:101D7000E1688847012F054618D1E069002820DA7C
:101D800026F020061DE0D8F8180000EB800005EBD7
:101D900040003038C8F818002046E16888470546FA
:101DA0001BF019FF0028EED1012F0AD02E2D08D1EB
:101DB0002046E16888477F1C0546022F46F0200632
:101DC000C4DBA069002803DA404246F00106A061A6
:101DD000F00701D026F010066C2D0BD0682D09D02D
:101DE0004C2D39D06A2D35D0742D35D07A2D33D085
:101DF00016E038E0E1682F4620468847B84205469D
:101E000009D16C2F26D04FF48060E168064320464C
:101E10008847054604E06C2F1AD04FF480700643C3
:101E20000DB3A5F14100192802D8203546F400660B
:101E30004A462946204626604E46FEF7DFF980B125
:101E400001280BD0F61D26F0070000F1080956E71F
:101E50004020E4E78020D8E70020D6E706F1040917
:101E60004DE7284652E7206ABDE8F09FC8C601004A
:101E70002DE9FF4F1C4691464FF0FF3581B0002100
:101E80008A468846D4E90167A16902986D1C884793
:101E9000216A834688470028F6D1BBF1FF3F0CD06A
:101EA000002F26F4C0661ADD700615D5BBF12B0F86
:101EB0000AD0BBF12D0F0FD104E04FF0FF3005B079
:101EC000BDE8F08F46F48066A16902986D1C8847D2
:101ED0007F1E8346002F02DDBBF1300F03D0B9F126
:101EE000000F2AD025E0A1696D1C02987F1E46F4E0
:101EF00000768847002F834605DDBBF1780F06D0BA
:101F0000BBF1580F03D0B9F1000F10D011E0B9F1B7
:101F1000000F02D0B9F1100F0BD1A1696D1C02980E
:101F20007F1E26F4007688478346102000E00820B4
:101F300081464FEAE970009017E00A20F8E743462F
:101F4000AAFB0928DDF800C07F1E03FB098046F4C8
:101F5000007605F101050AFB0C0112EB0B0A029851
:101F600041EBEB78A16988478346002F06DD49469F
:101F7000584601F0BEFD5FEA000BE0D5E16902982A
:101F80008847B00502D46FF0010098E7F00718D138
:101F9000700610D55146700505D50023D1EB03011D
:101FA00063EB080200E042462068031D23600068DE
:101FB000C0E9001205E02068011D21600068C0E949
:101FC00000A828467BE72DE9FF5F1D464FF0FF3B49
:101FD00091464FF000085F46D5E90146A96901988E
:101FE0007F1C8847296A824688470028F6D1BAF1C3
:101FF000FF3F0CD0002E24F4C06419DD600614D518
:10200000BAF12B0F09D0BAF12D0F0ED103E05846CB
:1020100004B0BDE8F09F44F48064A96901987F1C76
:102020008847761E8246002E02DDBAF1300F03D0BB
:10203000B9F1000F26D032E0A969761E01987F1C05
:1020400044F400748847002E824605DDBAF1780F0B
:1020500006D0BAF1580F03D0B9F1000F10D01EE02E
:10206000B9F1000F02D0B9F1100F18D1A969761E8D
:1020700001987F1C24F4007488478246102002E0F7
:10208000082000E00A20814609E0A96908FB090848
:10209000761E01987F1C44F4007488478246002E07
:1020A00005DD4946504601F024FD0028EDDAE969D6
:1020B00001988847A00502D46FF00100A8E7E00767
:1020C00025D1600613D5600502D5C8F1000000E0F7
:1020D000404629680A1D2A600968220501D5087052
:1020E00015E0220701D5088011E008600FE028689C
:1020F000011D29600068210502D580F8008006E0F6
:10210000210702D5A0F8008001E0C0F80080384621
:102110007EE72DE9FF5F4FF00008994614464646DA
:102120009169D2E901A7DDF838B0019888470546E2
:1021300059EA0B0005D009E0A1690198761C88478F
:102140000546216A284688470028F5D1681C03D037
:102150005FEACA7005D015E04FF0FF3004B0BDE86B
:10216000F09F2068011D2160D0F800800AE05FEA3E
:10217000CA7001D108F8015BA169761C01987F1E25
:1021800088470546002F1ADD681C18D0B9F1000FEA
:102190000DD0E81705EBD060421120F01F0059F870
:1021A00022102A1A012090400142E0D107E0BBF141
:1021B000000FDCD12846216A88470028D7D0E16982
:1021C00001988847BBF1000F07D1002E05DD5FEABB
:1021D000CA7002D1002188F80010A068B84203DD5F
:1021E000BBF1000F03D017B16FF00100B6E7304626
:1021F000B4E700002DE9FF4F06468BB00878FF28B2
:1022000006D0491C2D2805D000244FF0000908E015
:1022100000200CE00124F8E709EB8903491C00EBDE
:1022200043090878FF28F7D114B1C9F100008146AD
:10223000107800252C46AA4629462D2801D02B28A7
:1022400004D1521C2D2813D0002082468B461078D2
:10225000FF280FD04FF0000C0A21521CA5FB01787B
:1022600004FB018105FB0C11C5194BEB0104EEE7E2
:102270000120EAE7002108464FF00000BAF1000F04
:1022800002D000EB80004008C0F38157012F01DD30
:102290004FF0FF370E9955EA040009EB01080BD007
:1022A0004FF0020918F5FA7F16DA4FEACA70002FCC
:1022B000706008DD012007E04FEACA70C6E900B08F
:1022C0000FB0BDE8F08F00203060FEF7C7FAC0F80D
:1022D00000901821084616E0B8F5FA7F18DD002FA7
:1022E00002DAF748784401E0F6487844D0E9001073
:1022F000C6E9001040EACA707060FEF7AFFAC0F895
:102300000090142108460FB0BDE8F04F1BF0B7BF96
:10231000002108464FF00000B8F10001099002DAF0
:10232000C7F1000200E03A4601DAC8F1000106A850
:1023300001F018FE06AB93E8070003AB83E8070043
:1023400044F23E005BEA04010090584604D144F296
:102350001E012C465D460091210C0904014306D163
:102360000099240444EA15442D041039009104F026
:102370007F41014306D10099240244EA15642D02ED
:102380000839009104F07041014306D100992401FD
:1023900044EA15742D01091F009104F040410143E6
:1023A00006D10099A40044EA9574AD00891E0091FD
:1023B00004F00041084304D100986D196441401EA7
:1023C00000904FF001033A466846B8F1000FCDE99E
:1023D000014503A902DD1BF096F901E01BF069F944
:1023E000BAF1000F04460D4601D084F000440021EC
:1023F00008464FF00000099940F2FF77484010F07E
:102400000C0F07D124F00040284303D0C4F30A5036
:10241000B84212D1FEF722FAC0F80090C4F30A5075
:10242000B8420AD1A8487844D0E90010C6E90010A3
:1024300004F000410843706042E7C6E900543FE7FA
:102440002DE9FF4F1F464FF0000A4FF0FF38454679
:1024500091B0D7E90146CDF83CA0FFF7D1F9C068AB
:102460000168405C1090B96912986D1C8847396A00
:10247000814688470028F6D1B9F1FF3F0AD0002EE7
:1024800024F4D06411DDB9F12B0F08D0B9F12D0F70
:102490000BD102E0404615B013E744F48064B969FB
:1024A00012986D1C8847761E8146600504A901D5E7
:1024B0002D2000E02B20002E01F1010B0DF1300842
:1024C0008DF810003FDDB9F1690F08D0B9F1490F5F
:1024D00005D0B9F16E0F02D0B9F14E0F1CD13B46B9
:1024E00001A8009580E85002DDE912126FF00200A9
:1024F0001BF030FFC11CCED10EE0B96912986D1CE3
:10250000884781461398761E44F4007405600F983E
:10251000401C002E0F9016DDB9F1300FEDD0B9F14F
:10252000780F02D0B9F1580F0DD10F9801280AD1B8
:102530003B46CDE90054DDE91212001F02961BF064
:1025400007FFC11CA7D1109989453ED144F08004F2
:1025500006E01399681CAAF1010A44F400740860AB
:10256000B9696D1C1298761E884730288146F0D0D4
:102570002BE01099894505D1200603D4761E44F03E
:10258000800418E048461BF026FB08B3761E0DF1C8
:1025900023029345A9F1300044F4007406D20BF8ED
:1025A000010B200607D5AAF1010003E0200602D4A2
:1025B0000AF101008246A00502D51399681C086043
:1025C000B96912986D1C88478146002ED1DC53E012
:1025D000002E51DDB9F1650F02D0B9F1450F4BD195
:1025E000A00549D5B9696D1C1298761E24F4407473
:1025F0008847002E81460CDD2B2804D0B9F12D0F21
:1026000007D144F48074B96912986D1C8847761E0E
:102610008146E00501D52D2100E02B2108F8011BA2
:10262000CDF8008021E0761E0DF13901884544F493
:1026300000740CD2A9F1300010F0FF0088F80000FF
:1026400002D10099884509D908F1010806E0E005A2
:1026500001D51E4801E042F20F708246B969129816
:102660006D1C8847814613980560002E04DD48469E
:102670001BF0B1FA0028D6D1F96912988847FF20DB
:1026800053468BF8000088F8000000200A900B9059
:1026900004AA0CA90AA8FFF7ADFDA00502D46FF0AB
:1026A0000100F8E614F0240F12D0E0071CD13868BE
:1026B000DDE90A12031D3B600068C0E9001213E067
:1026C0009C0702008E07020052060200F1D8FFFFAD
:1026D0000AA968461BF06CFAE00705D13868009A31
:1026E000011D3960006802602846D4E60268114482
:1026F0001378016018467047D160054979445161EB
:1027000004497944116200211161114601F000BAB7
:10271000EDFFFFFFAF0B0000426842B1016811F806
:10272000013B23B1521EC0E9001218467047012137
:10273000C160881E704742685AB1C368016843B9D6
:1027400083688B4205D0491E521CC0E9001200204C
:1027500070474FF0FF3070470FB40B0010B54FF0CB
:1027600000048AB00FA900910E99CC60234C7C44E0
:10277000234A7A44CDE9064200D004236FF0004298
:10278000CDE901321F4A7A446B4608920246002086
:102790001BF0DCFD0AB010BC5DF814FBF0B5074679
:1027A0004FF0FF301E4615460C463B4685B06A4644
:1027B0000091CDE9010131460020049004A8FFF703
:1027C000CBFF04990346601825B109B1024600E029
:1027D00022462A6000290ED0002B02DD009981429A
:1027E00009D03B466A463146001B0094CDE90104FE
:1027F00004A8FFF7B1FF05B0F0BD0000A7FFFFFF81
:10280000C1FFFFFF2B0B000000230360FFF7C6BFD3
:102810002DE9F04791460E4680460446002514F8FF
:10282000017B2FB1FEF70AF80068C05DC007F6D142
:102830002B2F02D02D2F1ED0641E4A463146204633
:1028400001F020FB26B13268A24201D1C6F8008017
:102850004FF002046A0518D50023D0EB030563EBA3
:1028600001025D1B934109DB0023D0EB030063EB06
:102870000101BDE8F08745F48065DEE7FDF7EEFF76
:10288000046000204FF00041F3E7021E71F10002E6
:10289000EFDAFDF7E3FF04604FF0FF304108E8E7AF
:1028A0002DE9F05F93460F46804604460026FDF76B
:1028B000D5FFD0F80090824614F8015B2DB1FDF7EA
:1028C000BDFF0068405DC007F6D12B2D02D02D2D35
:1028D0001FD0641E0021CAF800105A46394620460F
:1028E00001F0D0FA024627B13868A04201D1C7F8FA
:1028F0000080DAF8000002280ED0CAF800907005B7
:102900000AD500200346D2EB000063EB0101BDE8CD
:10291000F09F46F48066DDE71046F8E72DE9FF4FAB
:102920004FF000089A461446C146464683B0D2E9A5
:1029300001B7CDF80080CDF80480916904988847EC
:10294000109905465AEA010005D009E0A1690498EA
:10295000761C88470546216A284688470028F5D115
:10296000681C03D05FEACB7005D02AE04FF0FF303F
:1029700007B0BDE8F08F2068011D2160D0F800800D
:102980001FE002A86A46E9B200F0C1FB411C07D073
:10299000801C09D04FF000095FEACB7007D00AE035
:1029A000E169049888473EE04FF0010904E0BDF872
:1029B000081028F8021B7F1EA1690498761C88471E
:1029C0000546002F1ADD681C18D0BAF1000F0DD093
:1029D000E81705EBD060421120F01F005AF82210D2
:1029E0002A1A012090400142CBD107E0109800281C
:1029F000C7D12846216A88470028C2D0E1690498D7
:102A00008847B9F1000F0ED1109830B9002E04DDBF
:102A10005FEACB7001D1A8F80000A068B84202DDDF
:102A2000109818B117B16FF00100A1E730469FE789
:102A30002DE9FF4F4FF000089B461446454683B0F2
:102A4000D2E90196CDF80080CDF804809169DDF8D7
:102A500048A00498884707465BEA0A0005D009E0C9
:102A6000A16904986D1C88470746216A3846884743
:102A70000028F5D1781C03D05FEAC97005D01BE0AF
:102A80004FF0FF3007B0BDE8F08F2068011D2160D6
:102A9000D0F8008010E05FEAC97007D16A4640466E
:102AA000B9B200F054FB411C31D08044A1696D1CC7
:102AB0000498761E88470746002E14DD781C12D035
:102AC000BBF1000007D03B46DDE9101201F03BFAF4
:102AD0000028E0D107E0BAF1000FDCD13846216AC6
:102AE00088470028D7D0E16904988847BAF1000FD9
:102AF00006D1002D04DD5FEAC97001D188F800001D
:102B0000A068B04203DDBAF1000F03D016B16FF038
:102B10000100B7E72846B5E72DE9FF5F9B4614465D
:102B200000273D469169D2E90196DDF840A0019861
:102B3000884780465BEA0A0005D009E0A169019850
:102B40006D1C88478046216A404688470028F5D199
:102B5000B8F1FF3F03D05FEAC97005D014E04FF031
:102B6000FF3004B0BDE8F09F2068011D21600768B8
:102B70000AE05FEAC97001D127F8028BA1696D1CD8
:102B80000198761E88478046002E15DDB8F1FF3F7C
:102B900012D0BBF1000007D04346DDE90E1201F070
:102BA000D2F90028E5D107E0BAF1000FE1D14046A3
:102BB000216A88470028DCD0E16901988847BAF18A
:102BC000000F05D1002D03DD5FEAC97000D1388008
:102BD000A068B04203DDBAF1000F03D016B16FF068
:102BE0000100BEE72846BCE770B50D460146144615
:102BF000D36850692A46FEF7BDFD002807DA411C5C
:102C000007D0E16820F0004041F48041E160281ADB
:102C100070BD2046FEF710F84FF0FF3070BDC16860
:102C20000022026021F4805141F0400111F4C06F94
:102C3000C16001D08260704702694168891AC26927
:102C4000891A816070472DE9F05F04468946C068A3
:102C500040F4800010F4C06FE06008D0204601F01E
:102C60005FFA2068002802DD401E206033E0E06843
:102C7000010312D520F40020E060810606D4E26A48
:102C800061688A4200D80A46511A216040F4001057
:102C9000E06094F82500BDE8F09F20F40010E060AB
:102CA000800602D52046FEF72AF8E06842F281014C
:102CB0004FF0FF3A0140012903D02046FDF7BCFF49
:102CC000B0E02168002600290ADAC94340F48050A8
:102CD0002160C4E902606068411C61600078DAE745
:102CE00044F2400108420CD020F4A04040F04000E3
:102CF0002660E06021696068401AE169401AA060BE
:102D000090E0216991B9C00310D4E069FDF79AFC05
:102D10002061B0B1E06840F4006010F4407FE060F2
:102D200002D140F48070E06020696060E068D4F80F
:102D300014B0C1061AD5C0030ED52046FDF7BCFF5E
:102D400014E004F1240020610120E061E06820F437
:102D5000407040F48060E6E721696068401AA1692C
:102D600001445846FEF713FD0028A6DBE068C003C7
:102D70002BD56168E06A884200D808462169451A67
:102D8000E069471B1CD02046D4F81880FDF794FF5B
:102D900008EB05015846C4F81880FEF7F8FC002837
:102DA0008BDBE068B9F1000F40F40030E06002D046
:102DB000A0692844A061E1692069C91B45180DE09C
:102DC0002046FDF779FFE769F5E725696168D4E9F1
:102DD0000607491BE56208446560A061E068B9F137
:102DE000000F20F0100040F48050C4E9026005D0CC
:102DF0002069E06260606FF001004CE722463946CE
:102E00002846FFF7F1FE411C0CD02918E16258B1A9
:102E1000401E2060681C6060E06840F40030E060A4
:102E2000287838E7504636E765602046FFF7F7FE1A
:102E3000F8E72DE9F05F054617460C46C86820F410
:102E4000201040F48000C860800602D50846FDF7D7
:102E500056FFE06841F282014FF0FF3A014002293B
:102E600003D02046FDF7E8FEB9E000F42041B1F5BB
:102E7000004F0FD1C00306D56168E06A884200D8D0
:102E80000846606006E02069E06260606069FEF705
:102E900086FCA061A0680022EEB200280DDAE1688D
:102EA0008B050AD4C043A06041F490302260E060FA
:102EB0006068411C61600670AAE0E068914622608B
:102EC00040F40050E060206978BB6069FEF759FC6F
:102ED00004F124054FF00108A8B1A08910F4407F47
:102EE00008D0E069FDF7AEFB206118B1E06840F45E
:102EF000006017E0C4F81C802561E06820F4407091
:102F000040F480600EE0E069FDF79CFB0028206142
:102F1000F0D0E06840F4006010F4407FE06002D13F
:102F200040F48070E06020696060E06825696FF0BF
:102F3000010BC1051ED56168E06A884200D80846C9
:102F4000411B04D022462846FDF780FEE8BB1FB196
:102F5000E562C4E9015959E0681CE0626060E0691B
:102F6000401EA060E06840F48030E06030462E7083
:102F7000BDE8F09F17B100F480320AE06068411CA0
:102F800061600670E0680A2E40F48030E06006D090
:102F90000022E16A6068814203D90B4602E0012207
:102FA000F7E70346B4F80CC05B1B5FEA4C5C04D443
:102FB000D4F81CC09C4500DD02B3814200D8014614
:102FC000002BA1EB0008E56200E008E0C4E901592C
:102FD00007DD224619462846FDF738FE08B150465F
:102FE000C6E7B8F1000F09D0A169E5626560A1EB01
:102FF0000800A061E06840F01000E06047B161683F
:10300000A069E562491B08446560A0615846AFE7C6
:103010003046ADE770B5C468A50713D0650211D47A
:10302000B2F5807F09D0B2F5007F06D0B2F5806F8F
:1030300008D1012300F1240106E05D1E6FF07F46F8
:10304000B54201D3012070BD0161C361416024F428
:1030500070611143C160002070BD00002DE9F8438C
:103060009946174680464FF000060C0002D188466C
:10307000012717A4B9F1000F25D105210020AFF3D6
:10308000008081461FE014F8011B4A46684600F0A4
:103090003EF8761C0546401C0FD0AD1C13D0B8F18D
:1030A000000F03D0BDF80010A8F80010BDF8000014
:1030B000002800D03046BDE8F883FDF7CFFB04219F
:1030C00001602846F7E77F1EDDD26FF00100F2E7CE
:1030D000000000007CB50C46054622B90621002000
:1030E000AFF3008002462146684600F030F80446FF
:1030F000401C07D025B1224669462846FDF7A4F9B1
:1031000020467CBDFDF7AAFB04210160F8E7F8B575
:1031100016460C460546FDF791FB036893F801013E
:10312000012804D0185D78B101202C80F8BDD3F8B7
:1031300003013246214603F20313C71868460023F1
:10314000B84700992980F8BD4FF0FF30F8BD2DE950
:10315000F04116460C460546FDF770FB036893F8F0
:103160000101012807D0FF2C12D8185D80B1012081
:103170002C70BDE8F081D3F807013246214603F2F6
:103180000713C7182846BC46BDE8F0410023604736
:103190004FF0FF30EDE710B50446AFF30080204656
:1031A000BDE81040FDF7A1B870B505460C460A20F1
:1031B00000E06D1C00F01FF835B128780028F8D128
:1031C00002E0641C00F017F814B120780028F8D150
:1031D000BDE870400A2000F00EB810B500F0BCFF4A
:1031E000BDE81040FEF737B810B500F0CFFFBDE8DE
:1031F0001040FEF730B808B569468DF8000003208E
:10320000ABBE08BDB2F120030AD5C2F1200301FA1A
:1032100002F120FA03F341EA030100FA02F07047D9
:1032200000FA03F14FF00000704730B5B0F10A0228
:1032300071F100034FEA900E4EEA817EB0EB0E0072
:1032400061EB91014FEA101E4EEA017E10EB0E0079
:1032500041EB11114FEA102E4EEA016E10EB0E00F9
:1032600041EB11214FEA104E4EEA014E10EB0E00D9
:1032700041EB1141401841F100014FEAD00040EA12
:1032800041704FEAD1014FEA810444EA907410EB97
:10329000800544EB01046D1944EB0404521BA34167
:1032A0004FF0000348BF0A3200D530BD401C41F149
:1032B000000130BD10B50446FDF7C0FA0068005D9E
:1032C00000F0010010BD2DE9F0470D4699469246E9
:1032D000044600F124080168880604D5E06921F05D
:1032E0001001216000E00120A84201DD471B00E041
:1032F0000027A1697A1902EB0900081AA061207859
:10330000C00602D42046FEF7FFFA002608E0D4E902
:1033100001211AF806009047206A401C761C2062A2
:103320004E45F4DB2078C0060AD52046FEF7ECFABD
:1033300006E0D4E9012130209047206A401C206239
:10334000381EA7F10107F4DC07E0D4E9012118F8E1
:1033500005009047206A401C2062281EA5F1010547
:10336000F3DC2046FEF7E6FA2078000602D50220BC
:10337000BDE8F0870120FBE72DE9FF4F0C461E4614
:103380004FF0FF378BB0D2E90001DDF860800A9082
:103390008A46C1F30A5505B93D46002108464FF05B
:1033A0000000BAF1000F00F4400005DA00EB8000E5
:1033B0004FF4400101EA50004FEA9059B9F1010F72
:1033C00000DDB9460A9850EA4A000ED044F6105083
:1033D000A5F2FF3545432F14B8F1000F1ED07542FA
:1033E000291E1EDDC9F100021CE0B8F1010F4FF0EB
:1033F000000001D0302103E0F24305E02154401CDD
:10340000B042FBDB30460022002121540B99C1F869
:103410000880C1E900200FB0BDE8F08FBD1B6D1C16
:10342000DEE74A4600DA694206A800F09BFD06ABDB
:1034300093E8070003AB83E8070050460A9919F0A8
:1034400065FE8DE80700A0F500501F380090039836
:10345000002D0ADD42F21F014A460844002303A959
:10346000039068461AF010F909E0A0F500504A46AA
:103470001F38002303A9039068461AF02FF98DE83E
:1034800007000004000C03D04FF0FF30410800E0BB
:103490001046B8F1000F03D00022009215461EE03E
:1034A000751E05D4FFF7C1FE303262556D1EF9D589
:1034B000B3460122084302D000227F1C04E020789A
:1034C000302801D100227F1E002A099784D01DE0F8
:1034D000112D07DAFFF7A9FE303262556D1C50EA54
:1034E0000102F5D1084302D00098C8B10EE00021D6
:1034F000681E05E0235C625C63542254401E491C34
:103500008142F7DBAB46A81B401E0990002004F85F
:103510000B000B98099AC0F80880C0E9002B7AE7E5
:1035200011264FF0000857E72DE9F04F8846044672
:10353000D21D22F0070191B0D1E90001CDE90A01C5
:103540001AF018FA02460B98C00F01D02D2007E0A0
:103550002068810701D52B2002E0202101EAC0006C
:10356000032A099001D0072A05DB0346414620467D
:1035700000F034FE0BE12078800601D5E06900E020
:103580000620B8F1650F814606D0B8F1660F18D055
:10359000B8F1670F70D131E00020B9F1110F009040
:1035A00001DB112301E009F101030AAA01A90CA81A
:1035B000FFF7E2FEDDE90C70002609F10105834604
:1035C00047E001204B4600904FF000470AAA01A9AE
:1035D0000CA8FFF7D1FEDDE90DB00C995D46002681
:1035E00010B909F101000D18B9EB050003D4C0F1C1
:1035F000FF3609F10105A5EB09002BE0B9F1010F38
:1036000001DA4FF001090020B9F1110F009048468E
:1036100001DD112300E003460AAA01A90CA8FFF767
:10362000ABFEDDE90C704D4600268346207800078E
:103630000AD4AB4500DA5D4601A8012D04DD41192D
:1036400011F8011C302907D04F4502DA17F1040F99
:1036500004DA012082460FE06D1EEEE7002F02DC47
:10366000ED1B3E4403E0781CA84200DD7D1CB81B26
:1036700000F1010A4FF000472078000703D4AA4563
:1036800001DB4FF0FF3A0021B7F1004F0DF1430885
:103690008DF8431024D002202B23002F01DA7F4223
:1036A0002D230A21021EA0F1010000DC5FB197FB6F
:1036B000F1FC97FBF1F201FB1C7C17460CF1300C7E
:1036C00008F801CDEEE7A8F1010003702188090593
:1036D00001D5452100E06521A0F1010800F8011C99
:1036E00009980FA9A1EB0807FF1D00B1012041199E
:1036F00001EBEA70A1693844081A401EA0612078E5
:10370000C00602D42046FEF7FFF8099828B1D4E994
:1037100001219047206A401C20622078C00622D5F3
:103720002046FEF7F1F81EE0002E04DBB34502DD73
:1037300001A8805D00E03020D4E901219047206A93
:10374000401C2062761CAAF101005FEA000A0AD13F
:10375000FEF756F8C0680168405CD4E90121904743
:10376000206A401C2062281EA5F10105DCDC07E070
:10377000D4E9012118F8010B9047206A401C20620F
:10378000381EA7F10107F3DC2046FEF7D3F803202B
:1037900011B041E62DE9F04F04460D46D21D22F04E
:1037A000070089B0D0E90097484639461AF0E2F898
:1037B0000246F80F01D02D2307E02068810701D5CC
:1037C0002B2302E0202101EAC0038DF820300BB149
:1037D000012000E00020032A824601D0072A04DBF2
:1037E0002946204600F0FAFC3FE12078800601D40B
:1037F0000D2500E0E569C7F30A560D2D49DA0021D1
:103800004FEA175B08464FF00000002F00F440001D
:1038100007DA00EB80004FF4400100EBD07001EAC2
:1038200060008115012901DD4FF0FF3100224FEAD0
:10383000850CBCF1180F06D31346ACF118004FF0FD
:103840008052C24003E04FF4801323FA0CF30CF1D2
:103850000C0CBCF1200F04D3ACF1200C09FA0CF0D5
:1038600001E007FA0CF000294FF0004801DD18B91B
:103870000FE00ED140450CD319EB02095F4121B98D
:10388000404502D19F4329EA0209BBEB175F00D0F4
:10389000761C2088000502D57B48784402E07A48EF
:1038A0007844193808AA302302F80A30037C0AF158
:1038B0000101002E0AF1020A53546A4602DC4FF05D
:1038C000300101E04FF031014FF001088DF8001098
:1038D00002D0A6F2FF3603E059EA470100D06B4E52
:1038E000002D02DC2178090704D54FF002082E21B3
:1038F0008DF80110C44600210BE0C7F303433F01DC
:10390000C35C491C6D1E02F80830052908F1010846
:1039100001DA002DF1DC00210CE000EB1973491CE9
:103920001B786D1E082902F808304FEA091908F1C2
:10393000010801DA002DF0DC21688B0602D516E0C3
:10394000A8F10108E04505DD02EB080313F8013C8E
:10395000302BF5D0B8F1000F09DD02EB080313F8A6
:10396000013C2E2B03D1090701D4A8F10108002D39
:1039700005DD3E2102F808106D1E08F10108407CAB
:10398000002E02F8080008F1010804DA2D20764222
:1039900002F8080002E02B2002F808000A214FF488
:1039A0007A70864208F101080BDB96FBF0F33033A6
:1039B00002F8083096FBF0F308F1010800FB1366EB
:1039C00001E0642E0CDB642096FBF0F3303302F848
:1039D000083096FBF0F308F1010800FB136601E0E4
:1039E0000A2E06DB96FBF1F0303002F8080008F1F1
:1039F000010896FBF1F001FB1060303002F808007E
:103A0000A16908F1010808EB050202EB0A00081A97
:103A1000A0612078C00602D42046FDF775FF216A18
:103A200008AE01EB0A00206204E0D4E9012116F897
:103A3000010B9047BAF1010AF7D22078C00602D5EF
:103A40002046FDF761FF6E4609E016F8010B3E289F
:103A50000FD0D4E901219047206A401C2062B8F1C0
:103A60000108F2D22046FDF765FF09B00320BDE84A
:103A7000F08F206A2844206203E0D4E9012130203D
:103A800090476D1EEBD3F8E74AAB010002FCFFFF45
:103A90000A6802F8010B0A60704710B5436913B158
:103AA000AFF3008001E0FDF768FF012010BD127840
:103AB00000F124010A7000224A700122EDE711682A
:103AC0004FF0FF32E9E710B5436913B1AFF300805F
:103AD00001E0FDF7EBFF012010BD128800F1240189
:103AE00082840022C2840122EDE711684FF0FF3288
:103AF000E9E73A2800D2303820F02002412A01D3E9
:103B0000A2F13700884201D34FF0FF307047000028
:103B10002DE9F34F4FF0000A0C4656468DB00120B8
:103B20000C9001F10C000B9062690B9801219047F9
:103B3000051E2DD0252D2CD0216A8847C0B1626981
:103B40000B9801219047216A88470028F7D16269C4
:103B5000411E0B98904700E0761CA1690D9888479C
:103B6000216A88470028F7D1E1690D988847DBE78B
:103B7000A1690D988847A842074601D1761CD3E772
:103B8000E1690D9888477F1C02D1BAF1000F6FD010
:103B90006BE162690B9800273D46394690472A2819
:103BA00004D162690B98012190470125DFF8D0828A
:103BB00062690B9801219047A0F130010A290AD2CD
:103BC0004745E5DC07EB870100EB4107303FDFD4D9
:103BD00045F01005ECE7E90601D46FF000476C28CA
:103BE0000AD04C2814D0682815D06A280DD0742823
:103BF0001CD07A281AD01DE062690B9801219047E9
:103C00006C2802D045F0040514E045F002050DE0F3
:103C100045F020050AE062690B9801219047682869
:103C200002D045F0080505E045F4006562690B988F
:103C300001219047C4E9015765283DD019DC582877
:103C40007AD00CDC452837D004DC252826D0412842
:103C50009ED131E046282FD0472899D12CE05B280F
:103C600077D0612828D063287CD0642823D15AE0FB
:103C7000F6E06F2848D008DC66281DD067281BD0E6
:103C8000692821D06E2816D127E0702845D07328E6
:103C900068D0752847D078280DD14DE0A1690D98DE
:103CA0008847252805463FF469AFE1690D988847A4
:103CB0006D1C3FF46AAFD8E00D9923466A466FF059
:103CC00001001AF043FBC5E045F0400023464FF0E9
:103CD00000026060A80736D43EE0E8077FF447AFF3
:103CE0002068011D21600068290501D506701BE7C9
:103CF000290701D5068017E7A90703D5F117C0E901
:103D0000006111E706600FE745F0400023464FF0E1
:103D100008026060A80716D41EE040F60E0125EAEE
:103D20000100606016E045F0400023464FF00A02B3
:103D30006060A80707D40FE045F040006060A80766
:103D400008D5234610220D996FF00100FEF790F878
:103D500080E007E0102223460D996FF00100FEF786
:103D600032F977E04FF0000963284F46C8464B46CA
:103D7000CB4602D05B2806D038E0E80601D401200B
:103D8000A060012732E06269D4F80CB00B980121E1
:103D900090475E2807D14FF0010949466269D4F87F
:103DA0000CB00B989047216939B900210A4603AB42
:103DB00043F82120491C0829FADBD8B3216949B30B
:103DC00008F1010862690B98012190475D28F4D140
:103DD000B9F1000F09D0002003A951F82020D243E7
:103DE00041F82020401C0828F7DB03AB206900289D
:103DF00020794FEA40701ED05B462246CDF8008005
:103E0000CDE901970D9900286FF0010020DAFEF747
:103E100083FE1FE0C11703AA00EBD1614B1121F013
:103E20001F0102EB8302411A1368012088400343FB
:103E30001360C7E719E00D99224600286FF00100D2
:103E4000009702DAFEF76AFD04E0FEF762F901E08E
:103E5000FEF7EEFD00280ADA401C06D10C9820B1CE
:103E60004FF0FF300FB0BDE8F08F5046FAE7E9079A
:103E700001D10AF1010A064400200C9054E600002A
:103E8000CCCCCC0C2DE9F74F4FF000091546CA46B3
:103E9000009C14F8010B302801D0ADB115E014F8E6
:103EA000010B4FF00109782803D0582801D04DB1FB
:103EB0000BE00DB1102D08D14FF0000914F8010BE3
:103EC000102502E0082500E00A2500274FEAE57BDF
:103ED0003E46B84616E0A5FB07234FF0010905FB57
:103EE00008000BFB0731030C05FB0616D7181FFA59
:103EF00080F846F10006381E76F5803000D3CA46B9
:103F000014F8010B2946FFF7F4FD0028E3DA0198C5
:103F100038B1B9F1000F01D0641E00E0009C019897
:103F20000460BAF1000F08D0FCF798FC0221016090
:103F3000C81E014603B0BDE8F08F310441EA1741C5
:103F400048EA0740F6E710B508E030F8024B9C421B
:103F500004D10AB1002010BD012010BD491EF4D2C9
:103F6000104610BD2DE9F047814616468AB0354807
:103F700078440DC88DE80D0032487844801C03ACAD
:103F80000DC884E80D0041F69B300844372190FBB2
:103F9000F1F290FBF1F5A5F1800501FB12041B3C49
:103FA00002D56442012000E00020DFF898A080469E
:103FB0000027FA44AAF1BE0A0EE0E0070AD0324612
:103FC000684607EB470101230AEB810119F086FBE4
:103FD0008DE8070064107F1C002CEED1194F7F4440
:103FE000AE3F19E0E80715D007EB04100DF1180AF1
:103FF00090E80E008AE80E00C068F04201D19819DE
:1040000008903246012306A903A819F067FB03AB09
:1040100083E807006D10641C002DE3D14FF001030D
:1040200032466946B8F1000F03A802D019F02CFB04
:1040300001E019F053FBC9E90001C9F808200AB0F2
:10404000BDE8F08704A501002DE9FF5F8B461C4603
:104050008246029D05FB0BF5E5B1D4F80880574672
:104060004FF00009B8F1000044DCE069A84227D213
:10407000B9F1000F24D0224629463846A669FCF73C
:10408000E5FD58B1C4F80880A069801B3844A0EB56
:104090000A0129E0002004B0BDE8F09FE16811F4B6
:1040A000C06F01D0002008E022696068801AE269D0
:1040B000101AC903A06001D44042A0600298EAE748
:1040C000A84201D2012200E0002221463878FEF702
:1040D000B0FE411C06D0D4F80880002807DB6D1E16
:1040E0007F1C17E0A7EB0A01B1FBFBF0D3E74FF011
:1040F00001090FE0A842064600D92E46394632464D
:104100006068FCF7A1F96068AD1BA8EB06083044B5
:1041100037446060002DA5D1C4F80880CEE70000C8
:1041200070B5054640F202260A4C0FE094F85000A4
:10413000C00708D0AC4206D0E06836EA000002D1E1
:104140002046FCF7E1FA206D20F00104002CEDD1AF
:1041500070BD0000D800002010B5014602A0FFF796
:1041600023F8012010BD00005349475254524544E2
:104170003A2052656469726563743A2063616E2700
:1041800074206F70656E3A200000000010B50128A1
:1041900005D0002103A0FFF707F8012010BD09A1F9
:1041A000F8E7000053494752544D454D3A204F75AA
:1041B00074206F662068656170206D656D6F72791F
:1041C000000000003A2048656170206D656D6F72D7
:1041D0007920636F72727570746564002DE9F04127
:1041E0001F46044603260168072A01F4006004DB29
:1041F00008B116A505E016A503E008B115A500E075
:1042000015A521F010002060A069C01EA0610FB1AB
:10421000401EA0612046FDF777FB4FB1D4E9012194
:1042200038469047206A401C2062C01C206206E08D
:10423000206AFAE7D4E9012115F8010B9047761EB0
:10424000F8D22046FDF776FBBDE8F0814E414E00E6
:104250006E616E00494E4600696E66002DE9FF4FA3
:104260001F464FF03C0987B04FF00042DDE91410C3
:1042700001F10108DDF858A002EA40500390002047
:1042800005908346054604460490B969461E089881
:104290008847AAF1010A0290BAF1000F3BDD0298AB
:1042A0002E2815D01021FFF724FC00282EDB4FF01C
:1042B000010B0599014317D0B9F1000F0BDB4A46FA
:1042C000C117FEF79FFF05430C43A9F1040905E060
:1042D000012004900BE008B145F001050120059094
:1042E000049820B9361D02E0049800B1361FB96960
:1042F000089808F101088847BBF1000FAAF1010AEC
:104300000290C9D00999C1F80080C5E702987028C9
:1043100008D0502806D0F96908988847BBF1000FEB
:1043200014D04FE0002002900120BBF1000F049058
:1043300009D0B969089808F101088847AAF101096C
:10434000B9F1000F07DCF969089888476FF00100A0
:104350000BB0BDE8F08F2B2804D02D280CD14FF0E6
:10436000FF300490B969089808F101088847A9F15D
:104370000109B9F1000FE6DD411CE4D00A21FFF785
:10438000B8FB0028DFDB029908F1010801EB81018D
:1043900000EB41000290B969089888470A21FFF7AD
:1043A000A8FB099AA9F10109B9F1000FC2F8008030
:1043B00001DD0028E7DAF96908988847049902982E
:1043C00000FB016655EA040004D004F040410900F6
:1043D00002D006E0039898E0A40044EA9574AD008A
:1043E000B61E04F00041080002D16D196441761E2A
:1043F000159810F0240F03D04FF00B095C4803E030
:104400004FF028096FF07D008246564507DAAAEB87
:1044100006018944B9F1410F01DD4FF04109012046
:104420000021A9F10102FEF7EDFE024628400B46ED
:104430002140084301D0012100E00021501E0291DB
:1044400043F1FF3128402140084301D0012000E022
:1044500000200299834651EA0B014FD00021084603
:104460004FF00000039900F4400039B100EB8000E8
:104470004FF4400100EBD07001EA60008015012884
:1044800002DD4FF0FF3000E013D0401C36D0029820
:1044900060B3BBF1000F0CD14A4601200021FEF7AA
:1044A000B1FE28402140084301D0012000E0002057
:1044B000E0B101204A460021FEF7A4FE0346401960
:1044C0000A4661412D1A8C4111D3B9F1400F09DD23
:1044D000159810F0240F02D0AAF1340603E0AAF1D7
:1044E000170600E0761C00254FF0004406E05B1E36
:1044F00042F1FF3220EA030521EA0204CAF1010079
:10450000B04206DA1B49039808430190002000904E
:104510000EE0039AC4F3D321E80A0A43164940EA9D
:1045200044500A433146CDE90002684619F049FB80
:10453000159810F0240F0BD01598C00715D13868C6
:10454000DDE90012031D3B600068C0E900120CE0C9
:1045500002A8694619F02CFB1598C00705D13868E8
:10456000029A011D3960006802604046F0E60000D2
:1045700002FCFFFF0000F07F0000F03F2DE9FF4F3D
:1045800092461D4685B04FF00041DDE9124BDDE952
:1045900014727F1E01EA4B50414940F0FF4940EA46
:1045A0000108002122F020004928049102D04E2861
:1045B00028D04CE03BA0012607C88DE80700A96978
:1045C0000698641C88477F1E014606D41DF8060025
:1045D00018B121F0200181420BD0E9690698884783
:1045E000032E34D0082E32D06FF0010009B0BDE8A0
:1045F000F08F761C032E01D0082EE0D1601CCAF883
:104600000000DCE7A9690698641C88477F1E2AD44D
:1046100020F02000412826D1A9690698641C88470B
:104620007F1E20D420F020004E281CD1A9690698B6
:10463000641C88477F1E48F4002849F48009CAF8A2
:10464000004001D4282806D0E969069888475FEA27
:10465000CB7012D022E0A9690698641C88477F1E9F
:1046600001D4002803DAE96906988847BCE72928BD
:10467000F1D1641CCAF80040E9E71BF0240F07D011
:1046800028680499031D2B600068C0E9001805E044
:104690002868021D2A600068C0F800902046A5E73F
:1046A0000000F07F494E46494E4954590000000031
:1046B0002DE9F0412DED0E8B064610EE100A9046C6
:1046C0000D46B0EE629AB0EE42AAB0EE61BAB0EE1C
:1046D00060CA19F051FD9FED640B57EC104B224658
:1046E0003B4619F015FC19F055FB08EE100A1CEEBC
:1046F000100A19F041FD22463B4619F009FC19F059
:1047000049FB40F61871C2F20001097B012202FA4E
:1047100001F1BDEECB0A9FED56BA01EE101AB8EECC
:10472000C00AB8EEC11AB6EE002A20EE0B0A21EE3E
:10473000021A30EE000A80EE01CABDEECA0AB8EED7
:10474000C00A20EE0B0A30EE000A80EE01DABDEE60
:10475000C90AB8EEC00A20EE0B0A30EE000A80EE5D
:1047600001EAB0EE480A09EE100A14F029FA20EE28
:104770000B0A30EE0CCAB0EE490A14F021FAB0EE82
:1047800040AAB0EE480A14F039F920EE0A0A20EEE9
:104790000B0A3DEE40DAB0EE490A14F02FF9B0EE04
:1047A00040AAB0EE480A14F029F920EE0A0A20EED9
:1047B0000B0A3EEE40BAB0EE480A14F01FF9B0EE14
:1047C00040AAB0EE480A14F0FBF92BEE000A2CEEDA
:1047D0000A1A31EE000A86ED000AB0EE490A14F01A
:1047E0000DF9B0EE40AAB0EE490A14F0E9F920EE56
:1047F0000B0A2DEE0A1A31EE400A85ED000AB0EEE2
:10480000480A14F0FBF82BEE00EAB0EE490A14F067
:10481000F5F8B0EE40AAB0EE480A14F0D1F9B0EEC7
:1048200040BAB0EE490A14F0E9F82BEE0C1A21EE6A
:10483000000A2EEE0A1A31EE40AAB0EE490A14F030
:10484000BFF92DEE009AB0EE480A14F0D7F829EE21
:10485000000A30EE0A0A88ED000ABDEC0E8BBDE8B6
:10486000F08100BF00BF00BF514CDE0033DF913F3D
:104870000AE81C41000000002DE9F04F81B02DED49
:10488000028B84B0DDE9125440F6C87A95ED000A37
:1048900040F61875C2F2000AC2F200058AED000A5D
:1048A0002D7B94ED001A012404FA05F502EE105A4E
:1048B000B8EEC22AB6EE003A22EE038A9FED552AE0
:1048C00040F6CC7982EE082ADDE91467C2F20009CD
:1048D00089ED001A96ED003A41F20008C2F2000894
:1048E00088ED003A3F6840F6846B0392CDE90110F1
:1048F000DDE91621C2F2000BCBF80070126840F619
:104900008867BDEEC11AC2F20007B8EEC11A3A605C
:1049100022EE011A0968BDEEC00A89ED001ABDEE4B
:10492000C31A109840F68C62B8EEC00AB8EEC11AED
:10493000C2F2000222EE000A22EE011A11608AED94
:10494000000A88ED001A80ED000AD9F800001199DC
:104950001860D8F800000860DAF8000019F00CFCC4
:104960009FED2D0B55EC106B32462B4619F0D0FA0B
:1049700019F010FA0746CAF80000D9F8000019F03B
:10498000FBFB32462B4619F0C3FA19F003FA044632
:10499000C9F80000D8F80000C14619F0EDFB324616
:1049A0002B4619F0B5FA19F0F5F940F68868C2F20D
:1049B000000840F68C62C2F200029BED002A98EDDE
:1049C000001A92ED000A22EE013A23EE003A534615
:1049D00045F6DF1EDC46B5EE403A41F64C0B41F69B
:1049E000F80541F6081640F2C40A41F60011C5F672
:1049F000377EF1EE10FAC2F2000BC2F20005C2F2ED
:104A00000006C2F2000AC2F20001C9F8000000F07C
:104A1000D78007E00000FA44514CDE0033DF913FBD
:104A20000AE81C41BDEEC22A1FED033ABDEEC11AD1
:104A3000B8EEC22AB8EEC11ABDEEC00A22EE032AB1
:104A400021EE031AB8EEC00A32EE022A31EE011A44
:104A500020EE030A82EE084A81EE085A30EE000A80
:104A600080EE083A00EE100AFEEE000AD6ED001ABB
:104A700002EE107A01EE104A24EE047A25EE056A61
:104A800037EE066A23EE037A37EE066A16EE100A50
:104A9000AEEB600007EE100A26EE206A26EE076AEB
:104AA00026EE076AF7EE080A36EE206A26EE076A57
:104AB0008BED006A24EE064A25EE065A23EE063AEE
:104AC00095ED006A9AED007AD1ED000A66EE213A82
:104AD00060EE872A72EEE32A45F6C02072EEA22A23
:104AE000C2F2000061EEA03A67EE064A26EE066AC0
:104AF00027EE077AC0ED002A74EEA33AF8EE004ADA
:104B000045F6C42037EE466A20EEA07A63EEA43A5A
:104B1000C2F2000036EE476A21EEA17AC0ED003AFB
:104B200037EE066A45F6C820B1EE467AC2F20000BA
:104B300082ED003A80ED007A25EE067A63EE230AD4
:104B400040F6A47040F20C028CED004A88ED005A49
:104B500030EE877AC2F2000026EE446A23EE844AE1
:104B600025EE225AC2F2000280ED007A22EE833A4C
:104B700040F6A87035EE444A92ED005A36EE433ABC
:104B8000C2F2000080ED003A40F6AC7025EE076AF4
:104B9000C2F2000036EE022A80ED004A83ED002AC0
:104BA00025EE032A40F6CC7032EE011AC2F2000064
:104BB00080ED001A25EE041A31EE000A89ED000A94
:104BC0009AED000A41F6F400C2F2000080ED000AFE
:104BD00095ED001A41F6FC00C2F2000080ED001ACB
:104BE00091ED002A41F60410C2F2000080ED002A87
:104BF00096ED003A41F60C10C2F2000080ED003A4A
:104C000040F6CC70C2F2000090ED004A93ED005ADD
:104C1000D9ED000A24EE026A21EE457A37EE466AA3
:104C200023EE207A40F24000C2F2000036EE476ADE
:104C300022EE207A60EE052AD0ED001A32EE877A55
:104C400063EE042A37EE627A26EE216A27EE217A95
:104C500060EE812A60EE043A30EE066A31EE077AA1
:104C600073EEE22A63EE053A21EE041A20EE200AE2
:104C700073EEA22A30EE010A22EE051A62EEA12A94
:104C800030EE410A72EE222A20EE210A27EE071AA0
:104C900026EE062A33EE000A32EE011A22EEA22A8E
:104CA00032EE011A20EE002A32EE011A11EE100A3D
:104CB000AEEB6000BEEE003A02EE100A21EE031ADF
:104CC00021EE021A21EE021AB7EE083A31EE031A6B
:104CD00021EE021A26EE012A27EE013A32EE025A9E
:104CE0008BED001A8AED002A85ED003A22EE814A0A
:104CF00020EE011A23EE055A23EE033A22EE022A91
:104D000086ED001A34EE040A32EE432A24EE043A09
:104D10003746019E20EE010A32EE432A21EE011AA7
:104D200030EE050A71EE020A304681ED004A2C464B
:104D30000D4613F03DFD94ED000A9AED002A97ED23
:104D4000001A95ED003AB8EE004A30EE000A22EE65
:104D5000042A22EE032A20EE010A30EE020A20EE97
:104D6000001AB7EE002A284672EE410A41F62810D2
:104D7000F5EE400AA146B846C2F20000F1EE10FA84
:104D800080ED000A02DADFED280A01E0F1EEE00A28
:104D9000029F40F6907190ED000AC2F20001384681
:104DA000C1ED000A13F004FD99ED001A9AED002AF6
:104DB00098ED003A95ED004A22EE030A21EE045ADE
:104DC00021EE011A22EE022A32EE011A24EE042A02
:104DD000039C35EE000A31EE421A23EE032A30EE30
:104DE000000A71EE420A204613F0E2FC96ED000A3A
:104DF0009FED0E1A9FED0E2A20EE010A86ED000AA5
:104E000097ED000A002020EE020A87ED000A94EDDB
:104E1000000A20EE010A84ED000A04B0BDEC028B0A
:104E200001B0BDE8F08F00BF00000000DF2E65423A
:104E3000DF2E65C22DE9F04F85B040F200490646ED
:104E40000C20C4F2020990468A46DDF838B08DF88D
:104E5000130048464FF4805100221F4601F084FAA7
:104E60000120002114F0B8FE9DF8130041F2BC446B
:104E700040F08000C2F200048DF813000DF1130120
:104E8000204601224FF47A7301F072FF0DF1060102
:104E900020460E224FF47A7301F0C2FE0120002159
:104EA00014F09AFE48464FF48051012201F05CFA5A
:104EB000BDF80700BDF80910BDF80B20BDF80D3096
:104EC000BDF80F40BDF8115038800F98ABF80010B6
:104ED00002803380AAF80040A8F8005005B0BDE871
:104EE000F08F000070B582B040F2004504462220E9
:104EF000C4F202058DF8070028464FF480510022C5
:104F000001F032FA9DF8070041F2BC4640F0800003
:104F1000C2F200068DF807000DF1070130460122AC
:104F20004FF47A7301F024FF01A9304603224FF4B5
:104F30007A7301F075FE28464FF48051012201F08A
:104F400013FA9DF906109DF80500B1F1FF3F61F3DA
:104F50000E2012DD48F20001CFF6FF71081A00B2F0
:104F600000EE100A9FED0F1AB8EEC00A9FED0E2A50
:104F700020EE010A30EE020A0BE000EE100A9FED6F
:104F8000071AB8EEC00A9FED062A20EE010A30EE9D
:104F9000020A84ED000A02B070BD00BF0000003BB1
:104FA000000024C2000000BB0000AE42FEE700008B
:104FB00010B58AB041F2040400200121C2F20004BD
:104FC0000690CDE90400CDE90200CDE90000CDE96D
:104FD000071109906946204600F0ACFA20460221EC
:104FE00000F040FA204600F0DBFE0AB010BD0000E1
:104FF00041F20400C2F2000000F09CBB10B58AB080
:1050000041F2500400200121C2F200040690CDE9D3
:105010000400CDE90200CDE90000CDE907110990B7
:105020006946204600F086FA2046022100F01AFA6E
:10503000204600F0B5FE0AB010BD000041F250005D
:10504000C2F2000000F076BB2DE9F04140F6887412
:10505000C2F200040020C4E9000040F2DC20C2F2E9
:105060000000007840F25026C2F2000630704FF483
:10507000007000F0C3FE40F26428C2F2000898F805
:10508000000088B3307878B340F69871C2F200011E
:105090000968002203E000BF0132904224D051F899
:1050A000223093F83030002BF6D151F822309B6A31
:1050B000B3F5007FF0D951F822309B6AB3F5017F38
:1050C000EAD851F8223093F83430012BE4D151F86A
:1050D0002230DD6A5F7D05F07F0504F815701B7DC9
:1050E00004EB45077B70D7E740F6887441F2040073
:1050F00040F23421C2F20004C2F20000C2F2000108
:1051000022460123012500F0C1F910B12846BDE86F
:10511000F08198F8001000202060606081B3307842
:1051200070B340F69871C2F200010968002202E0F3
:105130000132904224D051F8223093F83030012BC4
:10514000F6D151F822309B6AB3F5007FF0D951F8BF
:1051500022309B6AB3F5017FEAD851F8223093F8E8
:105160003430012BE4D151F82230DF6A5D7D07F045
:105170007F0704F817501B7D04EB47077B70D7E7C8
:1051800040F6887441F2500040F23421C2F200042B
:10519000C2F20000C2F200012246022300F076F9BA
:1051A00010B10120BDE8F0810020C4E9000040F208
:1051B000FF1000F023FE98F8000088B3307878B331
:1051C00040F69871C2F200010968002203E000BFB6
:1051D0000132904224D051F8223093F83030002B25
:1051E000F6D151F822309B6AB3F5017FF0D951F81E
:1051F00022309B6AB3F5027FEAD851F8223093F847
:105200003430012BE4D151F82230DF6A5D7D07F0A4
:105210007F0704F817501B7D04EB47077B70D7E727
:1052200040F6887441F2040040F23421C2F20004D6
:10523000C2F20000C2F2000122460123012500F063
:1052400025F900287FF462AF98F800100020206054
:10525000606089B3307878B340F69871C2F200018B
:105260000968002203E000BF0132904224D051F8C7
:10527000223093F83030012BF6D151F822309B6A5E
:10528000B3F5017FF0D951F822309B6AB3F5027F64
:10529000EAD851F8223093F83430012BE4D151F898
:1052A0002230DF6A5E7D07F07F0704F817601B7D00
:1052B00004EB47077B70D7E740F6887441F2500053
:1052C00040F23421C2F20004C2F20000C2F2000136
:1052D0002246022300F0DAF800287FF462AF0025AE
:1052E000C4E900552846BDE8F081000041F25C1099
:1052F000C2F2000000F0EEBD41F23C30C2F200000C
:1053000000F0E8BD41F29C00C2F2000000F0E2BDF6
:1053100041F29C30C2F2000000F0DCBD41F2FC0022
:10532000C2F2000000F0D6BD41F2DC20C2F2000063
:1053300000F0D0BD41F2BC10C2F2000000F0CABDC6
:1053400041F2FC30C2F2000000F0C4BD41F21C206A
:10535000C2F2000000F0BEBD41F25C40C2F20000AB
:1053600000F0B8BD41F27C20C2F2000000F0B2BDF6
:105370007047000004F0C4B880B540F29400C2F257
:1053800000008169884740F6987041F63C11C2F2EE
:105390000000C2F2000104F001FB41F67410C2F2F9
:1053A00000004FF07E520023012140F2000CC0E9C2
:1053B0003D23C0E91B23002280F8F010C4F27A4C90
:1053C00080F8681080F8AC104FF08041C4F2FA42C7
:1053D000C0E93F33C0E94133C0F80CC1C0E91D3317
:1053E000C0E91F33C0F884C0C0E92C13C0E92E33D4
:1053F000C0E93033C0F8C82080BD000080B540F25D
:105400009400C2F20000C1698847BDE8804004F002
:1054100095B8000010B592B0FFF7CAFDFFF7EEFD9A
:1054200004F0A6F803F056FC03F0A0FC03F0A4FD82
:1054300003F0E8FD03F032FE41F214516C46C2F273
:10544000000120464822FBF744F82046002102F0E4
:1054500019F912B010BD0000EFF3108072B600BF52
:10546000FEE7000090F82020013A012A04D80068E5
:1054700000F11402002004E000F1240201204FF4A6
:1054800080211368194311607047000010B590F82F
:1054900020E0D0F800C0AEF1010EBEF1010FDCF843
:1054A00008E00DD81EF0E05F10D0CEF3016EBEF123
:1054B000030F11D100F1240101204FF4000235E067
:1054C00000F1240101204FF480222FE000F124019B
:1054D00001204FF4001229E0012000FA0EF01860BC
:1054E000886828B14B68CC6844EAC303034303E0EF
:1054F0000868CB6843EA40530CEB0E10C0F88031CB
:105500000B69C0F88431097D012905D100F5C2710C
:105510000B6843F480730B605168C0F88C111268FB
:1055200000F5C071C0F88821002001220B681A43E1
:105530000A6010BDB0B590F82020013A012A2FD89A
:1055400046F20060C4F20000026842F0010202600C
:10555000026822F47C520260D1F814E0CC694A6AF5
:105560000368012C43EA022202600EF01F024FF092
:10557000010303FA02F2C3696FEA020C23EA020391
:10558000C36113D02CBBC36803EA0C03C360CB68B0
:105590008C8844EA034300EBCE0423640B4611E0FD
:1055A000416A41F4802141620120B0BDC3681343C8
:1055B000C3600B688C8844EA034300EBCE04236489
:1055C00001F10C038C681B8843EA044300EBCE0412
:1055D000636443688D6943EA0204D1F810E0096A04
:1055E000002D08BF03EA0C0444604369BEF1000FBC
:1055F00043EA020408BF03EA0C040129446102D112
:10560000C1691143C161016821F0010101600020FD
:10561000B0BD00007047000010B590F82040013C7C
:10562000012C0CD8D0F800C079B1DCF81040A407E8
:105630000FD100F1240101204FF4001270E000F1BD
:10564000240101204FF480226AE0DCF80C40A4071A
:105650006AD0046804EB011CDCF8B0410CF5D87E7C
:1056600014F004049460DCF8B04119BFE4085460FD
:10567000640D1460DEF80040002904F00204D460D8
:10568000DCF8B44104F00F041461DCF8B441C4F355
:1056900007249461DCF8B4414FEA14445461DCF807
:1056A000B8211A70026802EB0112D2F8B8214FEA51
:1056B00012225A70026802EB0112D2F8B8214FEAA6
:1056C00012429A70026802EB0112D2F8B8214FEA36
:1056D0001262DA70026802EB0112D2F8BC211A7170
:1056E000026802EB0112D2F8BC214FEA12225A7171
:1056F000026802EB0112D2F8BC214FEA12429A7101
:10570000026802EB0112D2F8BC214FEA1262DA7190
:10571000006814BF00F1100100F10C0100202022EC
:105720000B681A430A6010BD00F1240101204FF4F8
:105730000012F5E72DE9F04F81B004460068466994
:10574000D0F804908768D0F80CB0D0F810A0D0F84A
:105750001880F10703D1002530071CD423E0F90796
:1057600010D00121BA07816009D4780700F1AA801E
:10577000380700F1B080204600F04CFB02E02046E4
:1057800000F04AFB0025F80500F18480F80300F1E1
:10579000AA80300707D51BF0100004D0206845F41C
:1057A00000751021C160700708D51BF0080005D0F6
:1057B00020680821C160204600F0E6F9B00706D550
:1057C0002068C068800702D0204600F0DFF970062C
:1057D00007D51AF0100004D0206845F48065102128
:1057E0000161B00608D51AF0080005D0206808212C
:1057F0000161204600F0CEFAF00606D52068006967
:10580000800702D0204600F0C7FAB00308D519F08F
:10581000100005D0206810214160204600F0BEFA3B
:10582000F00308D519F0080005D020680821416070
:10583000204600F0FBFA300440F18F805FEA4970A7
:1058400040F1888006F4807008EA102028435FEA5F
:105850008871014648BF41F00201B20558BF0146B8
:105860005FEA48700D4648BF45F00405700558BF13
:105870000D4630056ED518F070006BD01038000959
:10588000052862D8DFE800F0035356595C5F45F005
:1058900008055AE020684FF48071BA0581600AD487
:1058A000780512D4380519D4204600F0B7FAF80369
:1058B0007FF56FAF17E0204600F0B2FAF8037FF5EE
:1058C00068AF10E04FF400655DE705F50055F8039B
:1058D0007FF55FAF07E04FF4805554E705F580454D
:1058E000F8037FF556AF20684FF48031BA0381602A
:1058F0000AD478030FD4380313D4204600F092FA68
:1059000030073FF548AF4EE7204600F08DFA3007EC
:105910003FF541AF47E705F5004530073FF53BAFA1
:1059200041E705F5803530073FF535AF3BE745F0FA
:1059300010050AE045F0200507E045F0400504E0C9
:1059400045F0800501E045F480752068816921F00B
:10595000700181612068042141604DB1606A40EAB4
:1059600005012046616201B0BDE8F04FFFF752BE6D
:1059700001B0BDE8F08F0000B0B5C8B1044690F8A2
:10598000200010B9204600F071F82068016841F04D
:105990000101016000F0EEFC054600BF206841688F
:1059A000C90707D100F0E6FC401B0B28F6D312E034
:1059B0000120B0BD016821F00201016000F0DAFCB5
:1059C000054600BF2068416889070DD500F0D2FC6C
:1059D000401B0B28F6D3606A052140F4003060625A
:1059E000012084F82010B0BD217E0268012922F038
:1059F000800208BF80320260617E0268012922F0C5
:105A0000400208BF40320260A17E0268012922F0F4
:105A1000200208BF20320260E17E0268012922F0E4
:105A2000100218BF10320260217F0268012922F0A3
:105A3000080208BF08320260617F0268012922F073
:105A4000040208BF04320260D4E901C2D4E903357C
:105A500061691A432A431143ACF101021143C16148
:105A600000200121606284F82010B0BD10B586B01E
:105A7000006846F60002C4F2000200219042CDE91F
:105A80000411CDE90211019133D046F20041C4F274
:105A90000001884276D140F25C21C2F200010A681E
:105AA00043F64000C4F20200531C0B6052B90021BF
:105AB0000091016841F000710160016801F000711E
:105AC000009100990021009150F8101C142441F01D
:105AD000080140F8101C50F8100C032100F00800D9
